{
  "_format": "hh-sol-artifact-1",
  "contractName": "RollupUserLogic",
  "sourceName": "src/rollup/RollupUserLogic.sol",
  "abi": [
    {
      "anonymous": false,
      "inputs": [
        {
          "indexed": false,
          "internalType": "address",
          "name": "previousAdmin",
          "type": "address"
        },
        {
          "indexed": false,
          "internalType": "address",
          "name": "newAdmin",
          "type": "address"
        }
      ],
      "name": "AdminChanged",
      "type": "event"
    },
    {
      "anonymous": false,
      "inputs": [
        {
          "indexed": true,
          "internalType": "address",
          "name": "beacon",
          "type": "address"
        }
      ],
      "name": "BeaconUpgraded",
      "type": "event"
    },
    {
      "anonymous": false,
      "inputs": [
        {
          "indexed": true,
          "internalType": "uint64",
          "name": "nodeNum",
          "type": "uint64"
        },
        {
          "indexed": false,
          "internalType": "bytes32",
          "name": "blockHash",
          "type": "bytes32"
        },
        {
          "indexed": false,
          "internalType": "bytes32",
          "name": "sendRoot",
          "type": "bytes32"
        }
      ],
      "name": "NodeConfirmed",
      "type": "event"
    },
    {
      "anonymous": false,
      "inputs": [
        {
          "indexed": true,
          "internalType": "uint64",
          "name": "nodeNum",
          "type": "uint64"
        },
        {
          "indexed": true,
          "internalType": "bytes32",
          "name": "parentNodeHash",
          "type": "bytes32"
        },
        {
          "indexed": true,
          "internalType": "bytes32",
          "name": "nodeHash",
          "type": "bytes32"
        },
        {
          "indexed": false,
          "internalType": "bytes32",
          "name": "executionHash",
          "type": "bytes32"
        },
        {
          "components": [
            {
              "components": [
                {
                  "components": [
                    {
                      "internalType": "bytes32[2]",
                      "name": "bytes32Vals",
                      "type": "bytes32[2]"
                    },
                    {
                      "internalType": "uint64[2]",
                      "name": "u64Vals",
                      "type": "uint64[2]"
                    }
                  ],
                  "internalType": "struct GlobalState",
                  "name": "globalState",
                  "type": "tuple"
                },
                {
                  "internalType": "enum MachineStatus",
                  "name": "machineStatus",
                  "type": "uint8"
                }
              ],
              "internalType": "struct ExecutionState",
              "name": "beforeState",
              "type": "tuple"
            },
            {
              "components": [
                {
                  "components": [
                    {
                      "internalType": "bytes32[2]",
                      "name": "bytes32Vals",
                      "type": "bytes32[2]"
                    },
                    {
                      "internalType": "uint64[2]",
                      "name": "u64Vals",
                      "type": "uint64[2]"
                    }
                  ],
                  "internalType": "struct GlobalState",
                  "name": "globalState",
                  "type": "tuple"
                },
                {
                  "internalType": "enum MachineStatus",
                  "name": "machineStatus",
                  "type": "uint8"
                }
              ],
              "internalType": "struct ExecutionState",
              "name": "afterState",
              "type": "tuple"
            },
            {
              "internalType": "uint64",
              "name": "numBlocks",
              "type": "uint64"
            }
          ],
          "indexed": false,
          "internalType": "struct Assertion",
          "name": "assertion",
          "type": "tuple"
        },
        {
          "indexed": false,
          "internalType": "bytes32",
          "name": "afterInboxBatchAcc",
          "type": "bytes32"
        },
        {
          "indexed": false,
          "internalType": "bytes32",
          "name": "wasmModuleRoot",
          "type": "bytes32"
        },
        {
          "indexed": false,
          "internalType": "uint256",
          "name": "inboxMaxCount",
          "type": "uint256"
        }
      ],
      "name": "NodeCreated",
      "type": "event"
    },
    {
      "anonymous": false,
      "inputs": [
        {
          "indexed": true,
          "internalType": "uint64",
          "name": "nodeNum",
          "type": "uint64"
        }
      ],
      "name": "NodeRejected",
      "type": "event"
    },
    {
      "anonymous": false,
      "inputs": [
        {
          "indexed": false,
          "internalType": "address",
          "name": "account",
          "type": "address"
        }
      ],
      "name": "Paused",
      "type": "event"
    },
    {
      "anonymous": false,
      "inputs": [
        {
          "indexed": true,
          "internalType": "uint64",
          "name": "challengeIndex",
          "type": "uint64"
        },
        {
          "indexed": false,
          "internalType": "address",
          "name": "asserter",
          "type": "address"
        },
        {
          "indexed": false,
          "internalType": "address",
          "name": "challenger",
          "type": "address"
        },
        {
          "indexed": false,
          "internalType": "uint64",
          "name": "challengedNode",
          "type": "uint64"
        }
      ],
      "name": "RollupChallengeStarted",
      "type": "event"
    },
    {
      "anonymous": false,
      "inputs": [
        {
          "indexed": false,
          "internalType": "bytes32",
          "name": "machineHash",
          "type": "bytes32"
        },
        {
          "indexed": false,
          "internalType": "uint256",
          "name": "chainId",
          "type": "uint256"
        }
      ],
      "name": "RollupInitialized",
      "type": "event"
    },
    {
      "anonymous": false,
      "inputs": [
        {
          "indexed": false,
          "internalType": "address",
          "name": "account",
          "type": "address"
        }
      ],
      "name": "Unpaused",
      "type": "event"
    },
    {
      "anonymous": false,
      "inputs": [
        {
          "indexed": true,
          "internalType": "address",
          "name": "implementation",
          "type": "address"
        }
      ],
      "name": "Upgraded",
      "type": "event"
    },
    {
      "anonymous": false,
      "inputs": [
        {
          "indexed": true,
          "internalType": "address",
          "name": "implementation",
          "type": "address"
        }
      ],
      "name": "UpgradedSecondary",
      "type": "event"
    },
    {
      "anonymous": false,
      "inputs": [
        {
          "indexed": true,
          "internalType": "address",
          "name": "user",
          "type": "address"
        },
        {
          "indexed": false,
          "internalType": "uint256",
          "name": "initialBalance",
          "type": "uint256"
        },
        {
          "indexed": false,
          "internalType": "uint256",
          "name": "finalBalance",
          "type": "uint256"
        }
      ],
      "name": "UserStakeUpdated",
      "type": "event"
    },
    {
      "anonymous": false,
      "inputs": [
        {
          "indexed": true,
          "internalType": "address",
          "name": "user",
          "type": "address"
        },
        {
          "indexed": false,
          "internalType": "uint256",
          "name": "initialBalance",
          "type": "uint256"
        },
        {
          "indexed": false,
          "internalType": "uint256",
          "name": "finalBalance",
          "type": "uint256"
        }
      ],
      "name": "UserWithdrawableFundsUpdated",
      "type": "event"
    },
    {
      "inputs": [],
      "name": "VALIDATOR_AFK_BLOCKS",
      "outputs": [
        {
          "internalType": "uint256",
          "name": "",
          "type": "uint256"
        }
      ],
      "stateMutability": "view",
      "type": "function"
    },
    {
      "inputs": [
        {
          "internalType": "address",
          "name": "",
          "type": "address"
        }
      ],
      "name": "_stakerMap",
      "outputs": [
        {
          "internalType": "uint256",
          "name": "amountStaked",
          "type": "uint256"
        },
        {
          "internalType": "uint64",
          "name": "index",
          "type": "uint64"
        },
        {
          "internalType": "uint64",
          "name": "latestStakedNode",
          "type": "uint64"
        },
        {
          "internalType": "uint64",
          "name": "currentChallenge",
          "type": "uint64"
        },
        {
          "internalType": "bool",
          "name": "isStaked",
          "type": "bool"
        }
      ],
      "stateMutability": "view",
      "type": "function"
    },
    {
      "inputs": [
        {
          "internalType": "address",
          "name": "stakerAddress",
          "type": "address"
        }
      ],
      "name": "addToDeposit",
      "outputs": [],
      "stateMutability": "payable",
      "type": "function"
    },
    {
      "inputs": [
        {
          "internalType": "address",
          "name": "staker",
          "type": "address"
        }
      ],
      "name": "amountStaked",
      "outputs": [
        {
          "internalType": "uint256",
          "name": "",
          "type": "uint256"
        }
      ],
      "stateMutability": "view",
      "type": "function"
    },
    {
      "inputs": [],
      "name": "baseStake",
      "outputs": [
        {
          "internalType": "uint256",
          "name": "",
          "type": "uint256"
        }
      ],
      "stateMutability": "view",
      "type": "function"
    },
    {
      "inputs": [],
      "name": "bridge",
      "outputs": [
        {
          "internalType": "contract IBridge",
          "name": "",
          "type": "address"
        }
      ],
      "stateMutability": "view",
      "type": "function"
    },
    {
      "inputs": [],
      "name": "chainId",
      "outputs": [
        {
          "internalType": "uint256",
          "name": "",
          "type": "uint256"
        }
      ],
      "stateMutability": "view",
      "type": "function"
    },
    {
      "inputs": [],
      "name": "challengeManager",
      "outputs": [
        {
          "internalType": "contract IChallengeManager",
          "name": "",
          "type": "address"
        }
      ],
      "stateMutability": "view",
      "type": "function"
    },
    {
      "inputs": [
        {
          "internalType": "uint256",
          "name": "challengeIndex",
          "type": "uint256"
        },
        {
          "internalType": "address",
          "name": "winningStaker",
          "type": "address"
        },
        {
          "internalType": "address",
          "name": "losingStaker",
          "type": "address"
        }
      ],
      "name": "completeChallenge",
      "outputs": [],
      "stateMutability": "nonpayable",
      "type": "function"
    },
    {
      "inputs": [
        {
          "internalType": "bytes32",
          "name": "blockHash",
          "type": "bytes32"
        },
        {
          "internalType": "bytes32",
          "name": "sendRoot",
          "type": "bytes32"
        }
      ],
      "name": "confirmNextNode",
      "outputs": [],
      "stateMutability": "nonpayable",
      "type": "function"
    },
    {
      "inputs": [],
      "name": "confirmPeriodBlocks",
      "outputs": [
        {
          "internalType": "uint64",
          "name": "",
          "type": "uint64"
        }
      ],
      "stateMutability": "view",
      "type": "function"
    },
    {
      "inputs": [
        {
          "internalType": "uint64",
          "name": "nodeNum",
          "type": "uint64"
        }
      ],
      "name": "countStakedZombies",
      "outputs": [
        {
          "internalType": "uint256",
          "name": "",
          "type": "uint256"
        }
      ],
      "stateMutability": "view",
      "type": "function"
    },
    {
      "inputs": [
        {
          "internalType": "uint64",
          "name": "nodeNum",
          "type": "uint64"
        }
      ],
      "name": "countZombiesStakedOnChildren",
      "outputs": [
        {
          "internalType": "uint256",
          "name": "",
          "type": "uint256"
        }
      ],
      "stateMutability": "view",
      "type": "function"
    },
    {
      "inputs": [
        {
          "internalType": "address[2]",
          "name": "stakers",
          "type": "address[2]"
        },
        {
          "internalType": "uint64[2]",
          "name": "nodeNums",
          "type": "uint64[2]"
        },
        {
          "internalType": "enum MachineStatus[2]",
          "name": "machineStatuses",
          "type": "uint8[2]"
        },
        {
          "components": [
            {
              "internalType": "bytes32[2]",
              "name": "bytes32Vals",
              "type": "bytes32[2]"
            },
            {
              "internalType": "uint64[2]",
              "name": "u64Vals",
              "type": "uint64[2]"
            }
          ],
          "internalType": "struct GlobalState[2]",
          "name": "globalStates",
          "type": "tuple[2]"
        },
        {
          "internalType": "uint64",
          "name": "numBlocks",
          "type": "uint64"
        },
        {
          "internalType": "bytes32",
          "name": "secondExecutionHash",
          "type": "bytes32"
        },
        {
          "internalType": "uint256[2]",
          "name": "proposedBlocks",
          "type": "uint256[2]"
        },
        {
          "internalType": "bytes32[2]",
          "name": "wasmModuleRoots",
          "type": "bytes32[2]"
        }
      ],
      "name": "createChallenge",
      "outputs": [],
      "stateMutability": "nonpayable",
      "type": "function"
    },
    {
      "inputs": [
        {
          "internalType": "address",
          "name": "staker",
          "type": "address"
        }
      ],
      "name": "currentChallenge",
      "outputs": [
        {
          "internalType": "uint64",
          "name": "",
          "type": "uint64"
        }
      ],
      "stateMutability": "view",
      "type": "function"
    },
    {
      "inputs": [],
      "name": "currentRequiredStake",
      "outputs": [
        {
          "internalType": "uint256",
          "name": "",
          "type": "uint256"
        }
      ],
      "stateMutability": "view",
      "type": "function"
    },
    {
      "inputs": [],
      "name": "extraChallengeTimeBlocks",
      "outputs": [
        {
          "internalType": "uint64",
          "name": "",
          "type": "uint64"
        }
      ],
      "stateMutability": "view",
      "type": "function"
    },
    {
      "inputs": [],
      "name": "firstUnresolvedNode",
      "outputs": [
        {
          "internalType": "uint64",
          "name": "",
          "type": "uint64"
        }
      ],
      "stateMutability": "view",
      "type": "function"
    },
    {
      "inputs": [
        {
          "internalType": "uint64",
          "name": "nodeNum",
          "type": "uint64"
        }
      ],
      "name": "getNode",
      "outputs": [
        {
          "components": [
            {
              "internalType": "bytes32",
              "name": "stateHash",
              "type": "bytes32"
            },
            {
              "internalType": "bytes32",
              "name": "challengeHash",
              "type": "bytes32"
            },
            {
              "internalType": "bytes32",
              "name": "confirmData",
              "type": "bytes32"
            },
            {
              "internalType": "uint64",
              "name": "prevNum",
              "type": "uint64"
            },
            {
              "internalType": "uint64",
              "name": "deadlineBlock",
              "type": "uint64"
            },
            {
              "internalType": "uint64",
              "name": "noChildConfirmedBeforeBlock",
              "type": "uint64"
            },
            {
              "internalType": "uint64",
              "name": "stakerCount",
              "type": "uint64"
            },
            {
              "internalType": "uint64",
              "name": "childStakerCount",
              "type": "uint64"
            },
            {
              "internalType": "uint64",
              "name": "firstChildBlock",
              "type": "uint64"
            },
            {
              "internalType": "uint64",
              "name": "latestChildNumber",
              "type": "uint64"
            },
            {
              "internalType": "uint64",
              "name": "createdAtBlock",
              "type": "uint64"
            },
            {
              "internalType": "bytes32",
              "name": "nodeHash",
              "type": "bytes32"
            }
          ],
          "internalType": "struct Node",
          "name": "",
          "type": "tuple"
        }
      ],
      "stateMutability": "view",
      "type": "function"
    },
    {
      "inputs": [
        {
          "internalType": "uint64",
          "name": "nodeNum",
          "type": "uint64"
        }
      ],
      "name": "getNodeCreationBlockForLogLookup",
      "outputs": [
        {
          "internalType": "uint256",
          "name": "",
          "type": "uint256"
        }
      ],
      "stateMutability": "view",
      "type": "function"
    },
    {
      "inputs": [
        {
          "internalType": "address",
          "name": "staker",
          "type": "address"
        }
      ],
      "name": "getStaker",
      "outputs": [
        {
          "components": [
            {
              "internalType": "uint256",
              "name": "amountStaked",
              "type": "uint256"
            },
            {
              "internalType": "uint64",
              "name": "index",
              "type": "uint64"
            },
            {
              "internalType": "uint64",
              "name": "latestStakedNode",
              "type": "uint64"
            },
            {
              "internalType": "uint64",
              "name": "currentChallenge",
              "type": "uint64"
            },
            {
              "internalType": "bool",
              "name": "isStaked",
              "type": "bool"
            }
          ],
          "internalType": "struct IRollupCore.Staker",
          "name": "",
          "type": "tuple"
        }
      ],
      "stateMutability": "view",
      "type": "function"
    },
    {
      "inputs": [
        {
          "internalType": "uint64",
          "name": "stakerNum",
          "type": "uint64"
        }
      ],
      "name": "getStakerAddress",
      "outputs": [
        {
          "internalType": "address",
          "name": "",
          "type": "address"
        }
      ],
      "stateMutability": "view",
      "type": "function"
    },
    {
      "inputs": [],
      "name": "inbox",
      "outputs": [
        {
          "internalType": "contract IInbox",
          "name": "",
          "type": "address"
        }
      ],
      "stateMutability": "view",
      "type": "function"
    },
    {
      "inputs": [
        {
          "internalType": "address",
          "name": "_stakeToken",
          "type": "address"
        }
      ],
      "name": "initialize",
      "outputs": [],
      "stateMutability": "view",
      "type": "function"
    },
    {
      "inputs": [],
      "name": "isERC20Enabled",
      "outputs": [
        {
          "internalType": "bool",
          "name": "",
          "type": "bool"
        }
      ],
      "stateMutability": "view",
      "type": "function"
    },
    {
      "inputs": [
        {
          "internalType": "address",
          "name": "staker",
          "type": "address"
        }
      ],
      "name": "isStaked",
      "outputs": [
        {
          "internalType": "bool",
          "name": "",
          "type": "bool"
        }
      ],
      "stateMutability": "view",
      "type": "function"
    },
    {
      "inputs": [
        {
          "internalType": "address",
          "name": "staker",
          "type": "address"
        }
      ],
      "name": "isStakedOnLatestConfirmed",
      "outputs": [
        {
          "internalType": "bool",
          "name": "",
          "type": "bool"
        }
      ],
      "stateMutability": "view",
      "type": "function"
    },
    {
      "inputs": [
        {
          "internalType": "address",
          "name": "",
          "type": "address"
        }
      ],
      "name": "isValidator",
      "outputs": [
        {
          "internalType": "bool",
          "name": "",
          "type": "bool"
        }
      ],
      "stateMutability": "view",
      "type": "function"
    },
    {
      "inputs": [
        {
          "internalType": "address",
          "name": "staker",
          "type": "address"
        }
      ],
      "name": "isZombie",
      "outputs": [
        {
          "internalType": "bool",
          "name": "",
          "type": "bool"
        }
      ],
      "stateMutability": "view",
      "type": "function"
    },
    {
      "inputs": [],
      "name": "lastStakeBlock",
      "outputs": [
        {
          "internalType": "uint64",
          "name": "",
          "type": "uint64"
        }
      ],
      "stateMutability": "view",
      "type": "function"
    },
    {
      "inputs": [],
      "name": "latestConfirmed",
      "outputs": [
        {
          "internalType": "uint64",
          "name": "",
          "type": "uint64"
        }
      ],
      "stateMutability": "view",
      "type": "function"
    },
    {
      "inputs": [],
      "name": "latestNodeCreated",
      "outputs": [
        {
          "internalType": "uint64",
          "name": "",
          "type": "uint64"
        }
      ],
      "stateMutability": "view",
      "type": "function"
    },
    {
      "inputs": [
        {
          "internalType": "address",
          "name": "staker",
          "type": "address"
        }
      ],
      "name": "latestStakedNode",
      "outputs": [
        {
          "internalType": "uint64",
          "name": "",
          "type": "uint64"
        }
      ],
      "stateMutability": "view",
      "type": "function"
    },
    {
      "inputs": [],
      "name": "loserStakeEscrow",
      "outputs": [
        {
          "internalType": "address",
          "name": "",
          "type": "address"
        }
      ],
      "stateMutability": "view",
      "type": "function"
    },
    {
      "inputs": [],
      "name": "minimumAssertionPeriod",
      "outputs": [
        {
          "internalType": "uint256",
          "name": "",
          "type": "uint256"
        }
      ],
      "stateMutability": "view",
      "type": "function"
    },
    {
      "inputs": [
        {
          "internalType": "uint64",
          "name": "nodeNum",
          "type": "uint64"
        },
        {
          "internalType": "bytes32",
          "name": "nodeHash",
          "type": "bytes32"
        }
      ],
      "name": "newStakeOnExistingNode",
      "outputs": [],
      "stateMutability": "payable",
      "type": "function"
    },
    {
      "inputs": [
        {
          "components": [
            {
              "components": [
                {
                  "components": [
                    {
                      "internalType": "bytes32[2]",
                      "name": "bytes32Vals",
                      "type": "bytes32[2]"
                    },
                    {
                      "internalType": "uint64[2]",
                      "name": "u64Vals",
                      "type": "uint64[2]"
                    }
                  ],
                  "internalType": "struct GlobalState",
                  "name": "globalState",
                  "type": "tuple"
                },
                {
                  "internalType": "enum MachineStatus",
                  "name": "machineStatus",
                  "type": "uint8"
                }
              ],
              "internalType": "struct ExecutionState",
              "name": "beforeState",
              "type": "tuple"
            },
            {
              "components": [
                {
                  "components": [
                    {
                      "internalType": "bytes32[2]",
                      "name": "bytes32Vals",
                      "type": "bytes32[2]"
                    },
                    {
                      "internalType": "uint64[2]",
                      "name": "u64Vals",
                      "type": "uint64[2]"
                    }
                  ],
                  "internalType": "struct GlobalState",
                  "name": "globalState",
                  "type": "tuple"
                },
                {
                  "internalType": "enum MachineStatus",
                  "name": "machineStatus",
                  "type": "uint8"
                }
              ],
              "internalType": "struct ExecutionState",
              "name": "afterState",
              "type": "tuple"
            },
            {
              "internalType": "uint64",
              "name": "numBlocks",
              "type": "uint64"
            }
          ],
          "internalType": "struct Assertion",
          "name": "assertion",
          "type": "tuple"
        },
        {
          "internalType": "bytes32",
          "name": "expectedNodeHash",
          "type": "bytes32"
        },
        {
          "internalType": "uint256",
          "name": "prevNodeInboxMaxCount",
          "type": "uint256"
        }
      ],
      "name": "newStakeOnNewNode",
      "outputs": [],
      "stateMutability": "payable",
      "type": "function"
    },
    {
      "inputs": [
        {
          "internalType": "uint64",
          "name": "nodeNum",
          "type": "uint64"
        },
        {
          "internalType": "address",
          "name": "staker",
          "type": "address"
        }
      ],
      "name": "nodeHasStaker",
      "outputs": [
        {
          "internalType": "bool",
          "name": "",
          "type": "bool"
        }
      ],
      "stateMutability": "view",
      "type": "function"
    },
    {
      "inputs": [],
      "name": "outbox",
      "outputs": [
        {
          "internalType": "contract IOutbox",
          "name": "",
          "type": "address"
        }
      ],
      "stateMutability": "view",
      "type": "function"
    },
    {
      "inputs": [],
      "name": "owner",
      "outputs": [
        {
          "internalType": "address",
          "name": "",
          "type": "address"
        }
      ],
      "stateMutability": "view",
      "type": "function"
    },
    {
      "inputs": [],
      "name": "paused",
      "outputs": [
        {
          "internalType": "bool",
          "name": "",
          "type": "bool"
        }
      ],
      "stateMutability": "view",
      "type": "function"
    },
    {
      "inputs": [],
      "name": "proxiableUUID",
      "outputs": [
        {
          "internalType": "bytes32",
          "name": "",
          "type": "bytes32"
        }
      ],
      "stateMutability": "view",
      "type": "function"
    },
    {
      "inputs": [
        {
          "internalType": "uint256",
          "name": "target",
          "type": "uint256"
        }
      ],
      "name": "reduceDeposit",
      "outputs": [],
      "stateMutability": "nonpayable",
      "type": "function"
    },
    {
      "inputs": [
        {
          "internalType": "address",
          "name": "stakerAddress",
          "type": "address"
        }
      ],
      "name": "rejectNextNode",
      "outputs": [],
      "stateMutability": "nonpayable",
      "type": "function"
    },
    {
      "inputs": [
        {
          "internalType": "uint256",
          "name": "startIndex",
          "type": "uint256"
        }
      ],
      "name": "removeOldZombies",
      "outputs": [],
      "stateMutability": "nonpayable",
      "type": "function"
    },
    {
      "inputs": [],
      "name": "removeWhitelistAfterFork",
      "outputs": [],
      "stateMutability": "nonpayable",
      "type": "function"
    },
    {
      "inputs": [],
      "name": "removeWhitelistAfterValidatorAfk",
      "outputs": [],
      "stateMutability": "nonpayable",
      "type": "function"
    },
    {
      "inputs": [
        {
          "internalType": "uint256",
          "name": "zombieNum",
          "type": "uint256"
        },
        {
          "internalType": "uint256",
          "name": "maxNodes",
          "type": "uint256"
        }
      ],
      "name": "removeZombie",
      "outputs": [],
      "stateMutability": "nonpayable",
      "type": "function"
    },
    {
      "inputs": [
        {
          "internalType": "uint256",
          "name": "nodeNum",
          "type": "uint256"
        }
      ],
      "name": "requireUnresolved",
      "outputs": [],
      "stateMutability": "view",
      "type": "function"
    },
    {
      "inputs": [],
      "name": "requireUnresolvedExists",
      "outputs": [],
      "stateMutability": "view",
      "type": "function"
    },
    {
      "inputs": [
        {
          "internalType": "uint256",
          "name": "blockNumber",
          "type": "uint256"
        },
        {
          "internalType": "uint64",
          "name": "firstUnresolvedNodeNum",
          "type": "uint64"
        },
        {
          "internalType": "uint64",
          "name": "latestCreatedNode",
          "type": "uint64"
        }
      ],
      "name": "requiredStake",
      "outputs": [
        {
          "internalType": "uint256",
          "name": "",
          "type": "uint256"
        }
      ],
      "stateMutability": "view",
      "type": "function"
    },
    {
      "inputs": [
        {
          "internalType": "address",
          "name": "stakerAddress",
          "type": "address"
        }
      ],
      "name": "returnOldDeposit",
      "outputs": [],
      "stateMutability": "nonpayable",
      "type": "function"
    },
    {
      "inputs": [],
      "name": "rollupDeploymentBlock",
      "outputs": [
        {
          "internalType": "uint256",
          "name": "",
          "type": "uint256"
        }
      ],
      "stateMutability": "view",
      "type": "function"
    },
    {
      "inputs": [],
      "name": "rollupEventInbox",
      "outputs": [
        {
          "internalType": "contract IRollupEventInbox",
          "name": "",
          "type": "address"
        }
      ],
      "stateMutability": "view",
      "type": "function"
    },
    {
      "inputs": [],
      "name": "sequencerInbox",
      "outputs": [
        {
          "internalType": "contract ISequencerInbox",
          "name": "",
          "type": "address"
        }
      ],
      "stateMutability": "view",
      "type": "function"
    },
    {
      "inputs": [
        {
          "internalType": "uint64",
          "name": "nodeNum",
          "type": "uint64"
        },
        {
          "internalType": "bytes32",
          "name": "nodeHash",
          "type": "bytes32"
        }
      ],
      "name": "stakeOnExistingNode",
      "outputs": [],
      "stateMutability": "nonpayable",
      "type": "function"
    },
    {
      "inputs": [
        {
          "components": [
            {
              "components": [
                {
                  "components": [
                    {
                      "internalType": "bytes32[2]",
                      "name": "bytes32Vals",
                      "type": "bytes32[2]"
                    },
                    {
                      "internalType": "uint64[2]",
                      "name": "u64Vals",
                      "type": "uint64[2]"
                    }
                  ],
                  "internalType": "struct GlobalState",
                  "name": "globalState",
                  "type": "tuple"
                },
                {
                  "internalType": "enum MachineStatus",
                  "name": "machineStatus",
                  "type": "uint8"
                }
              ],
              "internalType": "struct ExecutionState",
              "name": "beforeState",
              "type": "tuple"
            },
            {
              "components": [
                {
                  "components": [
                    {
                      "internalType": "bytes32[2]",
                      "name": "bytes32Vals",
                      "type": "bytes32[2]"
                    },
                    {
                      "internalType": "uint64[2]",
                      "name": "u64Vals",
                      "type": "uint64[2]"
                    }
                  ],
                  "internalType": "struct GlobalState",
                  "name": "globalState",
                  "type": "tuple"
                },
                {
                  "internalType": "enum MachineStatus",
                  "name": "machineStatus",
                  "type": "uint8"
                }
              ],
              "internalType": "struct ExecutionState",
              "name": "afterState",
              "type": "tuple"
            },
            {
              "internalType": "uint64",
              "name": "numBlocks",
              "type": "uint64"
            }
          ],
          "internalType": "struct Assertion",
          "name": "assertion",
          "type": "tuple"
        },
        {
          "internalType": "bytes32",
          "name": "expectedNodeHash",
          "type": "bytes32"
        },
        {
          "internalType": "uint256",
          "name": "prevNodeInboxMaxCount",
          "type": "uint256"
        }
      ],
      "name": "stakeOnNewNode",
      "outputs": [],
      "stateMutability": "nonpayable",
      "type": "function"
    },
    {
      "inputs": [],
      "name": "stakeToken",
      "outputs": [
        {
          "internalType": "address",
          "name": "",
          "type": "address"
        }
      ],
      "stateMutability": "view",
      "type": "function"
    },
    {
      "inputs": [],
      "name": "stakerCount",
      "outputs": [
        {
          "internalType": "uint64",
          "name": "",
          "type": "uint64"
        }
      ],
      "stateMutability": "view",
      "type": "function"
    },
    {
      "inputs": [],
      "name": "totalWithdrawableFunds",
      "outputs": [
        {
          "internalType": "uint256",
          "name": "",
          "type": "uint256"
        }
      ],
      "stateMutability": "view",
      "type": "function"
    },
    {
      "inputs": [],
      "name": "validatorUtils",
      "outputs": [
        {
          "internalType": "address",
          "name": "",
          "type": "address"
        }
      ],
      "stateMutability": "view",
      "type": "function"
    },
    {
      "inputs": [],
      "name": "validatorWalletCreator",
      "outputs": [
        {
          "internalType": "address",
          "name": "",
          "type": "address"
        }
      ],
      "stateMutability": "view",
      "type": "function"
    },
    {
      "inputs": [],
      "name": "validatorWhitelistDisabled",
      "outputs": [
        {
          "internalType": "bool",
          "name": "",
          "type": "bool"
        }
      ],
      "stateMutability": "view",
      "type": "function"
    },
    {
      "inputs": [],
      "name": "wasmModuleRoot",
      "outputs": [
        {
          "internalType": "bytes32",
          "name": "",
          "type": "bytes32"
        }
      ],
      "stateMutability": "view",
      "type": "function"
    },
    {
      "inputs": [],
      "name": "withdrawStakerFunds",
      "outputs": [
        {
          "internalType": "uint256",
          "name": "",
          "type": "uint256"
        }
      ],
      "stateMutability": "nonpayable",
      "type": "function"
    },
    {
      "inputs": [
        {
          "internalType": "address",
          "name": "user",
          "type": "address"
        }
      ],
      "name": "withdrawableFunds",
      "outputs": [
        {
          "internalType": "uint256",
          "name": "",
          "type": "uint256"
        }
      ],
      "stateMutability": "view",
      "type": "function"
    },
    {
      "inputs": [
        {
          "internalType": "uint256",
          "name": "zombieNum",
          "type": "uint256"
        }
      ],
      "name": "zombieAddress",
      "outputs": [
        {
          "internalType": "address",
          "name": "",
          "type": "address"
        }
      ],
      "stateMutability": "view",
      "type": "function"
    },
    {
      "inputs": [],
      "name": "zombieCount",
      "outputs": [
        {
          "internalType": "uint256",
          "name": "",
          "type": "uint256"
        }
      ],
      "stateMutability": "view",
      "type": "function"
    },
    {
      "inputs": [
        {
          "internalType": "uint256",
          "name": "zombieNum",
          "type": "uint256"
        }
      ],
      "name": "zombieLatestStakedNode",
      "outputs": [
        {
          "internalType": "uint64",
          "name": "",
          "type": "uint64"
        }
      ],
      "stateMutability": "view",
      "type": "function"
    }
  ],
  "bytecode": "0x60e06040523060a0524660c0523480156200001957600080fd5b5060408051600481526024810182526020810180516001600160e01b03166302881c7960e11b179052905160009182916064916200005791620000bb565b600060405180830381855afa9150503d806000811462000094576040519150601f19603f3d011682016040523d82523d6000602084013e62000099565b606091505b5091509150818015620000ad575080516020145b151560805250620000f99050565b6000825160005b81811015620000de5760208186018101518583015201620000c2565b81811115620000ee576000828501525b509190910192915050565b60805160a05160c051615c6a6200013e600039600061285a01526000818161121f015281816128c9015261294e015260008181612c420152614b580152615c6a6000f3fe60806040526004361061037a5760003560e01c80637427be51116101d3578063c4d66de811610103578063e8bd49221161009b578063e8bd492214610b7c578063edfd03ed14610c11578063ee35f32714610c31578063ef40a67014610c51578063f065de3f14610c71578063f33e1fac14610c91578063f63a434a14610cb1578063facd743b14610cd1578063fb0e722b14610d0157600080fd5b8063c4d66de814610a7f578063cd205fda14610a9f578063ce11e6ab14610abf578063ced01cfb14610adf578063d01e660214610af2578063d735e21d14610b12578063dcd030aa14610b27578063dff6978714610b47578063e78cea9214610b5c57600080fd5b806391c657e81161017657806391c657e81461087857806392c8134c146108985780639a8a0592146108c5578063a23c44b1146108db578063aa38a6e7146109ea578063aa65af4814610a0a578063b0ebedc714610a2a578063bc45e0ae14610a4a578063c2c2e68e14610a6a57600080fd5b80637427be511461079657806376e7e23b146107b6578063771b2f97146107cc5780637ba9534a146107f35780637e2d2155146108085780638640ce5f146108285780638da5cb5b1461084d5780638ee1a1261461086257600080fd5b806351ed6a30116102ae57806363721d6b1161025157806363721d6b1461069857806365f7f80d146106ad57806367425daf146106cb57806369fd251c146106e05780636b94c33b146107005780636d08d0a2146107205780636ddd3744146107405780636f57644e1461076057806371ef232c1461078057600080fd5b806351ed6a30146105b657806352d1902d146105d657806354ce8961146105eb5780635c617e941461060b5780635c975abb1461062b5780635eb405d51461064357806361373919146106635780636177fd181461067857600080fd5b80632b2af0ab116103215780632b2af0ab146104a15780632e7acfa6146104c15780632f30cabd146104f95780633e96576e1461052f57806345c5b2c71461054f57806345e38b64146105625780634774e576146105785780634ceccfe51461058b5780634d26732d146105a157600080fd5b8063014cc92c1461037f578063023a96fe146103bc5780630357aa49146103dc57806312ab3d3b146103fe57806318baaab9146104285780631aeb55a01461043d5780631b1689e91461045d5780631e83d30f14610481575b600080fd5b34801561038b57600080fd5b50606f5461039f906001600160a01b031681565b6040516001600160a01b0390911681526020015b60405180910390f35b3480156103c857600080fd5b50606e5461039f906001600160a01b031681565b3480156103e857600080fd5b506103fc6103f73660046150d7565b610d21565b005b34801561040a57600080fd5b50607e546104189060ff1681565b60405190151581526020016103b3565b34801561043457600080fd5b506103fc610df4565b34801561044957600080fd5b506103fc610458366004615128565b610e6e565b34801561046957600080fd5b50610473607d5481565b6040519081526020016103b3565b34801561048d57600080fd5b506103fc61049c366004615154565b61102e565b3480156104ad57600080fd5b506103fc6104bc366004615154565b611095565b3480156104cd57600080fd5b506065546104e1906001600160401b031681565b6040516001600160401b0390911681526020016103b3565b34801561050557600080fd5b5061047361051436600461516d565b6001600160a01b03166000908152607b602052604090205490565b34801561053b57600080fd5b506104e161054a36600461516d565b611139565b6103fc61055d36600461516d565b611167565b34801561056e57600080fd5b5061047360735481565b6103fc610586366004615188565b6111d0565b34801561059757600080fd5b5061047361b2fa81565b3480156105ad57600080fd5b506104736111e4565b3480156105c257600080fd5b5060725461039f906001600160a01b031681565b3480156105e257600080fd5b50610473611212565b3480156105f757600080fd5b506103fc610606366004615188565b6112d7565b34801561061757600080fd5b506104736106263660046151c5565b61153a565b34801561063757600080fd5b5060335460ff16610418565b34801561064f57600080fd5b506103fc61065e3660046151e2565b61158e565b34801561066f57600080fd5b506104736118b1565b34801561068457600080fd5b5061041861069336600461516d565b61198b565b3480156106a457600080fd5b50607a54610473565b3480156106b957600080fd5b506075546001600160401b03166104e1565b3480156106d757600080fd5b506103fc6119b3565b3480156106ec57600080fd5b506104e16106fb36600461516d565b611a3d565b34801561070c57600080fd5b506103fc61071b36600461516d565b611a6b565b34801561072c57600080fd5b5061047361073b3660046151c5565b611da3565b34801561074c57600080fd5b5061039f61075b3660046151c5565b611e26565b34801561076c57600080fd5b506103fc61077b366004615215565b611e5f565b34801561078c57600080fd5b50610473607c5481565b3480156107a257600080fd5b506103fc6107b136600461516d565b612491565b3480156107c257600080fd5b5061047360675481565b3480156107d857600080fd5b506065546104e190600160401b90046001600160401b031681565b3480156107ff57600080fd5b506104e1612538565b34801561081457600080fd5b506103fc6108233660046151e2565b61254e565b34801561083457600080fd5b50607554600160c01b90046001600160401b03166104e1565b34801561085957600080fd5b5061039f6126b2565b34801561086e57600080fd5b5061047360685481565b34801561088457600080fd5b5061041861089336600461516d565b6126c1565b3480156108a457600080fd5b506108b86108b33660046151c5565b612725565b6040516103b391906152b5565b3480156108d157600080fd5b5061047360665481565b3480156108e757600080fd5b506109956108f636600461516d565b6040805160a081018252600080825260208201819052918101829052606081018290526080810191909152506001600160a01b0316600090815260796020908152604091829020825160a081018452815481526001909101546001600160401b0380821693830193909352600160401b8104831693820193909352600160801b83049091166060820152600160c01b90910460ff161515608082015290565b6040516103b39190600060a0820190508251825260208301516001600160401b038082166020850152806040860151166040850152806060860151166060850152505060808301511515608083015292915050565b3480156109f657600080fd5b50606d5461039f906001600160a01b031681565b348015610a1657600080fd5b50610418610a253660046153b1565b6127dd565b348015610a3657600080fd5b50610473610a453660046153e6565b612814565b348015610a5657600080fd5b5060705461039f906001600160a01b031681565b348015610a7657600080fd5b506103fc612834565b348015610a8b57600080fd5b506103fc610a9a36600461516d565b6128be565b348015610aab57600080fd5b506072546001600160a01b03161515610418565b348015610acb57600080fd5b50606b5461039f906001600160a01b031681565b6103fc610aed366004615128565b612a7e565b348015610afe57600080fd5b5061039f610b0d366004615154565b612a95565b348015610b1e57600080fd5b506104e1612aaa565b348015610b3357600080fd5b50610418610b4236600461516d565b612ac0565b348015610b5357600080fd5b506078546104e1565b348015610b6857600080fd5b50606a5461039f906001600160a01b031681565b348015610b8857600080fd5b50610bd9610b9736600461516d565b607960205260009081526040902080546001909101546001600160401b0380821691600160401b8104821691600160801b82041690600160c01b900460ff1685565b604080519586526001600160401b0394851660208701529284169285019290925290911660608301521515608082015260a0016103b3565b348015610c1d57600080fd5b506103fc610c2c366004615154565b612b03565b348015610c3d57600080fd5b50606c5461039f906001600160a01b031681565b348015610c5d57600080fd5b50610473610c6c36600461516d565b612bec565b348015610c7d57600080fd5b5060715461039f906001600160a01b031681565b348015610c9d57600080fd5b506104e1610cac366004615154565b612c07565b348015610cbd57600080fd5b50610473610ccc3660046151c5565b612c3e565b348015610cdd57600080fd5b50610418610cec36600461516d565b60746020526000908152604090205460ff1681565b348015610d0d57600080fd5b5060695461039f906001600160a01b031681565b60335460ff1615610d4d5760405162461bcd60e51b8152600401610d4490615428565b60405180910390fd5b606e546001600160a01b03163314610d965760405162461bcd60e51b815260206004820152600c60248201526b2ba927a723afa9a2a72222a960a11b6044820152606401610d44565b610da08282612cfa565b6001600160401b03168314610de55760405162461bcd60e51b815260206004820152600b60248201526a1393d517d25397d0d2105360aa1b6044820152606401610d44565b610def8282612dc8565b505050565b607e5460ff1615610e175760405162461bcd60e51b8152600401610d4490615452565b610e1f612e7e565b610e5f5760405162461bcd60e51b815260206004820152601160248201527056414c494441544f525f4e4f545f41464b60781b6044820152606401610d44565b607e805460ff19166001179055565b3360009081526074602052604090205460ff1680610e8e5750607e5460ff165b610eaa5760405162461bcd60e51b8152600401610d449061547e565b60335460ff1615610ecd5760405162461bcd60e51b8152600401610d4490615428565b610ed633612ac0565b610ef25760405162461bcd60e51b8152600401610d44906154a5565b610efa612aaa565b6001600160401b0316826001600160401b031610158015610f345750610f1e612538565b6001600160401b0316826001600160401b031611155b610f785760405162461bcd60e51b81526020600482015260156024820152744e4f44455f4e554d5f4f55545f4f465f52414e474560581b6044820152606401610d44565b6000610f8383612f88565b905081816005015414610fc55760405162461bcd60e51b815260206004820152600a6024820152694e4f44455f52454f524760b01b6044820152606401610d44565b60038101546001600160401b0316610fdc33611139565b6001600160401b0316146110245760405162461bcd60e51b815260206004820152600f60248201526e2727aa2fa9aa20a5a2a22fa82922ab60891b6044820152606401610d44565b610def3384612fa2565b3360009081526074602052604090205460ff168061104e5750607e5460ff165b61106a5760405162461bcd60e51b8152600401610d449061547e565b61107333612ff3565b600061107d6111e4565b90508082101561108b578091505b610def3383613063565b61109d612aaa565b6001600160401b03168110156110e75760405162461bcd60e51b815260206004820152600f60248201526e1053149150511657d11150d2511151608a1b6044820152606401610d44565b6110ef612538565b6001600160401b03168111156111365760405162461bcd60e51b815260206004820152600c60248201526b1113d154d39517d1561254d560a21b6044820152606401610d44565b50565b6001600160a01b0316600090815260796020526040902060010154600160401b90046001600160401b031690565b3360009081526074602052604090205460ff16806111875750607e5460ff165b6111a35760405162461bcd60e51b8152600401610d449061547e565b60335460ff16156111c65760405162461bcd60e51b8152600401610d4490615428565b6111368134613116565b6111d934613188565b610def8383836112d7565b6000806111ef612aaa565b905061120c43826111fe612538565b6001600160401b03166132aa565b91505090565b6000306001600160a01b037f000000000000000000000000000000000000000000000000000000000000000016146112b25760405162461bcd60e51b815260206004820152603b60248201527f555550534e6f745570677261646561626c653a206d757374206e6f742062652060448201527f63616c6c6564207468726f7567682064656c656761746563616c6c00000000006064820152608401610d44565b507f2b1dbce74324248c222f0ec2d5ed7bd323cfc425b336f0253c5ccfda7265546d90565b3360009081526074602052604090205460ff16806112f75750607e5460ff165b6113135760405162461bcd60e51b8152600401610d449061547e565b60335460ff16156113365760405162461bcd60e51b8152600401610d4490615428565b61133f33612ac0565b61135b5760405162461bcd60e51b8152600401610d44906154a5565b600061136633611139565b9050600061137382612725565b610140015161138b906001600160401b0316436154df565b90506073548110156113cc5760405162461bcd60e51b815260206004820152600a60248201526954494d455f44454c544160b01b6044820152606401610d44565b60026113e06101408701610120880161551b565b60038111156113f1576113f16154f6565b148061141f57508261141361140e36889003880160a08901615637565b613512565b6001600160401b031610155b6114575760405162461bcd60e51b81526020600482015260096024820152681513d3d7d4d350531360ba1b6044820152606401610d44565b600061146b610160870161014088016151c5565b6001600160401b0316116114b35760405162461bcd60e51b815260206004820152600f60248201526e22a6a82a2cafa0a9a9a2a92a24a7a760891b6044820152606401610d44565b60016114c560a087016080880161551b565b60038111156114d6576114d66154f6565b146115155760405162461bcd60e51b815260206004820152600f60248201526e4241445f505245565f53544154555360881b6044820152606401610d44565b5061152284828486613527565b506115343361152f612538565b612fa2565b50505050565b600080611546607a5490565b90506000805b828110156115865761156185610a2583612a95565b15611574578161157081615653565b9250505b8061157e81615653565b91505061154c565b509392505050565b3360009081526074602052604090205460ff16806115ae5750607e5460ff165b6115ca5760405162461bcd60e51b8152600401610d449061547e565b60335460ff16156115ed5760405162461bcd60e51b8152600401610d4490615428565b6115f56119b3565b60006115ff612aaa565b9050600061160c82612f88565b6040805161018081018252825481526001830154602082015260028301549181019190915260038201546001600160401b038082166060840152600160401b80830482166080850152600160801b808404831660a0860152600160c01b93849004831660c0860152600486015480841660e0870152918204831661010086015281048216610120850152919091041661014082015260058201546101608201529091506116b890613b12565b60755460038201546001600160401b039081169116146116da576116da61566e565b60038101546000906116f4906001600160401b0316612f88565b6040805161018081018252825481526001830154602082015260028301549181019190915260038201546001600160401b038082166060840152600160401b80830482166080850152600160801b808404831660a0860152600160c01b93849004831660c0860152600486015480841660e0870152918204831661010086015281048216610120850152919091041661014082015260058201546101608201529091506117a090613b61565b6117aa6000612b03565b60006117b58461153a565b600384015490915060009082906117d4906001600160401b0316611da3565b6117de91906154df565b6003850154909150600160c01b90046001600160401b031682106118315760405162461bcd60e51b815260206004820152600a6024820152694e4f5f5354414b45525360b01b6044820152606401610d44565b6003840154611851908290600160c01b90046001600160401b0316615684565b60048401546001600160401b03161461189d5760405162461bcd60e51b815260206004820152600e60248201526d1393d517d0531317d4d51052d15160921b6044820152606401610d44565b6118a8858888613bb1565b50505050505050565b3360009081526074602052604081205460ff16806118d15750607e5460ff165b6118ed5760405162461bcd60e51b8152600401610d449061547e565b60006118f833613d00565b604051909150600090339083908381818185875af1925050503d806000811461193d576040519150601f19603f3d011682016040523d82523d6000602084013e611942565b606091505b50509050806119855760405162461bcd60e51b815260206004820152600f60248201526e1514905394d1915497d19052531151608a1b6044820152606401610d44565b50905090565b6001600160a01b0316600090815260796020526040902060010154600160c01b900460ff1690565b60006119bd612aaa565b6001600160401b031690506119da6075546001600160401b031690565b6001600160401b031681118015611a0157506119f4612538565b6001600160401b03168111155b6111365760405162461bcd60e51b815260206004820152600d60248201526c1393d7d553949154d3d3159151609a1b6044820152606401610d44565b6001600160a01b0316600090815260796020526040902060010154600160801b90046001600160401b031690565b3360009081526074602052604090205460ff1680611a8b5750607e5460ff165b611aa75760405162461bcd60e51b8152600401610d449061547e565b60335460ff1615611aca5760405162461bcd60e51b8152600401610d4490615428565b611ad26119b3565b6000611ae66075546001600160401b031690565b90506000611af2612aaa565b90506000611aff82612f88565b60038101549091506001600160401b0384811691161415611d6157611b2384612ac0565b611b3f5760405162461bcd60e51b8152600401610d44906154a5565b611b59611b4b85611139565b6001600160401b0316611095565b611b6382856127dd565b15611ba35760405162461bcd60e51b815260206004820152601060248201526f14d51052d15117d3d397d5105491d15560821b6044820152606401610d44565b6040805161018081018252825481526001830154602082015260028301549181019190915260038201546001600160401b038082166060840152600160401b80830482166080850152600160801b808404831660a0860152600160c01b93849004831660c0860152600486015480841660e087015291820483166101008601528104821661012085015291909104166101408201526005820154610160820152611c4c90613b12565b611cfe611c5884612f88565b6040805161018081018252825481526001830154602082015260028301549181019190915260038201546001600160401b038082166060840152600160401b80830482166080850152600160801b808404831660a0860152600160c01b93849004831660c0860152600486015480841660e08701529182048316610100860152810482166101208501529190910416610140820152600590910154610160820152613b61565b611d086000612b03565b611d118261153a565b6003820154600160c01b90046001600160401b031614611d615760405162461bcd60e51b815260206004820152600b60248201526a4841535f5354414b45525360a81b6044820152606401610d44565b611d69613d81565b6040516001600160401b038316907feaffa3d968707ec919a2fc9f31d5ab2b86c905881ff561725d5a82fc95ad464090600090a250505050565b600080611daf607a5490565b90506000805b82811015611586576000611dc882613dc8565b80549091506001600160401b03878116600160a01b9092041614801590611e0057508054611e009087906001600160a01b03166127dd565b15611e135782611e0f81615653565b9350505b5080611e1e81615653565b915050611db5565b60006078826001600160401b031681548110611e4457611e4461569c565b6000918252602090912001546001600160a01b031692915050565b3360009081526074602052604090205460ff1680611e7f5750607e5460ff165b611e9b5760405162461bcd60e51b8152600401610d449061547e565b60335460ff1615611ebe5760405162461bcd60e51b8152600401610d4490615428565b611ece60408801602089016151c5565b6001600160401b0316611ee460208901896151c5565b6001600160401b031610611f285760405162461bcd60e51b815260206004820152600b60248201526a2ba927a723afa7a92222a960a91b6044820152606401610d44565b611f30612538565b6001600160401b0316611f496040890160208a016151c5565b6001600160401b03161115611f8f5760405162461bcd60e51b815260206004820152600c60248201526b1393d517d41493d413d4d15160a21b6044820152606401610d44565b611f9c60208801886151c5565b6001600160401b0316611fb76075546001600160401b031690565b6001600160401b0316106120015760405162461bcd60e51b81526020600482015260116024820152701053149150511657d0d3d3919254935151607a1b6044820152606401610d44565b600061202188825b60200201602081019061201c91906151c5565b612f88565b90506000612030896001612009565b600380820154908401549192506001600160401b039182169116146120835760405162461bcd60e51b81526020600482015260096024820152682224a3232fa82922ab60b91b6044820152606401610d44565b6120a28a60005b60200201602081019061209d919061516d565b612ff3565b6120ad8a600161208a565b6120d46120bd60208b018b6151c5565b8b60005b602002016020810190610a25919061516d565b6121155760405162461bcd60e51b815260206004820152601260248201527114d51052d1548c57d393d517d4d51052d15160721b6044820152606401610d44565b61213061212860408b0160208c016151c5565b8b60016120c1565b6121715760405162461bcd60e51b815260206004820152601260248201527114d51052d1548c97d393d517d4d51052d15160721b6044820152606401610d44565b6040805180820182526121f2916121e291908b90600290839083908082843760009201829052506040805180820190915292508c9150600290835b828210156121d8576121c960808302850136819003810190615637565b815260200190600101906121ac565b5050505089613dee565b85358560005b6020020135613e98565b8260010154146122315760405162461bcd60e51b815260206004820152600a6024820152694348414c5f484153483160b01b6044820152606401610d44565b6122428560208601358560016121e8565b8160010154146122815760405162461bcd60e51b815260206004820152600a60248201526921a420a62fa420a9a41960b11b6044820152606401610d44565b60655460038301546000916001600160401b03600160401b918290048116926122af928935929104166154df565b60038501546122c6906001600160401b0316612f88565b600401546122e49190600160401b90046001600160401b0316615684565b6122ee9190615684565b905060208501358110156123295761232161230c60208d018d61516d565b61231c60408e0160208f0161516d565b612dc8565b505050612487565b60006123698c8b8b8b89600c6123408d358a6154df565b61234a91906156b2565b600c61235a60208f01358b6154df565b61236491906156b2565b613ed6565b90506123ec61237b60208e018e61516d565b8d6001602002016020810190612391919061516d565b6001600160a01b03918216600090815260796020526040808220600190810180546001600160401b038916600160801b0267ffffffffffffffff60801b19918216811790925594909516835291200180549091169091179055565b6001600160401b0381167f6db7dc2f507647d135035469b27aa79cea90582779d084a7821d6cd092cbd87361242460208f018f61516d565b8e600160200201602081019061243a919061516d565b8e600060200201602081019061245091906151c5565b604080516001600160a01b0394851681529390921660208401526001600160401b03169082015260600160405180910390a2505050505b5050505050505050565b3360009081526074602052604090205460ff16806124b15750607e5460ff165b6124cd5760405162461bcd60e51b8152600401610d449061547e565b6075546001600160401b03166124e282611139565b6001600160401b031611156125265760405162461bcd60e51b815260206004820152600a6024820152691513d3d7d49150d1539560b21b6044820152606401610d44565b61252f81612ff3565b61113681613f95565b607554600160801b90046001600160401b031690565b3360009081526074602052604090205460ff168061256e5750607e5460ff165b61258a5760405162461bcd60e51b8152600401610d449061547e565b60335460ff16156125ad5760405162461bcd60e51b8152600401610d4490615428565b607a5482106125ef5760405162461bcd60e51b815260206004820152600e60248201526d4e4f5f535543485f5a4f4d42494560901b6044820152606401610d44565b60006125fa83612a95565b9050600061260784612c07565b905060008061261e6075546001600160401b031690565b6001600160401b031690505b80836001600160401b03161015801561264257508482105b1561268157600061265284612f88565b905061265e8486614045565b60038101546001600160401b031693508261267881615653565b9350505061262a565b80836001600160401b031610156126a05761269b8661418f565b6126aa565b6126aa8684614255565b505050505050565b60006126bc61429e565b905090565b6000805b607a5481101561271c57607a81815481106126e2576126e261569c565b6000918252602090912001546001600160a01b038481169116141561270a5750600192915050565b8061271481615653565b9150506126c5565b50600092915050565b61272d614f9b565b61273682612f88565b6040805161018081018252825481526001830154602082015260028301549181019190915260038201546001600160401b038082166060840152600160401b80830482166080850152600160801b808404831660a0860152600160c01b93849004831660c0860152600486015480841660e0870152918204831661010086015281048216610120850152919091041661014082015260059091015461016082015292915050565b6001600160401b03821660009081526077602090815260408083206001600160a01b038516845290915290205460ff165b92915050565b600061282a8484846001600160401b03166132aa565b90505b9392505050565b607e5460ff16156128575760405162461bcd60e51b8152600401610d4490615452565b467f00000000000000000000000000000000000000000000000000000000000000001415610e5f5760405162461bcd60e51b815260206004820152601460248201527310d210525397d25117d393d517d0d2105391d15160621b6044820152606401610d44565b306001600160a01b037f000000000000000000000000000000000000000000000000000000000000000016141561294c5760405162461bcd60e51b815260206004820152602c60248201527f46756e6374696f6e206d7573742062652063616c6c6564207468726f7567682060448201526b19195b1959d85d1958d85b1b60a21b6064820152608401610d44565b7f00000000000000000000000000000000000000000000000000000000000000006001600160a01b031661297e6142d1565b6001600160a01b0316146129e95760405162461bcd60e51b815260206004820152602c60248201527f46756e6374696f6e206d7573742062652063616c6c6564207468726f7567682060448201526b6163746976652070726f787960a01b6064820152608401610d44565b6001600160a01b03811615612a335760405162461bcd60e51b815260206004820152601060248201526f1393d7d513d2d15397d0531313d5d15160821b6044820152606401610d44565b6072546001600160a01b0316156111365760405162461bcd60e51b815260206004820152600f60248201526e046414345545f4e4f545f455243323608c1b6044820152606401610d44565b612a8734613188565b612a918282610e6e565b5050565b6000607a8281548110611e4457611e4461569c565b607554600160401b90046001600160401b031690565b6001600160a01b038116600090815260796020526040812060010154600160c01b900460ff16801561280e575060755461280e906001600160401b0316836127dd565b3360009081526074602052604090205460ff1680612b235750607e5460ff165b612b3f5760405162461bcd60e51b8152600401610d449061547e565b60335460ff1615612b625760405162461bcd60e51b8152600401610d4490615428565b6000612b6d607a5490565b90506000612b836075546001600160401b031690565b6001600160401b03169050825b82811015611534575b81612ba382612c07565b6001600160401b03161015612bda57612bbb8161418f565b82612bc5816156d1565b935050828110612bd55750505050565b612b99565b80612be481615653565b915050612b90565b6001600160a01b031660009081526079602052604090205490565b6000607a8281548110612c1c57612c1c61569c565b600091825260209091200154600160a01b90046001600160401b031692915050565b60007f000000000000000000000000000000000000000000000000000000000000000015612c9c576001600160401b0382166000908152607f60205260409020548061280e5760405162461bcd60e51b8152600401610d44906156e8565b6000612ca783612f88565b6003810154909150600160401b90046001600160401b0316612cdb5760405162461bcd60e51b8152600401610d44906156e8565b60040154600160c01b90046001600160401b031692915050565b919050565b6001600160a01b03828116600090815260796020526040808220928416825281206001830154919291600160801b90046001600160401b031680612d6a5760405162461bcd60e51b81526020600482015260076024820152661393d7d0d2105360ca1b6044820152606401610d44565b60018201546001600160401b03828116600160801b9092041614612dbf5760405162461bcd60e51b815260206004820152600c60248201526b1112519197d25397d0d2105360a21b6044820152606401610d44565b95945050505050565b6000612dd382612bec565b90506000612de084612bec565b905080821115612e0157612df48382613063565b612dfe90836154df565b91505b6000612e0e60028461571f565b9050612e1a85826142f9565b612e2481846154df565b9250612e58856001600160a01b03166000908152607960205260409020600101805467ffffffffffffffff60801b19169055565b607154612e6e906001600160a01b03168461435e565b612e77846143fa565b5050505050565b600080612e8c61201c612538565b6040805161018081018252825481526001830154602082015260028301549181019190915260038201546001600160401b038082166060840152600160401b80830482166080850152600160801b808404831660a0860152600160c01b93849004831660c0860152600486015480841660e0870152918204831661010086015281048216610120850152919091041661014082018190526005909201546101608201529150612f3d57600091505090565b606554610140820151439161b2fa91612f5f916001600160401b031690615733565b6001600160401b0316612f729190615684565b1015612f8057600191505090565b600091505090565b6001600160401b0316600090815260766020526040902090565b6001600160a01b0382166000908152607960205260409020612fc482846144a0565b60010180546001600160401b03909216600160401b0267ffffffffffffffff60401b1990921691909117905550565b612ffc8161198b565b6130185760405162461bcd60e51b8152600401610d44906154a5565b600061302382611a3d565b6001600160401b0316146111365760405162461bcd60e51b8152602060048201526007602482015266125397d0d2105360ca1b6044820152606401610d44565b6001600160a01b03821660009081526079602052604081208054808411156130c05760405162461bcd60e51b815260206004820152601060248201526f544f4f5f4c4954544c455f5354414b4560801b6044820152606401610d44565b60006130cc85836154df565b85845590506130db868261435e565b60408051838152602081018790526001600160a01b03881691600080516020615c15833981519152910160405180910390a295945050505050565b3360009081526074602052604090205460ff16806131365750607e5460ff165b6131525760405162461bcd60e51b8152600401610d449061547e565b60335460ff16156131755760405162461bcd60e51b8152600401610d4490615428565b61317e82612ff3565b612a9182826142f9565b3360009081526074602052604090205460ff16806131a85750607e5460ff165b6131c45760405162461bcd60e51b8152600401610d449061547e565b60335460ff16156131e75760405162461bcd60e51b8152600401610d4490615428565b6131f03361198b565b1561320d5760405162461bcd60e51b8152600401610d449061575e565b613216336126c1565b156132565760405162461bcd60e51b815260206004820152601060248201526f5354414b45525f49535f5a4f4d42494560801b6044820152606401610d44565b61325e6111e4565b8110156132a05760405162461bcd60e51b815260206004820152601060248201526f4e4f545f454e4f5547485f5354414b4560801b6044820152606401610d44565b6111363382614666565b6000816132b8600185615786565b6001600160401b031614156132d0575060675461282d565b60006132db84612f88565b60030154600160401b90046001600160401b031690508085101561330357505060675461282d565b6000604051806101400160405280600162ffffff1681526020016201e05b62ffffff1681526020016201f7d162ffffff1681526020016201389162ffffff168152602001620329e162ffffff1681526020016201be4362ffffff1681526020016204cb8c62ffffff1681526020016201fbc462ffffff16815260200162036d3262ffffff1681526020016202797362ffffff1681525090506000604051806101400160405280600162ffffff1681526020016201c03062ffffff1681526020016201b69962ffffff16815260200161fde262ffffff168152602001620265c662ffffff16815260200162013b8e62ffffff168152602001620329e162ffffff1681526020016201389162ffffff1681526020016201f7d162ffffff1681526020016201537562ffffff1681525090506000838861344091906154df565b6065549091506000906001600160401b031661345d83600a6156b2565b613467919061571f565b90506000613476600a8361571f565b613481906002615892565b9050600085613491600a8561589e565b600a81106134a1576134a161569c565b60200201516134b59062ffffff16836156b2565b90506000856134c5600a8661589e565b600a81106134d5576134d561569c565b60200201516134e99062ffffff168361571f565b9050806134f4575060015b8060675461350291906156b2565b9c9b505050505050505050505050565b6020810151600090815b602002015192915050565b6000600161353d6101408701610120880161551b565b600381111561354e5761354e6154f6565b148061357c575060026135696101408701610120880161551b565b600381111561357a5761357a6154f6565b145b6135bb5760405162461bcd60e51b815260206004820152601060248201526f4241445f41465445525f53544154555360801b6044820152606401610d44565b6135c3614fff565b6135cc85612725565b6060820152606a54604080516221048360e21b815290516001600160a01b03909216916284120c91600480820192602092909190829003018186803b15801561361457600080fd5b505afa158015613628573d6000803e3d6000fd5b505050506040513d601f19601f8201168201806040525081019061364c91906158b2565b815260608101515161365e87866147c1565b1461369d5760405162461bcd60e51b815260206004820152600f60248201526e0a0a48aacbea6a882a88abe9082a69608b1b6044820152606401610d44565b60006136b461140e36899003890160a08a01615637565b905060006136ca61140e368a90038a018a615637565b9050806001600160401b0316826001600160401b031610156137205760405162461bcd60e51b815260206004820152600f60248201526e494e424f585f4241434b574152445360881b6044820152606401610d44565b806001600160401b0316826001600160401b031614156137c65761375161374c368a90038a018a615637565b61481b565b6001600160401b031661376f61374c368b90038b0160a08c01615637565b6001600160401b031610156137c65760405162461bcd60e51b815260206004820152601a60248201527f494e424f585f504f535f494e5f4d53475f4241434b57415244530000000000006044820152606401610d44565b60026137da6101408a016101208b0161551b565b60038111156137eb576137eb6154f6565b14806138145750600061380961374c368b90038b0160a08c01615637565b6001600160401b0316115b156138275781613823816158cb565b9250505b82516001600160401b03831611156138725760405162461bcd60e51b815260206004820152600e60248201526d12539093d617d41054d517d1539160921b6044820152606401610d44565b6001600160401b0382161561391a57606a546001600160a01b03166316bf557961389d600185615786565b6040516001600160e01b031960e084901b1681526001600160401b03909116600482015260240160206040518083038186803b1580156138dc57600080fd5b505afa1580156138f0573d6000803e3d6000fd5b505050506040513d601f19601f8201168201806040525081019061391491906158b2565b60e08401525b50613934905061392f36889003880188615931565b61482a565b604082015260655461394f906001600160401b031643615733565b6001600160401b0390811660c0830152606082015161012001511615801560a08301526139965761398881606001516101200151612f88565b6005015460808201526139a6565b6060810151610160015160808201525b6139c58160a00151826080015183604001518460e001516068546148c9565b9150828214806139d3575082155b613a165760405162461bcd60e51b81526020600482015260146024820152730aa9c8ab0a08a86a88a88be9c9e888abe9082a6960631b6044820152606401610d44565b613a5e613a2a8760a00183600001516147c1565b613a3b836040015143606854613e98565b613a52613a4d368b90038b018b615931565b614936565b888560c0015187614960565b60208201526000613a6d612538565b613a78906001615733565b90506000613a8587612f88565b9050613a9181836149b4565b613a9e8360200151614a25565b50508181606001516101600151613ab3612538565b6001600160401b03167f4f4caa9e67fb994e349dd35d1ad0ce23053d4323f83ce11dc817b5435031d09684604001518a8660e001516068548860000151604051613b01959493929190615a2c565b60405180910390a450949350505050565b80608001516001600160401b03164310156111365760405162461bcd60e51b815260206004820152600f60248201526e4245464f52455f444541444c494e4560881b6044820152606401610d44565b8060a001516001600160401b03164310156111365760405162461bcd60e51b815260206004820152601060248201526f10d212531117d513d3d7d49150d1539560821b6044820152606401610d44565b6000613bbc84612f88565b9050613bc88383614c13565b816002015414613c095760405162461bcd60e51b815260206004820152600c60248201526b434f4e4649524d5f4441544160a01b6044820152606401610d44565b606b54604051630502677360e51b815260048101849052602481018590526001600160a01b039091169063a04cee6090604401600060405180830381600087803b158015613c5657600080fd5b505af1158015613c6a573d6000803e3d6000fd5b50506075805467ffffffffffffffff19166001600160401b03881617905550613c969050846001615733565b6075805467ffffffffffffffff60401b1916600160401b6001600160401b03938416021790556040805185815260208101859052918616917f22ef0479a7ff660660d1c2fe35f1b632cf31675c2d9378db8cec95b00d8ffa3c91015b60405180910390a250505050565b6001600160a01b0381166000908152607b60205260408120805490829055607c80548291908490613d329084906154df565b909155505060408051828152600060208201526001600160a01b038516917fa740af14c56e4e04a617b1de1eb20de73270decbaaead14f142aabf3038e5ae2910160405180910390a292915050565b60758054600160401b90046001600160401b0316906008613da1836158cb565b91906101000a8154816001600160401b0302191690836001600160401b0316021790555050565b6000607a8281548110613ddd57613ddd61569c565b906000526020600020019050919050565b60408051600280825260608201835260009283929190602083019080368337019050508551909150613e3090613e2b8660005b6020020151614c2f565b614ca3565b81600081518110613e4357613e4361569c565b6020908102919091010152613e648560016020020151613e2b866001613e21565b81600181518110613e7757613e7761569c565b602002602001018181525050612dbf6000846001600160401b031683614dc7565b6040805160208101859052908101839052606081018290526000906080015b6040516020818303038152906040528051906020012090509392505050565b606e546000906001600160a01b03166314eab5e78535898989613efc60208f018f61516d565b8e6001602002016020810190613f12919061516d565b8a8a6040518963ffffffff1660e01b8152600401613f37989796959493929190615a8e565b602060405180830381600087803b158015613f5157600080fd5b505af1158015613f65573d6000803e3d6000fd5b505050506040513d601f19601f82011682018060405250810190613f899190615b3e565b98975050505050505050565b6001600160a01b038116600090815260796020526040812090613fc06075546001600160401b031690565b9050613fcc81846127dd565b156140015760018201546001600160401b03828116600160401b9092041614613ff757613ff761566e565b6140018184614045565b815461400d848261435e565b61401684614dde565b60408051828152600060208201526001600160a01b03861691600080516020615c158339815191529101613cf2565b6001600160401b03821660009081526077602090815260408083206001600160a01b038516845290915290205460ff166140915760405162461bcd60e51b8152600401610d44906154a5565b6001600160401b03821660009081526077602090815260408083206001600160a01b03851684529091528120805460ff191690556140ce83612f88565b600381018054919250600160c01b9091046001600160401b03169060186140f483615b5b565b91906101000a8154816001600160401b0302191690836001600160401b031602179055505060006001600160401b0316836001600160401b03161115610def57600381015461414b906001600160401b0316612f88565b60040180546001600160401b031690600061416583615b5b565b91906101000a8154816001600160401b0302191690836001600160401b0316021790555050505050565b607a805461419f906001906154df565b815481106141af576141af61569c565b90600052602060002001607a82815481106141cc576141cc61569c565b600091825260209091208254910180546001600160a01b039092166001600160a01b031983168117825592546001600160e01b0319909216909217600160a01b918290046001600160401b0316909102179055607a80548061423057614230615b7e565b600082815260209020810160001990810180546001600160e01b031916905501905550565b80607a83815481106142695761426961569c565b9060005260206000200160000160146101000a8154816001600160401b0302191690836001600160401b031602179055505050565b60007fb53127684a568b3173ae13b9f8a6016e243e63b6e8ee1178d6a717850b5d61035b546001600160a01b0316919050565b60007f2b1dbce74324248c222f0ec2d5ed7bd323cfc425b336f0253c5ccfda7265546d6142c2565b6001600160a01b03821660009081526079602052604081208054909161431f8483615684565b80845560408051848152602081018390529192506001600160a01b03871691600080516020615c15833981519152910160405180910390a25050505050565b6001600160a01b0382166000908152607b6020526040812054906143828383615684565b6001600160a01b0385166000908152607b60205260408120829055607c805492935085929091906143b4908490615684565b909155505060408051838152602081018390526001600160a01b038616917fa740af14c56e4e04a617b1de1eb20de73270decbaaead14f142aabf3038e5ae29101613cf2565b6001600160a01b03808216600081815260796020908152604080832081518083019092529381526001808501546001600160401b03600160401b9091048116938301938452607a8054928301815590945290517ff0440771a29e57e18c66727944770b82cc77924aef333c927ce6bdd2cdb3ae0390910180549251909316600160a01b026001600160e01b031990921694169390931792909217909155612a9182614dde565b6001600160401b03821660009081526077602090815260408083206001600160a01b038516845290915290205460ff16156144ed5760405162461bcd60e51b8152600401610d449061575e565b6001600160401b03821660009081526077602090815260408083206001600160a01b03851684529091528120805460ff1916600117905561452d83612f88565b6003810154909150600160401b90046001600160401b03166145615760405162461bcd60e51b8152600401610d44906156e8565b6003810154600160c01b90046001600160401b0316614581816001615733565b6003830180546001600160c01b0316600160c01b6001600160401b03938416021790558416156115345760038201546000906145c5906001600160401b0316612f88565b6004810180549192506001600160401b039091169060006145e5836158cb565b91906101000a8154816001600160401b0302191690836001600160401b0316021790555050816001600160401b031660001415612e7757606554612e7790614636906001600160401b031643615733565b60038301805467ffffffffffffffff60801b1916600160801b6001600160401b0390931692909202919091179055565b6078805460018082019092557f8dc6fb69531d98d70dc0420e638d2dfd04e09e1ec783ede9aac77da9c5a0dac4810180546001600160a01b0319166001600160a01b0386169081179091556040805160a0810182528581526001600160401b038085166020808401918252607580548416858701908152600060608701818152608088018c81528a835260798652898320985189559551978c0180549351915196519888166001600160801b031990941693909317600160401b918816919091021768ffffffffffffffffff60801b1916600160801b9587169590950260ff60c01b191694909417600160c01b9615158702179055805484168352607782528583208784528252858320805460ff191690991790985587546001600160c01b031643909316909302919091179095558151948552840185905291929091600080516020615c15833981519152910160405180910390a2505050565b60006147da6147d536859003850185615637565b614c2f565b826147eb60a086016080870161551b565b6040516020016147fd93929190615b94565b60405160208183030381529060405280519060200120905092915050565b6020810151600090600161351c565b6000614834615050565b8251602001518190600381111561484d5761484d6154f6565b90816003811115614860576148606154f6565b905250602083810151810151908201906003811115614881576148816154f6565b90816003811115614894576148946154f6565b90525061489f61506e565b8351518152602080850151519082015260408401516148c19083908390613dee565b949350505050565b600080866148d85760006148db565b60015b6040516001600160f81b031960f883901b1660208201526021810188905260418101879052606181018690526081810185905290915060a1016040516020818303038152906040528051906020012091505095945050505050565b600061280e61494c836020015160000151614f84565b60208401515161495b90614f8f565b614c13565b614968614f9b565b614970614f9b565b96875250602086019490945260408501929092526001600160401b0390811660608501529081166080840181905260a0840152431661014083015261016082015290565b6004820154600160401b90046001600160401b03166149f55760048201805467ffffffffffffffff60401b1916600160401b436001600160401b0316021790555b600490910180546001600160401b03909216600160801b0267ffffffffffffffff60801b19909216919091179055565b60758054600160801b90046001600160401b0316906010614a45836158cb565b825461010092830a6001600160401b03818102199092169282160291909117909255607554600160801b908190048316600090815260766020908152604091829020875181559087015160018201559086015160028201556060860151600382018054608089015160a08a015160c08b01519489166001600160801b031993841617600160401b928a168302176001600160801b03908116918a1688026001600160c01b0390811692909217600160c01b968b1687021790945560e08b0151600487018054998d01516101208e01516101408f0151938d169b9096169a909a17998b16909302989098179093169188169095029091161793909416909302919091179055610160830151600590910155507f0000000000000000000000000000000000000000000000000000000000000000156111365760646001600160a01b031663a3b1b31d6040518163ffffffff1660e01b815260040160206040518083038186803b158015614bb657600080fd5b505afa158015614bca573d6000803e3d6000fd5b505050506040513d601f19601f82011682018060405250810190614bee91906158b2565b607554600160801b90046001600160401b03166000908152607f602052604090205550565b60408051602081018490529081018290526000906060016147fd565b8051805160209182015192820151805190830151604080516c23b637b130b61039ba30ba329d60991b81870152602d810194909452604d8401959095526001600160c01b031960c092831b8116606d850152911b1660758201528251808203605d018152607d909101909252815191012090565b60006001836003811115614cb957614cb96154f6565b1415614cff576040516b213637b1b59039ba30ba329d60a11b6020820152602c8101839052604c015b60405160208183030381529060405280519060200120905061280e565b6002836003811115614d1357614d136154f6565b1415614d495760405174213637b1b59039ba30ba32961032b93937b932b21d60591b602082015260358101839052605501614ce2565b6003836003811115614d5d57614d5d6154f6565b1415614d8c5760405174213637b1b59039ba30ba3296103a37b7903330b91d60591b6020820152603501614ce2565b60405162461bcd60e51b815260206004820152601060248201526f4241445f424c4f434b5f53544154555360801b6044820152606401610d44565b6000838383604051602001613eb793929190615bd2565b6001600160a01b03811660009081526079602052604090206001810154600160c01b900460ff16614e215760405162461bcd60e51b8152600401610d44906154a5565b600180820154607880546001600160401b03909216929091614e4391906154df565b81548110614e5357614e5361569c565b600091825260209091200154607880546001600160a01b03909216916001600160401b038416908110614e8857614e8861569c565b9060005260206000200160006101000a8154816001600160a01b0302191690836001600160a01b0316021790555080607960006078846001600160401b031681548110614ed757614ed761569c565b6000918252602080832091909101546001600160a01b031683528201929092526040019020600101805467ffffffffffffffff19166001600160401b03929092169190911790556078805480614f2f57614f2f615b7e565b60008281526020808220830160001990810180546001600160a01b03191690559092019092556001600160a01b03949094168152607990935250506040812090815560010180546001600160c81b0319169055565b80516000908161351c565b8051600090600161351c565b6040805161018081018252600080825260208201819052918101829052606081018290526080810182905260a0810182905260c0810182905260e0810182905261010081018290526101208101829052610140810182905261016081019190915290565b6040518061010001604052806000815260200161501a614f9b565b81526000602082015260400161502e614f9b565b8152600060208201819052604082018190526060820181905260809091015290565b60405180604001604052806002906020820280368337509192915050565b60405180604001604052806002905b61508561509b565b81526020019060019003908161507d5790505090565b60405180604001604052806150ae615050565b81526020016150bb615050565b905290565b80356001600160a01b0381168114612cf557600080fd5b6000806000606084860312156150ec57600080fd5b833592506150fc602085016150c0565b915061510a604085016150c0565b90509250925092565b6001600160401b038116811461113657600080fd5b6000806040838503121561513b57600080fd5b823561514681615113565b946020939093013593505050565b60006020828403121561516657600080fd5b5035919050565b60006020828403121561517f57600080fd5b61282d826150c0565b60008060008385036101a081121561519f57600080fd5b610160808212156151af57600080fd5b9496948701359550505061018085013592915050565b6000602082840312156151d757600080fd5b813561282d81615113565b600080604083850312156151f557600080fd5b50508035926020909101359150565b806040810183101561280e57600080fd5b600080600080600080600080610280898b03121561523257600080fd5b61523c8a8a615204565b975061524b8a60408b01615204565b965061525a8a60808b01615204565b95506101c089018a81111561526e57600080fd5b60c08a0195503561527e81615113565b93506101e089013592506152968a6102008b01615204565b91506152a68a6102408b01615204565b90509295985092959890939650565b60006101808201905082518252602083015160208301526040830151604083015260608301516152f060608401826001600160401b03169052565b50608083015161530b60808401826001600160401b03169052565b5060a083015161532660a08401826001600160401b03169052565b5060c083015161534160c08401826001600160401b03169052565b5060e083015161535c60e08401826001600160401b03169052565b50610100838101516001600160401b038116848301525050610120838101516001600160401b038116848301525050610140838101516001600160401b03811684830152505061016092830151919092015290565b600080604083850312156153c457600080fd5b82356153cf81615113565b91506153dd602084016150c0565b90509250929050565b6000806000606084860312156153fb57600080fd5b83359250602084013561540d81615113565b9150604084013561541d81615113565b809150509250925092565b60208082526010908201526f14185d5cd8589b194e881c185d5cd95960821b604082015260600190565b60208082526012908201527115d2125511531254d517d11254d05093115160721b604082015260600190565b6020808252600d908201526c2727aa2fab20a624a220aa27a960991b604082015260600190565b6020808252600a90820152691393d517d4d51052d15160b21b604082015260600190565b634e487b7160e01b600052601160045260246000fd5b6000828210156154f1576154f16154c9565b500390565b634e487b7160e01b600052602160045260246000fd5b803560048110612cf557600080fd5b60006020828403121561552d57600080fd5b61282d8261550c565b634e487b7160e01b600052604160045260246000fd5b604080519081016001600160401b038111828210171561556e5761556e615536565b60405290565b60006080828403121561558657600080fd5b61558e61554c565b905082601f83011261559f57600080fd5b6155a761554c565b8060408401858111156155b957600080fd5b845b818110156155d35780358452602093840193016155bb565b5081845285605f8601126155e657600080fd5b6155ee61554c565b9250829150608085018681111561560457600080fd5b8082101561562957813561561781615113565b84526020938401939190910190615604565b505060208301525092915050565b60006080828403121561564957600080fd5b61282d8383615574565b6000600019821415615667576156676154c9565b5060010190565b634e487b7160e01b600052600160045260246000fd5b60008219821115615697576156976154c9565b500190565b634e487b7160e01b600052603260045260246000fd5b60008160001904831182151516156156cc576156cc6154c9565b500290565b6000816156e0576156e06154c9565b506000190190565b6020808252600790820152664e4f5f4e4f444560c81b604082015260600190565b634e487b7160e01b600052601260045260246000fd5b60008261572e5761572e615709565b500490565b60006001600160401b03808316818516808303821115615755576157556154c9565b01949350505050565b6020808252600e908201526d1053149150511657d4d51052d15160921b604082015260600190565b60006001600160401b03838116908316818110156157a6576157a66154c9565b039392505050565b600181815b808511156157e95781600019048211156157cf576157cf6154c9565b808516156157dc57918102915b93841c93908002906157b3565b509250929050565b6000826158005750600161280e565b8161580d5750600061280e565b8160018114615823576002811461582d57615849565b600191505061280e565b60ff84111561583e5761583e6154c9565b50506001821b61280e565b5060208310610133831016604e8410600b841016171561586c575081810a61280e565b61587683836157ae565b806000190482111561588a5761588a6154c9565b029392505050565b600061282d83836157f1565b6000826158ad576158ad615709565b500690565b6000602082840312156158c457600080fd5b5051919050565b60006001600160401b03808316818114156158e8576158e86154c9565b6001019392505050565b600060a0828403121561590457600080fd5b61590c61554c565b90506159188383615574565b81526159266080830161550c565b602082015292915050565b6000610160828403121561594457600080fd5b604051606081018181106001600160401b038211171561596657615966615536565b60405261597384846158f2565b81526159828460a085016158f2565b602082015261014083013561599681615113565b60408201529392505050565b604081833760006040838101828152908301915b6002811015612e775782356159ca81615113565b6001600160401b03168252602092830192909101906001016159b6565b60048110615a0557634e487b7160e01b600052602160045260246000fd5b9052565b615a1382826159a2565b615a1f6080820161550c565b610def60808401826159e7565b8581526101e08101615a416020830187615a09565b615a5160c0830160a08801615a09565b610140860135615a6081615113565b6001600160401b03166101608301526101808201949094526101a08101929092526101c09091015292915050565b888152610200810160208083018a60005b6002811015615aca57615aba83615ab58461550c565b6159e7565b9183019190830190600101615a9f565b50505050606082018860005b6002811015615afc57615ae983836159a2565b6080928301929190910190600101615ad6565b5050506001600160401b03969096166101608201526001600160a01b03948516610180820152929093166101a08301526101c08201526101e001529392505050565b600060208284031215615b5057600080fd5b815161282d81615113565b60006001600160401b03821680615b7457615b746154c9565b6000190192915050565b634e487b7160e01b600052603160045260246000fd5b838152826020820152600060048310615bbd57634e487b7160e01b600052602160045260246000fd5b5060f89190911b604082015260410192915050565b83815260006020848184015260408301845182860160005b82811015615c0657815184529284019290840190600101615bea565b50919897505050505050505056feebd093d389ab57f3566918d2c379a2b4d9539e8eb95efad9d5e465457833fde6a26469706673582212205c1cb9e10f17533372545bbc4c8ef24a5a3e7d6b51032da8ee2dcbc8c124587564736f6c63430008090033",
  "linkReferences": {},
  "deployedLinkReferences": {}
}