{
  "_format": "hh-sol-artifact-1",
  "contractName": "UpgradeExecutor",
  "sourceName": "src/UpgradeExecutor.sol",
  "abi": [
    {
      "inputs": [],
      "stateMutability": "nonpayable",
      "type": "constructor"
    },
    {
      "anonymous": false,
      "inputs": [
        {
          "indexed": false,
          "internalType": "uint8",
          "name": "version",
          "type": "uint8"
        }
      ],
      "name": "Initialized",
      "type": "event"
    },
    {
      "anonymous": false,
      "inputs": [
        {
          "indexed": true,
          "internalType": "bytes32",
          "name": "role",
          "type": "bytes32"
        },
        {
          "indexed": true,
          "internalType": "bytes32",
          "name": "previousAdminRole",
          "type": "bytes32"
        },
        {
          "indexed": true,
          "internalType": "bytes32",
          "name": "newAdminRole",
          "type": "bytes32"
        }
      ],
      "name": "RoleAdminChanged",
      "type": "event"
    },
    {
      "anonymous": false,
      "inputs": [
        {
          "indexed": true,
          "internalType": "bytes32",
          "name": "role",
          "type": "bytes32"
        },
        {
          "indexed": true,
          "internalType": "address",
          "name": "account",
          "type": "address"
        },
        {
          "indexed": true,
          "internalType": "address",
          "name": "sender",
          "type": "address"
        }
      ],
      "name": "RoleGranted",
      "type": "event"
    },
    {
      "anonymous": false,
      "inputs": [
        {
          "indexed": true,
          "internalType": "bytes32",
          "name": "role",
          "type": "bytes32"
        },
        {
          "indexed": true,
          "internalType": "address",
          "name": "account",
          "type": "address"
        },
        {
          "indexed": true,
          "internalType": "address",
          "name": "sender",
          "type": "address"
        }
      ],
      "name": "RoleRevoked",
      "type": "event"
    },
    {
      "anonymous": false,
      "inputs": [
        {
          "indexed": true,
          "internalType": "address",
          "name": "upgrade",
          "type": "address"
        },
        {
          "indexed": false,
          "internalType": "uint256",
          "name": "value",
          "type": "uint256"
        },
        {
          "indexed": false,
          "internalType": "bytes",
          "name": "data",
          "type": "bytes"
        }
      ],
      "name": "UpgradeExecuted",
      "type": "event"
    },
    {
      "inputs": [],
      "name": "ADMIN_ROLE",
      "outputs": [
        {
          "internalType": "bytes32",
          "name": "",
          "type": "bytes32"
        }
      ],
      "stateMutability": "view",
      "type": "function"
    },
    {
      "inputs": [],
      "name": "DEFAULT_ADMIN_ROLE",
      "outputs": [
        {
          "internalType": "bytes32",
          "name": "",
          "type": "bytes32"
        }
      ],
      "stateMutability": "view",
      "type": "function"
    },
    {
      "inputs": [],
      "name": "EXECUTOR_ROLE",
      "outputs": [
        {
          "internalType": "bytes32",
          "name": "",
          "type": "bytes32"
        }
      ],
      "stateMutability": "view",
      "type": "function"
    },
    {
      "inputs": [
        {
          "internalType": "address",
          "name": "upgrade",
          "type": "address"
        },
        {
          "internalType": "bytes",
          "name": "upgradeCallData",
          "type": "bytes"
        }
      ],
      "name": "execute",
      "outputs": [],
      "stateMutability": "payable",
      "type": "function"
    },
    {
      "inputs": [
        {
          "internalType": "bytes32",
          "name": "role",
          "type": "bytes32"
        }
      ],
      "name": "getRoleAdmin",
      "outputs": [
        {
          "internalType": "bytes32",
          "name": "",
          "type": "bytes32"
        }
      ],
      "stateMutability": "view",
      "type": "function"
    },
    {
      "inputs": [
        {
          "internalType": "bytes32",
          "name": "role",
          "type": "bytes32"
        },
        {
          "internalType": "address",
          "name": "account",
          "type": "address"
        }
      ],
      "name": "grantRole",
      "outputs": [],
      "stateMutability": "nonpayable",
      "type": "function"
    },
    {
      "inputs": [
        {
          "internalType": "bytes32",
          "name": "role",
          "type": "bytes32"
        },
        {
          "internalType": "address",
          "name": "account",
          "type": "address"
        }
      ],
      "name": "hasRole",
      "outputs": [
        {
          "internalType": "bool",
          "name": "",
          "type": "bool"
        }
      ],
      "stateMutability": "view",
      "type": "function"
    },
    {
      "inputs": [
        {
          "internalType": "address",
          "name": "admin",
          "type": "address"
        },
        {
          "internalType": "address[]",
          "name": "executors",
          "type": "address[]"
        }
      ],
      "name": "initialize",
      "outputs": [],
      "stateMutability": "nonpayable",
      "type": "function"
    },
    {
      "inputs": [
        {
          "internalType": "bytes32",
          "name": "role",
          "type": "bytes32"
        },
        {
          "internalType": "address",
          "name": "account",
          "type": "address"
        }
      ],
      "name": "renounceRole",
      "outputs": [],
      "stateMutability": "nonpayable",
      "type": "function"
    },
    {
      "inputs": [
        {
          "internalType": "bytes32",
          "name": "role",
          "type": "bytes32"
        },
        {
          "internalType": "address",
          "name": "account",
          "type": "address"
        }
      ],
      "name": "revokeRole",
      "outputs": [],
      "stateMutability": "nonpayable",
      "type": "function"
    },
    {
      "inputs": [
        {
          "internalType": "bytes4",
          "name": "interfaceId",
          "type": "bytes4"
        }
      ],
      "name": "supportsInterface",
      "outputs": [
        {
          "internalType": "bool",
          "name": "",
          "type": "bool"
        }
      ],
      "stateMutability": "view",
      "type": "function"
    }
  ],
  "bytecode": "0x608060405234801561001057600080fd5b50600160975561001e610023565b6100e3565b600054610100900460ff161561008f5760405162461bcd60e51b815260206004820152602760248201527f496e697469616c697a61626c653a20636f6e747261637420697320696e697469604482015266616c697a696e6760c81b606482015260840160405180910390fd5b60005460ff90811610156100e1576000805460ff191660ff9081179091556040519081527f7f26b83ff96e1f2b6a682f133852f6798a09c465da95921460cefb38474024989060200160405180910390a15b565b611533806100f26000396000f3fe6080604052600436106100bc5760003560e01c806336568abe11610074578063946d92041161004e578063946d920414610244578063a217fddf14610264578063d547741f1461027957600080fd5b806336568abe1461019d57806375b238fc146101bd57806391d14854146101f157600080fd5b80631cff79cd116100a55780631cff79cd14610138578063248a9ca31461014d5780632f2ff15d1461017d57600080fd5b806301ffc9a7146100c157806307bd0265146100f6575b600080fd5b3480156100cd57600080fd5b506100e16100dc366004610fb7565b610299565b60405190151581526020015b60405180910390f35b34801561010257600080fd5b5061012a7fd8aa0f3194971a2a116679f7c2090f6939c8d4e01a2a8d7e41d55e5351469e6381565b6040519081526020016100ed565b61014b6101463660046110a0565b610332565b005b34801561015957600080fd5b5061012a610168366004611164565b60009081526065602052604090206001015490565b34801561018957600080fd5b5061014b61019836600461117d565b61046b565b3480156101a957600080fd5b5061014b6101b836600461117d565b610495565b3480156101c957600080fd5b5061012a7fa49807205ce4d355092ef5a8a18f56e8913cf4a201fbe287825b095693c2177581565b3480156101fd57600080fd5b506100e161020c36600461117d565b600091825260656020908152604080842073ffffffffffffffffffffffffffffffffffffffff93909316845291905290205460ff1690565b34801561025057600080fd5b5061014b61025f3660046111a9565b610548565b34801561027057600080fd5b5061012a600081565b34801561028557600080fd5b5061014b61029436600461117d565b610856565b60007fffffffff0000000000000000000000000000000000000000000000000000000082167f7965db0b00000000000000000000000000000000000000000000000000000000148061032c57507f01ffc9a7000000000000000000000000000000000000000000000000000000007fffffffff000000000000000000000000000000000000000000000000000000008316145b92915050565b7fd8aa0f3194971a2a116679f7c2090f6939c8d4e01a2a8d7e41d55e5351469e6361035c8161087b565b6002609754036103cd576040517f08c379a000000000000000000000000000000000000000000000000000000000815260206004820152601f60248201527f5265656e7472616e637947756172643a207265656e7472616e742063616c6c0060448201526064015b60405180910390fd5b6002609781905550610410826040518060600160405280603a81526020016114c4603a913973ffffffffffffffffffffffffffffffffffffffff86169190610888565b508273ffffffffffffffffffffffffffffffffffffffff167f49f6851d1cd01a518db5bdea5cffbbe90276baa2595f74250b7472b96806302e34846040516104599291906112d7565b60405180910390a25050600160975550565b6000828152606560205260409020600101546104868161087b565b61049083836109b2565b505050565b73ffffffffffffffffffffffffffffffffffffffff8116331461053a576040517f08c379a000000000000000000000000000000000000000000000000000000000815260206004820152602f60248201527f416363657373436f6e74726f6c3a2063616e206f6e6c792072656e6f756e636560448201527f20726f6c657320666f722073656c66000000000000000000000000000000000060648201526084016103c4565b6105448282610aa6565b5050565b600054610100900460ff16158080156105685750600054600160ff909116105b806105825750303b158015610582575060005460ff166001145b61060e576040517f08c379a000000000000000000000000000000000000000000000000000000000815260206004820152602e60248201527f496e697469616c697a61626c653a20636f6e747261637420697320616c72656160448201527f647920696e697469616c697a656400000000000000000000000000000000000060648201526084016103c4565b600080547fffffffffffffffffffffffffffffffffffffffffffffffffffffffffffffff00166001179055801561066c57600080547fffffffffffffffffffffffffffffffffffffffffffffffffffffffffffff00ff166101001790555b73ffffffffffffffffffffffffffffffffffffffff83166106e9576040517f08c379a000000000000000000000000000000000000000000000000000000000815260206004820152601b60248201527f557067726164654578656375746f723a207a65726f2061646d696e000000000060448201526064016103c4565b6106f1610b61565b61071b7fa49807205ce4d355092ef5a8a18f56e8913cf4a201fbe287825b095693c2177580610bfa565b6107657fd8aa0f3194971a2a116679f7c2090f6939c8d4e01a2a8d7e41d55e5351469e637fa49807205ce4d355092ef5a8a18f56e8913cf4a201fbe287825b095693c21775610bfa565b61078f7fa49807205ce4d355092ef5a8a18f56e8913cf4a201fbe287825b095693c2177584610c45565b60005b82518110156107ee576107de7fd8aa0f3194971a2a116679f7c2090f6939c8d4e01a2a8d7e41d55e5351469e638483815181106107d1576107d16112f8565b6020026020010151610c45565b6107e781611356565b9050610792565b50801561049057600080547fffffffffffffffffffffffffffffffffffffffffffffffffffffffffffff00ff169055604051600181527f7f26b83ff96e1f2b6a682f133852f6798a09c465da95921460cefb38474024989060200160405180910390a1505050565b6000828152606560205260409020600101546108718161087b565b6104908383610aa6565b6108858133610c4f565b50565b606073ffffffffffffffffffffffffffffffffffffffff84163b61092e576040517f08c379a000000000000000000000000000000000000000000000000000000000815260206004820152602660248201527f416464726573733a2064656c65676174652063616c6c20746f206e6f6e2d636f60448201527f6e7472616374000000000000000000000000000000000000000000000000000060648201526084016103c4565b6000808573ffffffffffffffffffffffffffffffffffffffff1685604051610956919061138e565b600060405180830381855af49150503d8060008114610991576040519150601f19603f3d011682016040523d82523d6000602084013e610996565b606091505b50915091506109a6828286610d21565b925050505b9392505050565b600082815260656020908152604080832073ffffffffffffffffffffffffffffffffffffffff8516845290915290205460ff1661054457600082815260656020908152604080832073ffffffffffffffffffffffffffffffffffffffff85168452909152902080547fffffffffffffffffffffffffffffffffffffffffffffffffffffffffffffff00166001179055610a483390565b73ffffffffffffffffffffffffffffffffffffffff168173ffffffffffffffffffffffffffffffffffffffff16837f2f8788117e7eff1d82e926ec794901d17c78024a50270940304540a733656f0d60405160405180910390a45050565b600082815260656020908152604080832073ffffffffffffffffffffffffffffffffffffffff8516845290915290205460ff161561054457600082815260656020908152604080832073ffffffffffffffffffffffffffffffffffffffff8516808552925280832080547fffffffffffffffffffffffffffffffffffffffffffffffffffffffffffffff0016905551339285917ff6391f5c32d9c69d2a47ea670b442974b53935d1edc7fd64eb21e047a839171b9190a45050565b600054610100900460ff16610bf8576040517f08c379a000000000000000000000000000000000000000000000000000000000815260206004820152602b60248201527f496e697469616c697a61626c653a20636f6e7472616374206973206e6f74206960448201527f6e697469616c697a696e6700000000000000000000000000000000000000000060648201526084016103c4565b565b600082815260656020526040808220600101805490849055905190918391839186917fbd79b86ffe0ab8e8776151514217cd7cacd52c909f66475c3af44e129f0b00ff9190a4505050565b61054482826109b2565b600082815260656020908152604080832073ffffffffffffffffffffffffffffffffffffffff8516845290915290205460ff1661054457610ca78173ffffffffffffffffffffffffffffffffffffffff166014610d74565b610cb2836020610d74565b604051602001610cc39291906113aa565b604080517fffffffffffffffffffffffffffffffffffffffffffffffffffffffffffffffe0818403018152908290527f08c379a00000000000000000000000000000000000000000000000000000000082526103c49160040161142b565b60608315610d305750816109ab565b825115610d405782518084602001fd5b816040517f08c379a00000000000000000000000000000000000000000000000000000000081526004016103c4919061142b565b60606000610d8383600261143e565b610d8e90600261147b565b67ffffffffffffffff811115610da657610da6611022565b6040519080825280601f01601f191660200182016040528015610dd0576020820181803683370190505b5090507f300000000000000000000000000000000000000000000000000000000000000081600081518110610e0757610e076112f8565b60200101907effffffffffffffffffffffffffffffffffffffffffffffffffffffffffffff1916908160001a9053507f780000000000000000000000000000000000000000000000000000000000000081600181518110610e6a57610e6a6112f8565b60200101907effffffffffffffffffffffffffffffffffffffffffffffffffffffffffffff1916908160001a9053506000610ea684600261143e565b610eb190600161147b565b90505b6001811115610f4e577f303132333435363738396162636465660000000000000000000000000000000085600f1660108110610ef257610ef26112f8565b1a60f81b828281518110610f0857610f086112f8565b60200101907effffffffffffffffffffffffffffffffffffffffffffffffffffffffffffff1916908160001a90535060049490941c93610f478161148e565b9050610eb4565b5083156109ab576040517f08c379a000000000000000000000000000000000000000000000000000000000815260206004820181905260248201527f537472696e67733a20686578206c656e67746820696e73756666696369656e7460448201526064016103c4565b600060208284031215610fc957600080fd5b81357fffffffff00000000000000000000000000000000000000000000000000000000811681146109ab57600080fd5b803573ffffffffffffffffffffffffffffffffffffffff8116811461101d57600080fd5b919050565b7f4e487b7100000000000000000000000000000000000000000000000000000000600052604160045260246000fd5b604051601f82017fffffffffffffffffffffffffffffffffffffffffffffffffffffffffffffffe016810167ffffffffffffffff8111828210171561109857611098611022565b604052919050565b600080604083850312156110b357600080fd5b6110bc83610ff9565b915060208084013567ffffffffffffffff808211156110da57600080fd5b818601915086601f8301126110ee57600080fd5b81358181111561110057611100611022565b611130847fffffffffffffffffffffffffffffffffffffffffffffffffffffffffffffffe0601f84011601611051565b9150808252878482850101111561114657600080fd5b80848401858401376000848284010152508093505050509250929050565b60006020828403121561117657600080fd5b5035919050565b6000806040838503121561119057600080fd5b823591506111a060208401610ff9565b90509250929050565b600080604083850312156111bc57600080fd5b6111c583610ff9565b915060208084013567ffffffffffffffff808211156111e357600080fd5b818601915086601f8301126111f757600080fd5b81358181111561120957611209611022565b8060051b915061121a848301611051565b818152918301840191848101908984111561123457600080fd5b938501935b838510156112595761124a85610ff9565b82529385019390850190611239565b8096505050505050509250929050565b60005b8381101561128457818101518382015260200161126c565b50506000910152565b600081518084526112a5816020860160208601611269565b601f017fffffffffffffffffffffffffffffffffffffffffffffffffffffffffffffffe0169290920160200192915050565b8281526040602082015260006112f0604083018461128d565b949350505050565b7f4e487b7100000000000000000000000000000000000000000000000000000000600052603260045260246000fd5b7f4e487b7100000000000000000000000000000000000000000000000000000000600052601160045260246000fd5b60007fffffffffffffffffffffffffffffffffffffffffffffffffffffffffffffffff820361138757611387611327565b5060010190565b600082516113a0818460208701611269565b9190910192915050565b7f416363657373436f6e74726f6c3a206163636f756e74200000000000000000008152600083516113e2816017850160208801611269565b7f206973206d697373696e6720726f6c6520000000000000000000000000000000601791840191820152835161141f816028840160208801611269565b01602801949350505050565b6020815260006109ab602083018461128d565b6000817fffffffffffffffffffffffffffffffffffffffffffffffffffffffffffffffff048311821515161561147657611476611327565b500290565b8082018082111561032c5761032c611327565b60008161149d5761149d611327565b507fffffffffffffffffffffffffffffffffffffffffffffffffffffffffffffffff019056fe557067726164654578656375746f723a20696e6e65722064656c65676174652063616c6c206661696c656420776974686f757420726561736f6ea2646970667358221220aece6ad9e08deac5c6f0f1318a91bf5587ea9a4d460a7dfbc5085f973ab29a9064736f6c63430008100033",
  "linkReferences": {},
  "deployedLinkReferences": {}
}