{
  "address": "0xB0Ef627059b78749B094873F80c158Aa91200158",
  "abi": [
    {
      "anonymous": false,
      "inputs": [
        {
          "indexed": true,
          "internalType": "address",
          "name": "outbox",
          "type": "address"
        },
        {
          "indexed": true,
          "internalType": "address",
          "name": "destAddr",
          "type": "address"
        },
        {
          "indexed": false,
          "internalType": "uint256",
          "name": "amount",
          "type": "uint256"
        },
        {
          "indexed": false,
          "internalType": "bytes",
          "name": "data",
          "type": "bytes"
        }
      ],
      "name": "BridgeCallTriggered",
      "type": "event"
    },
    {
      "anonymous": false,
      "inputs": [
        {
          "indexed": true,
          "internalType": "address",
          "name": "inbox",
          "type": "address"
        },
        {
          "indexed": false,
          "internalType": "bool",
          "name": "enabled",
          "type": "bool"
        }
      ],
      "name": "InboxToggle",
      "type": "event"
    },
    {
      "anonymous": false,
      "inputs": [
        {
          "indexed": true,
          "internalType": "uint256",
          "name": "messageIndex",
          "type": "uint256"
        },
        {
          "indexed": true,
          "internalType": "bytes32",
          "name": "beforeInboxAcc",
          "type": "bytes32"
        },
        {
          "indexed": false,
          "internalType": "address",
          "name": "inbox",
          "type": "address"
        },
        {
          "indexed": false,
          "internalType": "uint8",
          "name": "kind",
          "type": "uint8"
        },
        {
          "indexed": false,
          "internalType": "address",
          "name": "sender",
          "type": "address"
        },
        {
          "indexed": false,
          "internalType": "bytes32",
          "name": "messageDataHash",
          "type": "bytes32"
        },
        {
          "indexed": false,
          "internalType": "uint256",
          "name": "gasPrice",
          "type": "uint256"
        },
        {
          "indexed": false,
          "internalType": "uint256",
          "name": "timestamp",
          "type": "uint256"
        }
      ],
      "name": "MessageDelivered",
      "type": "event"
    },
    {
      "anonymous": false,
      "inputs": [
        {
          "indexed": true,
          "internalType": "address",
          "name": "outbox",
          "type": "address"
        },
        {
          "indexed": false,
          "internalType": "bool",
          "name": "enabled",
          "type": "bool"
        }
      ],
      "name": "OutboxToggle",
      "type": "event"
    },
    {
      "anonymous": false,
      "inputs": [
        {
          "indexed": true,
          "internalType": "address",
          "name": "previousOwner",
          "type": "address"
        },
        {
          "indexed": true,
          "internalType": "address",
          "name": "newOwner",
          "type": "address"
        }
      ],
      "name": "OwnershipTransferred",
      "type": "event"
    },
    {
      "inputs": [],
      "name": "activeOutbox",
      "outputs": [
        {
          "internalType": "address",
          "name": "",
          "type": "address"
        }
      ],
      "stateMutability": "view",
      "type": "function"
    },
    {
      "inputs": [
        {
          "internalType": "uint256",
          "name": "",
          "type": "uint256"
        }
      ],
      "name": "allowedInboxList",
      "outputs": [
        {
          "internalType": "address",
          "name": "",
          "type": "address"
        }
      ],
      "stateMutability": "view",
      "type": "function"
    },
    {
      "inputs": [
        {
          "internalType": "address",
          "name": "inbox",
          "type": "address"
        }
      ],
      "name": "allowedInboxes",
      "outputs": [
        {
          "internalType": "bool",
          "name": "",
          "type": "bool"
        }
      ],
      "stateMutability": "view",
      "type": "function"
    },
    {
      "inputs": [
        {
          "internalType": "uint256",
          "name": "",
          "type": "uint256"
        }
      ],
      "name": "allowedOutboxList",
      "outputs": [
        {
          "internalType": "address",
          "name": "",
          "type": "address"
        }
      ],
      "stateMutability": "view",
      "type": "function"
    },
    {
      "inputs": [
        {
          "internalType": "address",
          "name": "outbox",
          "type": "address"
        }
      ],
      "name": "allowedOutboxes",
      "outputs": [
        {
          "internalType": "bool",
          "name": "",
          "type": "bool"
        }
      ],
      "stateMutability": "view",
      "type": "function"
    },
    {
      "inputs": [
        {
          "internalType": "uint8",
          "name": "kind",
          "type": "uint8"
        },
        {
          "internalType": "address",
          "name": "sender",
          "type": "address"
        },
        {
          "internalType": "bytes32",
          "name": "messageDataHash",
          "type": "bytes32"
        }
      ],
      "name": "deliverMessageToInbox",
      "outputs": [
        {
          "internalType": "uint256",
          "name": "",
          "type": "uint256"
        }
      ],
      "stateMutability": "payable",
      "type": "function"
    },
    {
      "inputs": [
        {
          "internalType": "address",
          "name": "destAddr",
          "type": "address"
        },
        {
          "internalType": "uint256",
          "name": "amount",
          "type": "uint256"
        },
        {
          "internalType": "bytes",
          "name": "data",
          "type": "bytes"
        }
      ],
      "name": "executeCall",
      "outputs": [
        {
          "internalType": "bool",
          "name": "success",
          "type": "bool"
        },
        {
          "internalType": "bytes",
          "name": "returnData",
          "type": "bytes"
        }
      ],
      "stateMutability": "nonpayable",
      "type": "function"
    },
    {
      "inputs": [
        {
          "internalType": "uint256",
          "name": "",
          "type": "uint256"
        }
      ],
      "name": "inboxAccs",
      "outputs": [
        {
          "internalType": "bytes32",
          "name": "",
          "type": "bytes32"
        }
      ],
      "stateMutability": "view",
      "type": "function"
    },
    {
      "inputs": [],
      "name": "initialize",
      "outputs": [],
      "stateMutability": "nonpayable",
      "type": "function"
    },
    {
      "inputs": [],
      "name": "messageCount",
      "outputs": [
        {
          "internalType": "uint256",
          "name": "",
          "type": "uint256"
        }
      ],
      "stateMutability": "view",
      "type": "function"
    },
    {
      "inputs": [],
      "name": "owner",
      "outputs": [
        {
          "internalType": "address",
          "name": "",
          "type": "address"
        }
      ],
      "stateMutability": "view",
      "type": "function"
    },
    {
      "inputs": [],
      "name": "renounceOwnership",
      "outputs": [],
      "stateMutability": "nonpayable",
      "type": "function"
    },
    {
      "inputs": [
        {
          "internalType": "address",
          "name": "inbox",
          "type": "address"
        },
        {
          "internalType": "bool",
          "name": "enabled",
          "type": "bool"
        }
      ],
      "name": "setInbox",
      "outputs": [],
      "stateMutability": "nonpayable",
      "type": "function"
    },
    {
      "inputs": [
        {
          "internalType": "address",
          "name": "outbox",
          "type": "address"
        },
        {
          "internalType": "bool",
          "name": "enabled",
          "type": "bool"
        }
      ],
      "name": "setOutbox",
      "outputs": [],
      "stateMutability": "nonpayable",
      "type": "function"
    },
    {
      "inputs": [
        {
          "internalType": "address",
          "name": "newOwner",
          "type": "address"
        }
      ],
      "name": "transferOwnership",
      "outputs": [],
      "stateMutability": "nonpayable",
      "type": "function"
    }
  ],
  "transactionHash": "0xb213aa7325f2a2d21598b514b68c2dea12a35a6c3b096527542280c69a4d6fd7",
  "args": [],
  "solcInputHash": "e7611196dd0ae85361a704f7442944b3",
  "bytecode": "0x608060405234801561001057600080fd5b50611c10806100206000396000f3fe6080604052600436106100e85760003560e01c8063945e11471161008a578063cee3d72811610059578063cee3d728146102fe578063d9dd67ab14610327578063e45b7ce614610364578063f2fde38b1461038d576100e8565b8063945e11471461021b5780639e5d4c4914610258578063ab5d894314610296578063c29372de146102c1576100e8565b8063715018a6116100c6578063715018a6146101855780637ee943291461019c5780638129fc1c146101d95780638da5cb5b146101f0576100e8565b806302bbfad1146100ed5780633dbcc8d11461011d578063413b35bd14610148575b600080fd5b61010760048036038101906101029190611414565b6103b6565b6040516101149190611825565b60405180910390f35b34801561012957600080fd5b5061013261045e565b60405161013f9190611825565b60405180910390f35b34801561015457600080fd5b5061016f600480360381019061016a9190611306565b61046b565b60405161017c919061171f565b60405180910390f35b34801561019157600080fd5b5061019a6104a8565b005b3480156101a857600080fd5b506101c360048036038101906101be91906113e7565b610530565b6040516101d091906116a3565b60405180910390f35b3480156101e557600080fd5b506101ee61056f565b005b3480156101fc57600080fd5b50610205610650565b60405161021291906116a3565b60405180910390f35b34801561022757600080fd5b50610242600480360381019061023d91906113e7565b61067a565b60405161024f91906116a3565b60405180910390f35b34801561026457600080fd5b5061027f600480360381019061027a9190611373565b6106b9565b60405161028d92919061173a565b60405180910390f35b3480156102a257600080fd5b506102ab6106f8565b6040516102b891906116a3565b60405180910390f35b3480156102cd57600080fd5b506102e860048036038101906102e39190611306565b61071e565b6040516102f5919061171f565b60405180910390f35b34801561030a57600080fd5b5061032560048036038101906103209190611333565b610777565b005b34801561033357600080fd5b5061034e600480360381019061034991906113e7565b61082e565b60405161035b919061176a565b60405180910390f35b34801561037057600080fd5b5061038b60048036038101906103869190611333565b610852565b005b34801561039957600080fd5b506103b460048036038101906103af9190611306565b610c7f565b005b6000606560003373ffffffffffffffffffffffffffffffffffffffff1673ffffffffffffffffffffffffffffffffffffffff16815260200190815260200160002060010160009054906101000a900460ff16610447576040517f08c379a000000000000000000000000000000000000000000000000000000000815260040161043e906117e5565b60405180910390fd5b610455848443423a87610d77565b90509392505050565b6000606980549050905090565b60006040517f08c379a000000000000000000000000000000000000000000000000000000000815260040161049f90611805565b60405180910390fd5b6104b0610e59565b73ffffffffffffffffffffffffffffffffffffffff166104ce610650565b73ffffffffffffffffffffffffffffffffffffffff1614610524576040517f08c379a000000000000000000000000000000000000000000000000000000000815260040161051b906117c5565b60405180910390fd5b61052e6000610e61565b565b6066818154811061054057600080fd5b906000526020600020016000915054906101000a900473ffffffffffffffffffffffffffffffffffffffff1681565b600060019054906101000a900460ff1680610595575060008054906101000a900460ff16155b6105d4576040517f08c379a00000000000000000000000000000000000000000000000000000000081526004016105cb906117a5565b60405180910390fd5b60008060019054906101000a900460ff161590508015610624576001600060016101000a81548160ff02191690831515021790555060016000806101000a81548160ff0219169083151502179055505b61062c610f27565b801561064d5760008060016101000a81548160ff0219169083151502179055505b50565b6000603360009054906101000a900473ffffffffffffffffffffffffffffffffffffffff16905090565b6067818154811061068a57600080fd5b906000526020600020016000915054906101000a900473ffffffffffffffffffffffffffffffffffffffff1681565b600060606040517f08c379a00000000000000000000000000000000000000000000000000000000081526004016106ef90611805565b60405180910390fd5b606860009054906101000a900473ffffffffffffffffffffffffffffffffffffffff1681565b6000606560008373ffffffffffffffffffffffffffffffffffffffff1673ffffffffffffffffffffffffffffffffffffffff16815260200190815260200160002060010160009054906101000a900460ff169050919050565b61077f610e59565b73ffffffffffffffffffffffffffffffffffffffff1661079d610650565b73ffffffffffffffffffffffffffffffffffffffff16146107f3576040517f08c379a00000000000000000000000000000000000000000000000000000000081526004016107ea906117c5565b60405180910390fd5b6040517f08c379a000000000000000000000000000000000000000000000000000000000815260040161082590611805565b60405180910390fd5b6069818154811061083e57600080fd5b906000526020600020016000915090505481565b61085a610e59565b73ffffffffffffffffffffffffffffffffffffffff16610878610650565b73ffffffffffffffffffffffffffffffffffffffff16146108ce576040517f08c379a00000000000000000000000000000000000000000000000000000000081526004016108c5906117c5565b60405180910390fd5b6000606560008473ffffffffffffffffffffffffffffffffffffffff1673ffffffffffffffffffffffffffffffffffffffff168152602001908152602001600020905060008160010160009054906101000a900460ff1690508373ffffffffffffffffffffffffffffffffffffffff167f6675ce8882cb71637de5903a193d218cc0544be9c0650cb83e0955f6aa2bf5218460405161096d919061171f565b60405180910390a280801561097f5750825b80610992575080158015610991575082155b5b1561099e575050610c7b565b8215610a95576040518060400160405280606680549050815260200160011515815250606560008673ffffffffffffffffffffffffffffffffffffffff1673ffffffffffffffffffffffffffffffffffffffff1681526020019081526020016000206000820151816000015560208201518160010160006101000a81548160ff0219169083151502179055509050506066849080600181540180825580915050600190039060005260206000200160009091909190916101000a81548173ffffffffffffffffffffffffffffffffffffffff021916908373ffffffffffffffffffffffffffffffffffffffff160217905550610c78565b60666001606680549050610aa9919061186d565b81548110610aba57610ab96119db565b5b9060005260206000200160009054906101000a900473ffffffffffffffffffffffffffffffffffffffff166066836000015481548110610afd57610afc6119db565b5b9060005260206000200160006101000a81548173ffffffffffffffffffffffffffffffffffffffff021916908373ffffffffffffffffffffffffffffffffffffffff1602179055508160000154606560006066856000015481548110610b6657610b656119db565b5b9060005260206000200160009054906101000a900473ffffffffffffffffffffffffffffffffffffffff1673ffffffffffffffffffffffffffffffffffffffff1673ffffffffffffffffffffffffffffffffffffffff168152602001908152602001600020600001819055506066805480610be457610be36119ac565b5b6001900381819060005260206000200160006101000a81549073ffffffffffffffffffffffffffffffffffffffff02191690559055606560008573ffffffffffffffffffffffffffffffffffffffff1673ffffffffffffffffffffffffffffffffffffffff1681526020019081526020016000206000808201600090556001820160006101000a81549060ff021916905550505b50505b5050565b610c87610e59565b73ffffffffffffffffffffffffffffffffffffffff16610ca5610650565b73ffffffffffffffffffffffffffffffffffffffff1614610cfb576040517f08c379a0000000000000000000000000000000000000000000000000000000008152600401610cf2906117c5565b60405180910390fd5b600073ffffffffffffffffffffffffffffffffffffffff168173ffffffffffffffffffffffffffffffffffffffff161415610d6b576040517f08c379a0000000000000000000000000000000000000000000000000000000008152600401610d6290611785565b60405180910390fd5b610d7481610e61565b50565b60008060698054905090506000610d9389898989868a8a611010565b905060008060001b90506000831115610dd4576069600184610db5919061186d565b81548110610dc657610dc56119db565b5b906000526020600020015490505b6069610de08284611052565b908060018154018082558091505060019003906000526020600020016000909190919091505580837f56a6ba8f7d1bbd65f69c805ab40646c6784bfbfaf5d54a6672f5910e8f2e9e65338d8d8a8c8e604051610e41969594939291906116be565b60405180910390a38293505050509695505050505050565b600033905090565b6000603360009054906101000a900473ffffffffffffffffffffffffffffffffffffffff16905081603360006101000a81548173ffffffffffffffffffffffffffffffffffffffff021916908373ffffffffffffffffffffffffffffffffffffffff1602179055508173ffffffffffffffffffffffffffffffffffffffff168173ffffffffffffffffffffffffffffffffffffffff167f8be0079c531659141344cd1fd0a4f28419497f9722a3daafe3b4186f6b6457e060405160405180910390a35050565b600060019054906101000a900460ff1680610f4d575060008054906101000a900460ff16155b610f8c576040517f08c379a0000000000000000000000000000000000000000000000000000000008152600401610f83906117a5565b60405180910390fd5b60008060019054906101000a900460ff161590508015610fdc576001600060016101000a81548160ff02191690831515021790555060016000806101000a81548160ff0219169083151502179055505b610fe4611085565b610fec61115e565b801561100d5760008060016101000a81548160ff0219169083151502179055505b50565b60008787878787878760405160200161102f9796959493929190611622565b604051602081830303815290604052805190602001209050979650505050505050565b600082826040516020016110679291906115f6565b60405160208183030381529060405280519060200120905092915050565b600060019054906101000a900460ff16806110ab575060008054906101000a900460ff16155b6110ea576040517f08c379a00000000000000000000000000000000000000000000000000000000081526004016110e1906117a5565b60405180910390fd5b60008060019054906101000a900460ff16159050801561113a576001600060016101000a81548160ff02191690831515021790555060016000806101000a81548160ff0219169083151502179055505b801561115b5760008060016101000a81548160ff0219169083151502179055505b50565b600060019054906101000a900460ff1680611184575060008054906101000a900460ff16155b6111c3576040517f08c379a00000000000000000000000000000000000000000000000000000000081526004016111ba906117a5565b60405180910390fd5b60008060019054906101000a900460ff161590508015611213576001600060016101000a81548160ff02191690831515021790555060016000806101000a81548160ff0219169083151502179055505b61122361121e610e59565b610e61565b80156112445760008060016101000a81548160ff0219169083151502179055505b50565b60008135905061125681611b67565b92915050565b60008135905061126b81611b7e565b92915050565b60008135905061128081611b95565b92915050565b60008083601f84011261129c5761129b611a0f565b5b8235905067ffffffffffffffff8111156112b9576112b8611a0a565b5b6020830191508360018202830111156112d5576112d4611a14565b5b9250929050565b6000813590506112eb81611bac565b92915050565b60008135905061130081611bc3565b92915050565b60006020828403121561131c5761131b611a1e565b5b600061132a84828501611247565b91505092915050565b6000806040838503121561134a57611349611a1e565b5b600061135885828601611247565b92505060206113698582860161125c565b9150509250929050565b6000806000806060858703121561138d5761138c611a1e565b5b600061139b87828801611247565b94505060206113ac878288016112dc565b935050604085013567ffffffffffffffff8111156113cd576113cc611a19565b5b6113d987828801611286565b925092505092959194509250565b6000602082840312156113fd576113fc611a1e565b5b600061140b848285016112dc565b91505092915050565b60008060006060848603121561142d5761142c611a1e565b5b600061143b868287016112f1565b935050602061144c86828701611247565b925050604061145d86828701611271565b9150509250925092565b611470816118a1565b82525050565b611487611482826118a1565b611933565b82525050565b611496816118b3565b82525050565b6114a5816118bf565b82525050565b6114bc6114b7826118bf565b611945565b82525050565b60006114cd82611840565b6114d7818561184b565b93506114e7818560208601611900565b6114f081611a23565b840191505092915050565b600061150860268361185c565b915061151382611a4e565b604082019050919050565b600061152b602e8361185c565b915061153682611a9d565b604082019050919050565b600061154e60208361185c565b915061155982611aec565b602082019050919050565b6000611571600e8361185c565b915061157c82611b15565b602082019050919050565b6000611594600f8361185c565b915061159f82611b3e565b602082019050919050565b6115b3816118e9565b82525050565b6115ca6115c5826118e9565b611961565b82525050565b6115d9816118f3565b82525050565b6115f06115eb826118f3565b61196b565b82525050565b600061160282856114ab565b60208201915061161282846114ab565b6020820191508190509392505050565b600061162e828a6115df565b60018201915061163e8289611476565b60148201915061164e82886115b9565b60208201915061165e82876115b9565b60208201915061166e82866115b9565b60208201915061167e82856115b9565b60208201915061168e82846114ab565b60208201915081905098975050505050505050565b60006020820190506116b86000830184611467565b92915050565b600060c0820190506116d36000830189611467565b6116e060208301886115d0565b6116ed6040830187611467565b6116fa606083018661149c565b61170760808301856115aa565b61171460a08301846115aa565b979650505050505050565b6000602082019050611734600083018461148d565b92915050565b600060408201905061174f600083018561148d565b818103602083015261176181846114c2565b90509392505050565b600060208201905061177f600083018461149c565b92915050565b6000602082019050818103600083015261179e816114fb565b9050919050565b600060208201905081810360008301526117be8161151e565b9050919050565b600060208201905081810360008301526117de81611541565b9050919050565b600060208201905081810360008301526117fe81611564565b9050919050565b6000602082019050818103600083015261181e81611587565b9050919050565b600060208201905061183a60008301846115aa565b92915050565b600081519050919050565b600082825260208201905092915050565b600082825260208201905092915050565b6000611878826118e9565b9150611883836118e9565b9250828210156118965761189561197d565b5b828203905092915050565b60006118ac826118c9565b9050919050565b60008115159050919050565b6000819050919050565b600073ffffffffffffffffffffffffffffffffffffffff82169050919050565b6000819050919050565b600060ff82169050919050565b60005b8381101561191e578082015181840152602081019050611903565b8381111561192d576000848401525b50505050565b600061193e8261194f565b9050919050565b6000819050919050565b600061195a82611a41565b9050919050565b6000819050919050565b600061197682611a34565b9050919050565b7f4e487b7100000000000000000000000000000000000000000000000000000000600052601160045260246000fd5b7f4e487b7100000000000000000000000000000000000000000000000000000000600052603160045260246000fd5b7f4e487b7100000000000000000000000000000000000000000000000000000000600052603260045260246000fd5b600080fd5b600080fd5b600080fd5b600080fd5b600080fd5b6000601f19601f8301169050919050565b60008160f81b9050919050565b60008160601b9050919050565b7f4f776e61626c653a206e6577206f776e657220697320746865207a65726f206160008201527f6464726573730000000000000000000000000000000000000000000000000000602082015250565b7f496e697469616c697a61626c653a20636f6e747261637420697320616c72656160008201527f647920696e697469616c697a6564000000000000000000000000000000000000602082015250565b7f4f776e61626c653a2063616c6c6572206973206e6f7420746865206f776e6572600082015250565b7f4e4f545f46524f4d5f494e424f58000000000000000000000000000000000000600082015250565b7f4e4f545f494d504c454d454e5445440000000000000000000000000000000000600082015250565b611b70816118a1565b8114611b7b57600080fd5b50565b611b87816118b3565b8114611b9257600080fd5b50565b611b9e816118bf565b8114611ba957600080fd5b50565b611bb5816118e9565b8114611bc057600080fd5b50565b611bcc816118f3565b8114611bd757600080fd5b5056fea264697066735822122013b774a0c009459ff61d35176473630664149e77f9bf2a1b0b86be862897b02864736f6c63430008060033",
  "devdoc": {
    "kind": "dev",
    "methods": {
      "owner()": {
        "details": "Returns the address of the current owner."
      },
      "renounceOwnership()": {
        "details": "Leaves the contract without owner. It will not be possible to call `onlyOwner` functions anymore. Can only be called by the current owner. NOTE: Renouncing ownership will leave the contract without an owner, thereby removing any functionality that is only available to the owner."
      },
      "transferOwnership(address)": {
        "details": "Transfers ownership of the contract to a new account (`newOwner`). Can only be called by the current owner."
      }
    },
    "version": 1
  },
  "userdoc": {
    "kind": "user",
    "methods": {},
    "version": 1
  },
  "storageLayout": {
    "storage": [
      {
        "astId": 131,
        "contract": "src/bridge/Bridge.sol:Bridge",
        "label": "_initialized",
        "offset": 0,
        "slot": "0",
        "type": "t_bool"
      },
      {
        "astId": 134,
        "contract": "src/bridge/Bridge.sol:Bridge",
        "label": "_initializing",
        "offset": 1,
        "slot": "0",
        "type": "t_bool"
      },
      {
        "astId": 214,
        "contract": "src/bridge/Bridge.sol:Bridge",
        "label": "__gap",
        "offset": 0,
        "slot": "1",
        "type": "t_array(t_uint256)50_storage"
      },
      {
        "astId": 10,
        "contract": "src/bridge/Bridge.sol:Bridge",
        "label": "_owner",
        "offset": 0,
        "slot": "51",
        "type": "t_address"
      },
      {
        "astId": 124,
        "contract": "src/bridge/Bridge.sol:Bridge",
        "label": "__gap",
        "offset": 0,
        "slot": "52",
        "type": "t_array(t_uint256)49_storage"
      },
      {
        "astId": 1291,
        "contract": "src/bridge/Bridge.sol:Bridge",
        "label": "allowedInboxesMap",
        "offset": 0,
        "slot": "101",
        "type": "t_mapping(t_address,t_struct(InOutInfo)1286_storage)"
      },
      {
        "astId": 1294,
        "contract": "src/bridge/Bridge.sol:Bridge",
        "label": "allowedInboxList",
        "offset": 0,
        "slot": "102",
        "type": "t_array(t_address)dyn_storage"
      },
      {
        "astId": 1297,
        "contract": "src/bridge/Bridge.sol:Bridge",
        "label": "allowedOutboxList",
        "offset": 0,
        "slot": "103",
        "type": "t_array(t_address)dyn_storage"
      },
      {
        "astId": 1300,
        "contract": "src/bridge/Bridge.sol:Bridge",
        "label": "activeOutbox",
        "offset": 0,
        "slot": "104",
        "type": "t_address"
      },
      {
        "astId": 1304,
        "contract": "src/bridge/Bridge.sol:Bridge",
        "label": "inboxAccs",
        "offset": 0,
        "slot": "105",
        "type": "t_array(t_bytes32)dyn_storage"
      }
    ],
    "types": {
      "t_address": {
        "encoding": "inplace",
        "label": "address",
        "numberOfBytes": "20"
      },
      "t_array(t_address)dyn_storage": {
        "base": "t_address",
        "encoding": "dynamic_array",
        "label": "address[]",
        "numberOfBytes": "32"
      },
      "t_array(t_bytes32)dyn_storage": {
        "base": "t_bytes32",
        "encoding": "dynamic_array",
        "label": "bytes32[]",
        "numberOfBytes": "32"
      },
      "t_array(t_uint256)49_storage": {
        "base": "t_uint256",
        "encoding": "inplace",
        "label": "uint256[49]",
        "numberOfBytes": "1568"
      },
      "t_array(t_uint256)50_storage": {
        "base": "t_uint256",
        "encoding": "inplace",
        "label": "uint256[50]",
        "numberOfBytes": "1600"
      },
      "t_bool": {
        "encoding": "inplace",
        "label": "bool",
        "numberOfBytes": "1"
      },
      "t_bytes32": {
        "encoding": "inplace",
        "label": "bytes32",
        "numberOfBytes": "32"
      },
      "t_mapping(t_address,t_struct(InOutInfo)1286_storage)": {
        "encoding": "mapping",
        "key": "t_address",
        "label": "mapping(address => struct Bridge.InOutInfo)",
        "numberOfBytes": "32",
        "value": "t_struct(InOutInfo)1286_storage"
      },
      "t_struct(InOutInfo)1286_storage": {
        "encoding": "inplace",
        "label": "struct Bridge.InOutInfo",
        "members": [
          {
            "astId": 1283,
            "contract": "src/bridge/Bridge.sol:Bridge",
            "label": "index",
            "offset": 0,
            "slot": "0",
            "type": "t_uint256"
          },
          {
            "astId": 1285,
            "contract": "src/bridge/Bridge.sol:Bridge",
            "label": "allowed",
            "offset": 0,
            "slot": "1",
            "type": "t_bool"
          }
        ],
        "numberOfBytes": "64"
      },
      "t_uint256": {
        "encoding": "inplace",
        "label": "uint256",
        "numberOfBytes": "32"
      }
    }
  }
}