{
  "address": "0x4640833EE783Ad940A45F0E26Bc6049cE3965838",
  "abi": [
    {
      "anonymous": false,
      "inputs": [
        {
          "indexed": true,
          "internalType": "uint256",
          "name": "messageNum",
          "type": "uint256"
        },
        {
          "indexed": false,
          "internalType": "bytes",
          "name": "data",
          "type": "bytes"
        }
      ],
      "name": "InboxMessageDelivered",
      "type": "event"
    },
    {
      "anonymous": false,
      "inputs": [
        {
          "indexed": true,
          "internalType": "uint256",
          "name": "messageNum",
          "type": "uint256"
        }
      ],
      "name": "InboxMessageDeliveredFromOrigin",
      "type": "event"
    },
    {
      "anonymous": false,
      "inputs": [
        {
          "indexed": false,
          "internalType": "bool",
          "name": "enabled",
          "type": "bool"
        }
      ],
      "name": "PauseToggled",
      "type": "event"
    },
    {
      "anonymous": false,
      "inputs": [
        {
          "indexed": false,
          "internalType": "bool",
          "name": "enabled",
          "type": "bool"
        }
      ],
      "name": "RewriteToggled",
      "type": "event"
    },
    {
      "inputs": [],
      "name": "bridge",
      "outputs": [
        {
          "internalType": "contract IBridge",
          "name": "",
          "type": "address"
        }
      ],
      "stateMutability": "view",
      "type": "function"
    },
    {
      "inputs": [
        {
          "internalType": "address",
          "name": "destAddr",
          "type": "address"
        },
        {
          "internalType": "uint256",
          "name": "l2CallValue",
          "type": "uint256"
        },
        {
          "internalType": "uint256",
          "name": "maxSubmissionCost",
          "type": "uint256"
        },
        {
          "internalType": "address",
          "name": "excessFeeRefundAddress",
          "type": "address"
        },
        {
          "internalType": "address",
          "name": "callValueRefundAddress",
          "type": "address"
        },
        {
          "internalType": "uint256",
          "name": "maxGas",
          "type": "uint256"
        },
        {
          "internalType": "uint256",
          "name": "gasPriceBid",
          "type": "uint256"
        },
        {
          "internalType": "bytes",
          "name": "data",
          "type": "bytes"
        }
      ],
      "name": "createRetryableTicket",
      "outputs": [
        {
          "internalType": "uint256",
          "name": "",
          "type": "uint256"
        }
      ],
      "stateMutability": "payable",
      "type": "function"
    },
    {
      "inputs": [
        {
          "internalType": "address",
          "name": "destAddr",
          "type": "address"
        },
        {
          "internalType": "uint256",
          "name": "l2CallValue",
          "type": "uint256"
        },
        {
          "internalType": "uint256",
          "name": "maxSubmissionCost",
          "type": "uint256"
        },
        {
          "internalType": "address",
          "name": "excessFeeRefundAddress",
          "type": "address"
        },
        {
          "internalType": "address",
          "name": "callValueRefundAddress",
          "type": "address"
        },
        {
          "internalType": "uint256",
          "name": "maxGas",
          "type": "uint256"
        },
        {
          "internalType": "uint256",
          "name": "gasPriceBid",
          "type": "uint256"
        },
        {
          "internalType": "bytes",
          "name": "data",
          "type": "bytes"
        }
      ],
      "name": "createRetryableTicketNoRefundAliasRewrite",
      "outputs": [
        {
          "internalType": "uint256",
          "name": "",
          "type": "uint256"
        }
      ],
      "stateMutability": "payable",
      "type": "function"
    },
    {
      "inputs": [
        {
          "internalType": "uint256",
          "name": "maxSubmissionCost",
          "type": "uint256"
        }
      ],
      "name": "depositEth",
      "outputs": [
        {
          "internalType": "uint256",
          "name": "",
          "type": "uint256"
        }
      ],
      "stateMutability": "payable",
      "type": "function"
    },
    {
      "inputs": [
        {
          "internalType": "contract IBridge",
          "name": "_bridge",
          "type": "address"
        }
      ],
      "name": "initialize",
      "outputs": [],
      "stateMutability": "nonpayable",
      "type": "function"
    },
    {
      "inputs": [],
      "name": "isCreateRetryablePaused",
      "outputs": [
        {
          "internalType": "bool",
          "name": "",
          "type": "bool"
        }
      ],
      "stateMutability": "view",
      "type": "function"
    },
    {
      "inputs": [],
      "name": "pauseCreateRetryables",
      "outputs": [],
      "stateMutability": "nonpayable",
      "type": "function"
    },
    {
      "inputs": [
        {
          "internalType": "uint256",
          "name": "maxGas",
          "type": "uint256"
        },
        {
          "internalType": "uint256",
          "name": "gasPriceBid",
          "type": "uint256"
        },
        {
          "internalType": "address",
          "name": "destAddr",
          "type": "address"
        },
        {
          "internalType": "uint256",
          "name": "amount",
          "type": "uint256"
        },
        {
          "internalType": "bytes",
          "name": "data",
          "type": "bytes"
        }
      ],
      "name": "sendContractTransaction",
      "outputs": [
        {
          "internalType": "uint256",
          "name": "",
          "type": "uint256"
        }
      ],
      "stateMutability": "nonpayable",
      "type": "function"
    },
    {
      "inputs": [
        {
          "internalType": "uint256",
          "name": "maxGas",
          "type": "uint256"
        },
        {
          "internalType": "uint256",
          "name": "gasPriceBid",
          "type": "uint256"
        },
        {
          "internalType": "address",
          "name": "destAddr",
          "type": "address"
        },
        {
          "internalType": "bytes",
          "name": "data",
          "type": "bytes"
        }
      ],
      "name": "sendL1FundedContractTransaction",
      "outputs": [
        {
          "internalType": "uint256",
          "name": "",
          "type": "uint256"
        }
      ],
      "stateMutability": "payable",
      "type": "function"
    },
    {
      "inputs": [
        {
          "internalType": "uint256",
          "name": "maxGas",
          "type": "uint256"
        },
        {
          "internalType": "uint256",
          "name": "gasPriceBid",
          "type": "uint256"
        },
        {
          "internalType": "uint256",
          "name": "nonce",
          "type": "uint256"
        },
        {
          "internalType": "address",
          "name": "destAddr",
          "type": "address"
        },
        {
          "internalType": "bytes",
          "name": "data",
          "type": "bytes"
        }
      ],
      "name": "sendL1FundedUnsignedTransaction",
      "outputs": [
        {
          "internalType": "uint256",
          "name": "",
          "type": "uint256"
        }
      ],
      "stateMutability": "payable",
      "type": "function"
    },
    {
      "inputs": [
        {
          "internalType": "bytes",
          "name": "messageData",
          "type": "bytes"
        }
      ],
      "name": "sendL2Message",
      "outputs": [
        {
          "internalType": "uint256",
          "name": "",
          "type": "uint256"
        }
      ],
      "stateMutability": "nonpayable",
      "type": "function"
    },
    {
      "inputs": [
        {
          "internalType": "bytes",
          "name": "messageData",
          "type": "bytes"
        }
      ],
      "name": "sendL2MessageFromOrigin",
      "outputs": [
        {
          "internalType": "uint256",
          "name": "",
          "type": "uint256"
        }
      ],
      "stateMutability": "nonpayable",
      "type": "function"
    },
    {
      "inputs": [
        {
          "internalType": "uint256",
          "name": "maxGas",
          "type": "uint256"
        },
        {
          "internalType": "uint256",
          "name": "gasPriceBid",
          "type": "uint256"
        },
        {
          "internalType": "uint256",
          "name": "nonce",
          "type": "uint256"
        },
        {
          "internalType": "address",
          "name": "destAddr",
          "type": "address"
        },
        {
          "internalType": "uint256",
          "name": "amount",
          "type": "uint256"
        },
        {
          "internalType": "bytes",
          "name": "data",
          "type": "bytes"
        }
      ],
      "name": "sendUnsignedTransaction",
      "outputs": [
        {
          "internalType": "uint256",
          "name": "",
          "type": "uint256"
        }
      ],
      "stateMutability": "nonpayable",
      "type": "function"
    },
    {
      "inputs": [],
      "name": "shouldRewriteSender",
      "outputs": [
        {
          "internalType": "bool",
          "name": "",
          "type": "bool"
        }
      ],
      "stateMutability": "view",
      "type": "function"
    },
    {
      "inputs": [],
      "name": "startRewriteAddress",
      "outputs": [],
      "stateMutability": "nonpayable",
      "type": "function"
    },
    {
      "inputs": [],
      "name": "stopRewriteAddress",
      "outputs": [],
      "stateMutability": "nonpayable",
      "type": "function"
    },
    {
      "inputs": [],
      "name": "unpauseCreateRetryables",
      "outputs": [],
      "stateMutability": "nonpayable",
      "type": "function"
    }
  ],
  "transactionHash": "0x395a631e4882f341163bb116d1af13d75c559ff82e4f9b6749f33ee689021c50",
  "args": [],
  "solcInputHash": "e7611196dd0ae85361a704f7442944b3",
  "bytecode": "0x608060405234801561001057600080fd5b5061226e806100206000396000f3fe6080604052600436106100fe5760003560e01c8063794cfd5111610095578063b4d9ec4411610064578063b4d9ec4414610306578063b75436bb14610331578063c4d66de81461036e578063e78cea9214610397578063fdebb9b3146103c2576100fe565b8063794cfd51146102845780637ae8d8b31461029b5780638a631aa6146102b25780639fe12da5146102ef576100fe565b80635075788b116100d15780635075788b146101b75780635e916758146101f4578063679b6ded1461022457806367ef3ab814610254576100fe565b80630f4d14e9146101035780631b871c8d146101335780631fe927cf146101635780632b40609a146101a0575b600080fd5b61011d60048036038101906101189190611547565b6103ed565b60405161012a9190611e3c565b60405180910390f35b61014d600480360381019061014891906113f7565b61055b565b60405161015a9190611e3c565b60405180910390f35b34801561016f57600080fd5b5061018a600480360381019061018591906114cd565b610651565b6040516101979190611e3c565b60405180910390f35b3480156101ac57600080fd5b506101b561071f565b005b3480156101c357600080fd5b506101de60048036038101906101d9919061175d565b6108d6565b6040516101eb9190611e3c565b60405180910390f35b61020e600480360381019061020991906115a1565b61093b565b60405161021b9190611e3c565b60405180910390f35b61023e600480360381019061023991906113f7565b61099c565b60405161024b9190611e3c565b60405180910390f35b61026e600480360381019061026991906116c3565b610a21565b60405161027b9190611e3c565b60405180910390f35b34801561029057600080fd5b50610299610a85565b005b3480156102a757600080fd5b506102b0610c3a565b005b3480156102be57600080fd5b506102d960048036038101906102d49190611629565b610df1565b6040516102e69190611e3c565b60405180910390f35b3480156102fb57600080fd5b50610304610e53565b005b34801561031257600080fd5b5061031b611008565b6040516103289190611cc0565b60405180910390f35b34801561033d57600080fd5b50610358600480360381019061035391906114cd565b61101b565b6040516103659190611e3c565b60405180910390f35b34801561037a57600080fd5b506103956004803603810190610390919061151a565b611087565b005b3480156103a357600080fd5b506103ac611159565b6040516103b99190611d21565b60405180910390f35b3480156103ce57600080fd5b506103d761117d565b6040516103e49190611cc0565b60405180910390f35b60008060149054906101000a900460ff161561043e576040517f08c379a000000000000000000000000000000000000000000000000000000000815260040161043590611d3c565b60405180910390fd5b60003390506000339050600060159054906101000a900460ff16156104c05761046682611190565b15801561049e57503373ffffffffffffffffffffffffffffffffffffffff163273ffffffffffffffffffffffffffffffffffffffff16145b156104b3576104ac826111a3565b91506104bf565b6104bc816111cc565b90505b5b6105526009838360601b60601c73ffffffffffffffffffffffffffffffffffffffff16600034898760601b60601c73ffffffffffffffffffffffffffffffffffffffff168860601b60601c73ffffffffffffffffffffffffffffffffffffffff16600080600060405160200161053e99989796959493929190611b25565b6040516020818303038152906040526111f5565b92505050919050565b60008060149054906101000a900460ff16156105ac576040517f08c379a00000000000000000000000000000000000000000000000000000000081526004016105a390611d3c565b60405180910390fd5b6106426009338c60601b60601c73ffffffffffffffffffffffffffffffffffffffff168c348d8d60601b60601c73ffffffffffffffffffffffffffffffffffffffff168d60601b60601c73ffffffffffffffffffffffffffffffffffffffff168d8d8d8d90508e8e60405160200161062e9b9a99989796959493929190611a73565b6040516020818303038152906040526111f5565b90509998505050505050505050565b60003273ffffffffffffffffffffffffffffffffffffffff163373ffffffffffffffffffffffffffffffffffffffff16146106c1576040517f08c379a00000000000000000000000000000000000000000000000000000000081526004016106b890611dbc565b60405180910390fd5b60006106e660033386866040516106d9929190611a5a565b604051809103902061124f565b9050807fab532385be8f1005a4b6ba8fa20a2245facb346134ac739fe9a5198dc1580b9c60405160405180910390a28091505092915050565b60008060009054906101000a900473ffffffffffffffffffffffffffffffffffffffff1673ffffffffffffffffffffffffffffffffffffffff16638da5cb5b6040518163ffffffff1660e01b815260040160206040518083038186803b15801561078857600080fd5b505afa15801561079c573d6000803e3d6000fd5b505050506040513d601f19601f820116820180604052508101906107c091906113ca565b90508073ffffffffffffffffffffffffffffffffffffffff163373ffffffffffffffffffffffffffffffffffffffff1614610830576040517f08c379a000000000000000000000000000000000000000000000000000000000815260040161082790611ddc565b60405180910390fd5b600060149054906101000a900460ff1615610880576040517f08c379a000000000000000000000000000000000000000000000000000000000815260040161087790611d9c565b60405180910390fd5b6001600060146101000a81548160ff0219169083151502179055507f9077d36bc00859b5c3f320310707208543dd35092cb0a0fe117d0c6a558b148b60016040516108cb9190611cc0565b60405180910390a150565b600061092e60033360008b8b8b8b60601b60601c73ffffffffffffffffffffffffffffffffffffffff168b8b8b60405160200161091a989796959493929190611c41565b6040516020818303038152906040526111f5565b9050979650505050505050565b6000610991600733600189898960601b60601c73ffffffffffffffffffffffffffffffffffffffff16348a8a60405160200161097d9796959493929190611bd3565b6040516020818303038152906040526111f5565b905095945050505050565b60008060159054906101000a900460ff1680156109be57506109bd87611190565b5b156109cf576109cc876111cc565b96505b600060159054906101000a900460ff1680156109f057506109ef86611190565b5b15610a01576109fe866111cc565b95505b610a128a8a8a8a8a8a8a8a8a61055b565b90509998505050505050505050565b6000610a7960073360008a8a8a8a60601b60601c73ffffffffffffffffffffffffffffffffffffffff16348b8b604051602001610a65989796959493929190611c41565b6040516020818303038152906040526111f5565b90509695505050505050565b60008060009054906101000a900473ffffffffffffffffffffffffffffffffffffffff1673ffffffffffffffffffffffffffffffffffffffff16638da5cb5b6040518163ffffffff1660e01b815260040160206040518083038186803b158015610aee57600080fd5b505afa158015610b02573d6000803e3d6000fd5b505050506040513d601f19601f82011682018060405250810190610b2691906113ca565b90508073ffffffffffffffffffffffffffffffffffffffff163373ffffffffffffffffffffffffffffffffffffffff1614610b96576040517f08c379a0000000000000000000000000000000000000000000000000000000008152600401610b8d90611ddc565b60405180910390fd5b600060159054906101000a900460ff16610be5576040517f08c379a0000000000000000000000000000000000000000000000000000000008152600401610bdc90611e1c565b60405180910390fd5b60008060156101000a81548160ff0219169083151502179055507fab1ea65fd25ce96d303e895d1bd43edddb89841544a3705d3e61fc947a5fc25b6000604051610c2f9190611cc0565b60405180910390a150565b60008060009054906101000a900473ffffffffffffffffffffffffffffffffffffffff1673ffffffffffffffffffffffffffffffffffffffff16638da5cb5b6040518163ffffffff1660e01b815260040160206040518083038186803b158015610ca357600080fd5b505afa158015610cb7573d6000803e3d6000fd5b505050506040513d601f19601f82011682018060405250810190610cdb91906113ca565b90508073ffffffffffffffffffffffffffffffffffffffff163373ffffffffffffffffffffffffffffffffffffffff1614610d4b576040517f08c379a0000000000000000000000000000000000000000000000000000000008152600401610d4290611ddc565b60405180910390fd5b600060159054906101000a900460ff1615610d9b576040517f08c379a0000000000000000000000000000000000000000000000000000000008152600401610d9290611d5c565b60405180910390fd5b6001600060156101000a81548160ff0219169083151502179055507fab1ea65fd25ce96d303e895d1bd43edddb89841544a3705d3e61fc947a5fc25b6001604051610de69190611cc0565b60405180910390a150565b6000610e4760033360018a8a8a60601b60601c73ffffffffffffffffffffffffffffffffffffffff168a8a8a604051602001610e339796959493929190611bd3565b6040516020818303038152906040526111f5565b90509695505050505050565b60008060009054906101000a900473ffffffffffffffffffffffffffffffffffffffff1673ffffffffffffffffffffffffffffffffffffffff16638da5cb5b6040518163ffffffff1660e01b815260040160206040518083038186803b158015610ebc57600080fd5b505afa158015610ed0573d6000803e3d6000fd5b505050506040513d601f19601f82011682018060405250810190610ef491906113ca565b90508073ffffffffffffffffffffffffffffffffffffffff163373ffffffffffffffffffffffffffffffffffffffff1614610f64576040517f08c379a0000000000000000000000000000000000000000000000000000000008152600401610f5b90611ddc565b60405180910390fd5b600060149054906101000a900460ff16610fb3576040517f08c379a0000000000000000000000000000000000000000000000000000000008152600401610faa90611dfc565b60405180910390fd5b60008060146101000a81548160ff0219169083151502179055507f9077d36bc00859b5c3f320310707208543dd35092cb0a0fe117d0c6a558b148b6000604051610ffd9190611cc0565b60405180910390a150565b600060149054906101000a900460ff1681565b6000806110416003338686604051611034929190611a5a565b604051809103902061124f565b9050807fff64905f73a67fb594e0f940a8075a860db489ad991e032f48c81123eb52d60b8585604051611075929190611cdb565b60405180910390a28091505092915050565b600073ffffffffffffffffffffffffffffffffffffffff1660008054906101000a900473ffffffffffffffffffffffffffffffffffffffff1673ffffffffffffffffffffffffffffffffffffffff1614611116576040517f08c379a000000000000000000000000000000000000000000000000000000000815260040161110d90611d7c565b60405180910390fd5b806000806101000a81548173ffffffffffffffffffffffffffffffffffffffff021916908373ffffffffffffffffffffffffffffffffffffffff16021790555050565b60008054906101000a900473ffffffffffffffffffffffffffffffffffffffff1681565b600060159054906101000a900460ff1681565b600080823b905060008111915050919050565b6000731111000000000000000000000000000000001111826111c59190611f1b565b9050919050565b6000731111000000000000000000000000000000001111826111ee9190611ed1565b9050919050565b60008061120a8585858051906020012061124f565b9050807fff64905f73a67fb594e0f940a8075a860db489ad991e032f48c81123eb52d60b8460405161123c9190611cff565b60405180910390a2809150509392505050565b60008060009054906101000a900473ffffffffffffffffffffffffffffffffffffffff1673ffffffffffffffffffffffffffffffffffffffff166302bbfad1348686866040518563ffffffff1660e01b81526004016112b093929190611e57565b6020604051808303818588803b1580156112c957600080fd5b505af11580156112dd573d6000803e3d6000fd5b50505050506040513d601f19601f820116820180604052508101906113029190611574565b90509392505050565b60008135905061131a816121f3565b92915050565b60008151905061132f816121f3565b92915050565b60008083601f84011261134b5761134a612076565b5b8235905067ffffffffffffffff81111561136857611367612071565b5b6020830191508360018202830111156113845761138361207b565b5b9250929050565b60008135905061139a8161220a565b92915050565b6000813590506113af81612221565b92915050565b6000815190506113c481612221565b92915050565b6000602082840312156113e0576113df612085565b5b60006113ee84828501611320565b91505092915050565b60008060008060008060008060006101008a8c03121561141a57611419612085565b5b60006114288c828d0161130b565b99505060206114398c828d016113a0565b985050604061144a8c828d016113a0565b975050606061145b8c828d0161130b565b965050608061146c8c828d0161130b565b95505060a061147d8c828d016113a0565b94505060c061148e8c828d016113a0565b93505060e08a013567ffffffffffffffff8111156114af576114ae612080565b5b6114bb8c828d01611335565b92509250509295985092959850929598565b600080602083850312156114e4576114e3612085565b5b600083013567ffffffffffffffff81111561150257611501612080565b5b61150e85828601611335565b92509250509250929050565b6000602082840312156115305761152f612085565b5b600061153e8482850161138b565b91505092915050565b60006020828403121561155d5761155c612085565b5b600061156b848285016113a0565b91505092915050565b60006020828403121561158a57611589612085565b5b6000611598848285016113b5565b91505092915050565b6000806000806000608086880312156115bd576115bc612085565b5b60006115cb888289016113a0565b95505060206115dc888289016113a0565b94505060406115ed8882890161130b565b935050606086013567ffffffffffffffff81111561160e5761160d612080565b5b61161a88828901611335565b92509250509295509295909350565b60008060008060008060a0878903121561164657611645612085565b5b600061165489828a016113a0565b965050602061166589828a016113a0565b955050604061167689828a0161130b565b945050606061168789828a016113a0565b935050608087013567ffffffffffffffff8111156116a8576116a7612080565b5b6116b489828a01611335565b92509250509295509295509295565b60008060008060008060a087890312156116e0576116df612085565b5b60006116ee89828a016113a0565b96505060206116ff89828a016113a0565b955050604061171089828a016113a0565b945050606061172189828a0161130b565b935050608087013567ffffffffffffffff81111561174257611741612080565b5b61174e89828a01611335565b92509250509295509295509295565b600080600080600080600060c0888a03121561177c5761177b612085565b5b600061178a8a828b016113a0565b975050602061179b8a828b016113a0565b96505060406117ac8a828b016113a0565b95505060606117bd8a828b0161130b565b94505060806117ce8a828b016113a0565b93505060a088013567ffffffffffffffff8111156117ef576117ee612080565b5b6117fb8a828b01611335565b925092505092959891949750929550565b61181581611f4f565b82525050565b61182481611f61565b82525050565b61183381611f6d565b82525050565b60006118458385611e99565b9350611852838584611fe4565b61185b8361208a565b840190509392505050565b60006118728385611eaa565b935061187f838584611fe4565b82840190509392505050565b600061189682611e8e565b6118a08185611e99565b93506118b0818560208601611ff3565b6118b98161208a565b840191505092915050565b6118cd81611fc0565b82525050565b60006118e0601883611eb5565b91506118eb826120a8565b602082019050919050565b6000611903601183611eb5565b915061190e826120d1565b602082019050919050565b6000611926600c83611eb5565b9150611931826120fa565b602082019050919050565b6000611949600e83611eb5565b915061195482612123565b602082019050919050565b600061196c600083611ec6565b91506119778261214c565b600082019050919050565b600061198f600b83611eb5565b915061199a8261214f565b602082019050919050565b60006119b2600983611eb5565b91506119bd82612178565b602082019050919050565b60006119d5600a83611eb5565b91506119e0826121a1565b602082019050919050565b60006119f8600d83611eb5565b9150611a03826121ca565b602082019050919050565b611a1781611fa9565b82525050565b611a2e611a2982611fa9565b612026565b82525050565b611a3d81611fb3565b82525050565b611a54611a4f82611fb3565b612030565b82525050565b6000611a67828486611866565b91508190509392505050565b6000611a7f828e611a1d565b602082019150611a8f828d611a1d565b602082019150611a9f828c611a1d565b602082019150611aaf828b611a1d565b602082019150611abf828a611a1d565b602082019150611acf8289611a1d565b602082019150611adf8288611a1d565b602082019150611aef8287611a1d565b602082019150611aff8286611a1d565b602082019150611b10828486611866565b91508190509c9b505050505050505050505050565b6000611b31828c611a1d565b602082019150611b41828b611a1d565b602082019150611b51828a611a1d565b602082019150611b618289611a1d565b602082019150611b718288611a1d565b602082019150611b818287611a1d565b602082019150611b918286611a1d565b602082019150611ba18285611a1d565b602082019150611bb18284611a1d565b602082019150611bc08261195f565b91508190509a9950505050505050505050565b6000611bdf828a611a43565b600182019150611bef8289611a1d565b602082019150611bff8288611a1d565b602082019150611c0f8287611a1d565b602082019150611c1f8286611a1d565b602082019150611c30828486611866565b915081905098975050505050505050565b6000611c4d828b611a43565b600182019150611c5d828a611a1d565b602082019150611c6d8289611a1d565b602082019150611c7d8288611a1d565b602082019150611c8d8287611a1d565b602082019150611c9d8286611a1d565b602082019150611cae828486611866565b91508190509998505050505050505050565b6000602082019050611cd5600083018461181b565b92915050565b60006020820190508181036000830152611cf6818486611839565b90509392505050565b60006020820190508181036000830152611d19818461188b565b905092915050565b6000602082019050611d3660008301846118c4565b92915050565b60006020820190508181036000830152611d55816118d3565b9050919050565b60006020820190508181036000830152611d75816118f6565b9050919050565b60006020820190508181036000830152611d9581611919565b9050919050565b60006020820190508181036000830152611db58161193c565b9050919050565b60006020820190508181036000830152611dd581611982565b9050919050565b60006020820190508181036000830152611df5816119a5565b9050919050565b60006020820190508181036000830152611e15816119c8565b9050919050565b60006020820190508181036000830152611e35816119eb565b9050919050565b6000602082019050611e516000830184611a0e565b92915050565b6000606082019050611e6c6000830186611a34565b611e79602083018561180c565b611e86604083018461182a565b949350505050565b600081519050919050565b600082825260208201905092915050565b600081905092915050565b600082825260208201905092915050565b600081905092915050565b6000611edc82611f89565b9150611ee783611f89565b92508273ffffffffffffffffffffffffffffffffffffffff03821115611f1057611f0f612042565b5b828201905092915050565b6000611f2682611f89565b9150611f3183611f89565b925082821015611f4457611f43612042565b5b828203905092915050565b6000611f5a82611f89565b9050919050565b60008115159050919050565b6000819050919050565b6000611f8282611f4f565b9050919050565b600073ffffffffffffffffffffffffffffffffffffffff82169050919050565b6000819050919050565b600060ff82169050919050565b6000611fcb82611fd2565b9050919050565b6000611fdd82611f89565b9050919050565b82818337600083830152505050565b60005b83811015612011578082015181840152602081019050611ff6565b83811115612020576000848401525b50505050565b6000819050919050565b600061203b8261209b565b9050919050565b7f4e487b7100000000000000000000000000000000000000000000000000000000600052601160045260246000fd5b600080fd5b600080fd5b600080fd5b600080fd5b600080fd5b6000601f19601f8301169050919050565b60008160f81b9050919050565b7f4352454154455f524554525941424c45535f5041555345440000000000000000600082015250565b7f414c52454144595f524557524954494e47000000000000000000000000000000600082015250565b7f414c52454144595f494e49540000000000000000000000000000000000000000600082015250565b7f414c52454144595f504155534544000000000000000000000000000000000000600082015250565b50565b7f6f726967696e206f6e6c79000000000000000000000000000000000000000000600082015250565b7f4e4f545f4f574e45520000000000000000000000000000000000000000000000600082015250565b7f4e4f545f50415553454400000000000000000000000000000000000000000000600082015250565b7f4e4f545f524557524954494e4700000000000000000000000000000000000000600082015250565b6121fc81611f4f565b811461220757600080fd5b50565b61221381611f77565b811461221e57600080fd5b50565b61222a81611fa9565b811461223557600080fd5b5056fea2646970667358221220a9db09ae30d660e7094d5ebaade128b054c5b10cd0b0372c42ac4afcf203665a64736f6c63430008060033",
  "devdoc": {
    "kind": "dev",
    "methods": {
      "createRetryableTicket(address,uint256,uint256,address,address,uint256,uint256,bytes)": {
        "details": "all msg.value will deposited to callValueRefundAddress on L2",
        "params": {
          "callValueRefundAddress": "l2Callvalue gets credited here on L2 if retryable txn times out or gets cancelled",
          "data": "ABI encoded data of L2 message",
          "destAddr": "destination L2 contract address",
          "excessFeeRefundAddress": "maxgas x gasprice - execution cost gets credited here on L2 balance",
          "gasPriceBid": "price bid for L2 execution",
          "l2CallValue": "call value for retryable L2 message",
          "maxGas": "Max gas deducted from user's L2 balance to cover L2 execution",
          "maxSubmissionCost": "Max gas deducted from user's L2 balance to cover base submission fee"
        },
        "returns": {
          "_0": "unique id for retryable transaction (keccak256(requestID, uint(0) )"
        }
      },
      "createRetryableTicketNoRefundAliasRewrite(address,uint256,uint256,address,address,uint256,uint256,bytes)": {
        "details": "Advanced usage only (does not rewrite aliases for excessFeeRefundAddress and callValueRefundAddress). createRetryableTicket method is the recommended standard.",
        "params": {
          "callValueRefundAddress": "l2Callvalue gets credited here on L2 if retryable txn times out or gets cancelled",
          "data": "ABI encoded data of L2 message",
          "destAddr": "destination L2 contract address",
          "excessFeeRefundAddress": "maxgas x gasprice - execution cost gets credited here on L2 balance",
          "gasPriceBid": "price bid for L2 execution",
          "l2CallValue": "call value for retryable L2 message",
          "maxGas": "Max gas deducted from user's L2 balance to cover L2 execution",
          "maxSubmissionCost": "Max gas deducted from user's L2 balance to cover base submission fee"
        },
        "returns": {
          "_0": "unique id for retryable transaction (keccak256(requestID, uint(0) )"
        }
      },
      "depositEth(uint256)": {
        "details": "this function should not be called inside contract constructors"
      },
      "sendL2Message(bytes)": {
        "details": "This method can be used to send any type of message that doesn't require L1 validation",
        "params": {
          "messageData": "Data of the message being sent"
        }
      },
      "sendL2MessageFromOrigin(bytes)": {
        "details": "This method is an optimization to avoid having to emit the entirety of the messageData in a log. Instead validators are expected to be able to parse the data from the transaction's input",
        "params": {
          "messageData": "Data of the message being sent"
        }
      }
    },
    "version": 1
  },
  "userdoc": {
    "kind": "user",
    "methods": {
      "createRetryableTicket(address,uint256,uint256,address,address,uint256,uint256,bytes)": {
        "notice": "Put a message in the L2 inbox that can be reexecuted for some fixed amount of time if it reverts"
      },
      "createRetryableTicketNoRefundAliasRewrite(address,uint256,uint256,address,address,uint256,uint256,bytes)": {
        "notice": "Put a message in the L2 inbox that can be reexecuted for some fixed amount of time if it reverts"
      },
      "depositEth(uint256)": {
        "notice": "deposit eth from L1 to L2"
      },
      "pauseCreateRetryables()": {
        "notice": "pauses creating retryables"
      },
      "sendL2Message(bytes)": {
        "notice": "Send a generic L2 message to the chain"
      },
      "sendL2MessageFromOrigin(bytes)": {
        "notice": "Send a generic L2 message to the chain"
      },
      "startRewriteAddress()": {
        "notice": "start rewriting addresses in eth deposits"
      },
      "stopRewriteAddress()": {
        "notice": "stop rewriting addresses in eth deposits"
      },
      "unpauseCreateRetryables()": {
        "notice": "unpauses creating retryables"
      }
    },
    "version": 1
  },
  "storageLayout": {
    "storage": [
      {
        "astId": 1871,
        "contract": "src/bridge/Inbox.sol:Inbox",
        "label": "bridge",
        "offset": 0,
        "slot": "0",
        "type": "t_contract(IBridge)1703"
      },
      {
        "astId": 1873,
        "contract": "src/bridge/Inbox.sol:Inbox",
        "label": "isCreateRetryablePaused",
        "offset": 20,
        "slot": "0",
        "type": "t_bool"
      },
      {
        "astId": 1875,
        "contract": "src/bridge/Inbox.sol:Inbox",
        "label": "shouldRewriteSender",
        "offset": 21,
        "slot": "0",
        "type": "t_bool"
      }
    ],
    "types": {
      "t_bool": {
        "encoding": "inplace",
        "label": "bool",
        "numberOfBytes": "1"
      },
      "t_contract(IBridge)1703": {
        "encoding": "inplace",
        "label": "contract IBridge",
        "numberOfBytes": "20"
      }
    }
  }
}