{
  "address": "0x73140A464a78C93BA9EB5792EC183B71994BEf3A",
  "abi": [
    {
      "inputs": [
        {
          "internalType": "contract ISequencerInbox",
          "name": "_seqInbox",
          "type": "address"
        },
        {
          "internalType": "contract IBridge",
          "name": "_delayedInbox",
          "type": "address"
        }
      ],
      "stateMutability": "nonpayable",
      "type": "constructor"
    },
    {
      "inputs": [
        {
          "components": [
            {
              "internalType": "uint256",
              "name": "maxInboxMessagesRead",
              "type": "uint256"
            }
          ],
          "internalType": "struct ExecutionContext",
          "name": "execCtx",
          "type": "tuple"
        },
        {
          "components": [
            {
              "internalType": "enum MachineStatus",
              "name": "status",
              "type": "uint8"
            },
            {
              "components": [
                {
                  "components": [
                    {
                      "components": [
                        {
                          "internalType": "enum ValueType",
                          "name": "valueType",
                          "type": "uint8"
                        },
                        {
                          "internalType": "uint256",
                          "name": "contents",
                          "type": "uint256"
                        }
                      ],
                      "internalType": "struct Value[]",
                      "name": "inner",
                      "type": "tuple[]"
                    }
                  ],
                  "internalType": "struct ValueArray",
                  "name": "proved",
                  "type": "tuple"
                },
                {
                  "internalType": "bytes32",
                  "name": "remainingHash",
                  "type": "bytes32"
                }
              ],
              "internalType": "struct ValueStack",
              "name": "valueStack",
              "type": "tuple"
            },
            {
              "components": [
                {
                  "components": [
                    {
                      "components": [
                        {
                          "internalType": "enum ValueType",
                          "name": "valueType",
                          "type": "uint8"
                        },
                        {
                          "internalType": "uint256",
                          "name": "contents",
                          "type": "uint256"
                        }
                      ],
                      "internalType": "struct Value[]",
                      "name": "inner",
                      "type": "tuple[]"
                    }
                  ],
                  "internalType": "struct ValueArray",
                  "name": "proved",
                  "type": "tuple"
                },
                {
                  "internalType": "bytes32",
                  "name": "remainingHash",
                  "type": "bytes32"
                }
              ],
              "internalType": "struct ValueStack",
              "name": "internalStack",
              "type": "tuple"
            },
            {
              "components": [
                {
                  "components": [
                    {
                      "internalType": "uint32[]",
                      "name": "inner",
                      "type": "uint32[]"
                    }
                  ],
                  "internalType": "struct PcArray",
                  "name": "proved",
                  "type": "tuple"
                },
                {
                  "internalType": "bytes32",
                  "name": "remainingHash",
                  "type": "bytes32"
                }
              ],
              "internalType": "struct PcStack",
              "name": "blockStack",
              "type": "tuple"
            },
            {
              "components": [
                {
                  "components": [
                    {
                      "components": [
                        {
                          "internalType": "enum ValueType",
                          "name": "valueType",
                          "type": "uint8"
                        },
                        {
                          "internalType": "uint256",
                          "name": "contents",
                          "type": "uint256"
                        }
                      ],
                      "internalType": "struct Value",
                      "name": "returnPc",
                      "type": "tuple"
                    },
                    {
                      "internalType": "bytes32",
                      "name": "localsMerkleRoot",
                      "type": "bytes32"
                    },
                    {
                      "internalType": "uint32",
                      "name": "callerModule",
                      "type": "uint32"
                    },
                    {
                      "internalType": "uint32",
                      "name": "callerModuleInternals",
                      "type": "uint32"
                    }
                  ],
                  "internalType": "struct StackFrame[]",
                  "name": "proved",
                  "type": "tuple[]"
                },
                {
                  "internalType": "bytes32",
                  "name": "remainingHash",
                  "type": "bytes32"
                }
              ],
              "internalType": "struct StackFrameWindow",
              "name": "frameStack",
              "type": "tuple"
            },
            {
              "internalType": "bytes32",
              "name": "globalStateHash",
              "type": "bytes32"
            },
            {
              "internalType": "uint32",
              "name": "moduleIdx",
              "type": "uint32"
            },
            {
              "internalType": "uint32",
              "name": "functionIdx",
              "type": "uint32"
            },
            {
              "internalType": "uint32",
              "name": "functionPc",
              "type": "uint32"
            },
            {
              "internalType": "bytes32",
              "name": "modulesRoot",
              "type": "bytes32"
            }
          ],
          "internalType": "struct Machine",
          "name": "startMach",
          "type": "tuple"
        },
        {
          "components": [
            {
              "internalType": "bytes32",
              "name": "globalsMerkleRoot",
              "type": "bytes32"
            },
            {
              "components": [
                {
                  "internalType": "uint64",
                  "name": "size",
                  "type": "uint64"
                },
                {
                  "internalType": "bytes32",
                  "name": "merkleRoot",
                  "type": "bytes32"
                }
              ],
              "internalType": "struct ModuleMemory",
              "name": "moduleMemory",
              "type": "tuple"
            },
            {
              "internalType": "bytes32",
              "name": "tablesMerkleRoot",
              "type": "bytes32"
            },
            {
              "internalType": "bytes32",
              "name": "functionsMerkleRoot",
              "type": "bytes32"
            },
            {
              "internalType": "uint32",
              "name": "internalsOffset",
              "type": "uint32"
            }
          ],
          "internalType": "struct Module",
          "name": "startMod",
          "type": "tuple"
        },
        {
          "components": [
            {
              "internalType": "uint16",
              "name": "opcode",
              "type": "uint16"
            },
            {
              "internalType": "uint256",
              "name": "argumentData",
              "type": "uint256"
            }
          ],
          "internalType": "struct Instruction",
          "name": "inst",
          "type": "tuple"
        },
        {
          "internalType": "bytes",
          "name": "proof",
          "type": "bytes"
        }
      ],
      "name": "executeOneStep",
      "outputs": [
        {
          "components": [
            {
              "internalType": "enum MachineStatus",
              "name": "status",
              "type": "uint8"
            },
            {
              "components": [
                {
                  "components": [
                    {
                      "components": [
                        {
                          "internalType": "enum ValueType",
                          "name": "valueType",
                          "type": "uint8"
                        },
                        {
                          "internalType": "uint256",
                          "name": "contents",
                          "type": "uint256"
                        }
                      ],
                      "internalType": "struct Value[]",
                      "name": "inner",
                      "type": "tuple[]"
                    }
                  ],
                  "internalType": "struct ValueArray",
                  "name": "proved",
                  "type": "tuple"
                },
                {
                  "internalType": "bytes32",
                  "name": "remainingHash",
                  "type": "bytes32"
                }
              ],
              "internalType": "struct ValueStack",
              "name": "valueStack",
              "type": "tuple"
            },
            {
              "components": [
                {
                  "components": [
                    {
                      "components": [
                        {
                          "internalType": "enum ValueType",
                          "name": "valueType",
                          "type": "uint8"
                        },
                        {
                          "internalType": "uint256",
                          "name": "contents",
                          "type": "uint256"
                        }
                      ],
                      "internalType": "struct Value[]",
                      "name": "inner",
                      "type": "tuple[]"
                    }
                  ],
                  "internalType": "struct ValueArray",
                  "name": "proved",
                  "type": "tuple"
                },
                {
                  "internalType": "bytes32",
                  "name": "remainingHash",
                  "type": "bytes32"
                }
              ],
              "internalType": "struct ValueStack",
              "name": "internalStack",
              "type": "tuple"
            },
            {
              "components": [
                {
                  "components": [
                    {
                      "internalType": "uint32[]",
                      "name": "inner",
                      "type": "uint32[]"
                    }
                  ],
                  "internalType": "struct PcArray",
                  "name": "proved",
                  "type": "tuple"
                },
                {
                  "internalType": "bytes32",
                  "name": "remainingHash",
                  "type": "bytes32"
                }
              ],
              "internalType": "struct PcStack",
              "name": "blockStack",
              "type": "tuple"
            },
            {
              "components": [
                {
                  "components": [
                    {
                      "components": [
                        {
                          "internalType": "enum ValueType",
                          "name": "valueType",
                          "type": "uint8"
                        },
                        {
                          "internalType": "uint256",
                          "name": "contents",
                          "type": "uint256"
                        }
                      ],
                      "internalType": "struct Value",
                      "name": "returnPc",
                      "type": "tuple"
                    },
                    {
                      "internalType": "bytes32",
                      "name": "localsMerkleRoot",
                      "type": "bytes32"
                    },
                    {
                      "internalType": "uint32",
                      "name": "callerModule",
                      "type": "uint32"
                    },
                    {
                      "internalType": "uint32",
                      "name": "callerModuleInternals",
                      "type": "uint32"
                    }
                  ],
                  "internalType": "struct StackFrame[]",
                  "name": "proved",
                  "type": "tuple[]"
                },
                {
                  "internalType": "bytes32",
                  "name": "remainingHash",
                  "type": "bytes32"
                }
              ],
              "internalType": "struct StackFrameWindow",
              "name": "frameStack",
              "type": "tuple"
            },
            {
              "internalType": "bytes32",
              "name": "globalStateHash",
              "type": "bytes32"
            },
            {
              "internalType": "uint32",
              "name": "moduleIdx",
              "type": "uint32"
            },
            {
              "internalType": "uint32",
              "name": "functionIdx",
              "type": "uint32"
            },
            {
              "internalType": "uint32",
              "name": "functionPc",
              "type": "uint32"
            },
            {
              "internalType": "bytes32",
              "name": "modulesRoot",
              "type": "bytes32"
            }
          ],
          "internalType": "struct Machine",
          "name": "mach",
          "type": "tuple"
        },
        {
          "components": [
            {
              "internalType": "bytes32",
              "name": "globalsMerkleRoot",
              "type": "bytes32"
            },
            {
              "components": [
                {
                  "internalType": "uint64",
                  "name": "size",
                  "type": "uint64"
                },
                {
                  "internalType": "bytes32",
                  "name": "merkleRoot",
                  "type": "bytes32"
                }
              ],
              "internalType": "struct ModuleMemory",
              "name": "moduleMemory",
              "type": "tuple"
            },
            {
              "internalType": "bytes32",
              "name": "tablesMerkleRoot",
              "type": "bytes32"
            },
            {
              "internalType": "bytes32",
              "name": "functionsMerkleRoot",
              "type": "bytes32"
            },
            {
              "internalType": "uint32",
              "name": "internalsOffset",
              "type": "uint32"
            }
          ],
          "internalType": "struct Module",
          "name": "mod",
          "type": "tuple"
        }
      ],
      "stateMutability": "view",
      "type": "function"
    }
  ],
  "transactionHash": "0x6590ed9dde99a726180e0b574dd42bf445380f5111bfd606e1bd5b214594c7ad",
  "args": [
    "0x6973751B2EfcBB733Bd8Ed545090BAfCf667C6F7",
    "0xB0Ef627059b78749B094873F80c158Aa91200158"
  ],
  "solcInputHash": "e7611196dd0ae85361a704f7442944b3",
  "bytecode": "0x60806040523480156200001157600080fd5b5060405162004309380380620043098339818101604052810190620000379190620000ee565b816000806101000a81548173ffffffffffffffffffffffffffffffffffffffff021916908373ffffffffffffffffffffffffffffffffffffffff16021790555080600160006101000a81548173ffffffffffffffffffffffffffffffffffffffff021916908373ffffffffffffffffffffffffffffffffffffffff1602179055505050620001ca565b600081519050620000d18162000196565b92915050565b600081519050620000e881620001b0565b92915050565b6000806040838503121562000108576200010762000191565b5b60006200011885828601620000d7565b92505060206200012b85828601620000c0565b9150509250929050565b6000620001428262000171565b9050919050565b6000620001568262000135565b9050919050565b60006200016a8262000135565b9050919050565b600073ffffffffffffffffffffffffffffffffffffffff82169050919050565b600080fd5b620001a18162000149565b8114620001ad57600080fd5b50565b620001bb816200015d565b8114620001c757600080fd5b50565b61412f80620001da6000396000f3fe608060405234801561001057600080fd5b506004361061002b5760003560e01c8063c4017b3814610030575b600080fd5b61004a60048036038101906100459190612930565b610061565b604051610058929190613606565b60405180910390f35b610069611e5f565b610071611ef4565b8661007b90613a44565b91508580360381019061008e91906129e9565b905060008560000160208101906100a59190612a16565b9050611f3861801061ffff168261ffff16101580156100ce575061801361ffff168261ffff1611155b156100dd5761018e905061016f565b61802061ffff168261ffff1614156100f9576102f5905061016e565b61802161ffff168261ffff16141561011557610535905061016d565b61802261ffff168261ffff1614156101315761087b905061016c565b6040517f08c379a000000000000000000000000000000000000000000000000000000000815260040161016390613466565b60405180910390fd5b5b5b5b6101818a85858a8a8a8763ffffffff16565b5050965096945050505050565b60008360000160208101906101a39190612a16565b90506101ad611f42565b60006101ba8585836108b4565b80925081935050508760a001516101d0836109b0565b14610210576040517f08c379a0000000000000000000000000000000000000000000000000000000008152600401610207906134e6565b60405180910390fd5b61801061ffff168361ffff161480610231575061801161ffff168361ffff16145b15610259576102548888848989898790809261024f939291906137d7565b610a38565b6102d8565b61801261ffff168361ffff16141561027a576102758883610c5c565b6102d7565b61801361ffff168361ffff16141561029b576102968883610cfb565b6102d6565b6040517f08c379a00000000000000000000000000000000000000000000000000000000081526004016102cd90613486565b60405180910390fd5b5b5b6102e1826109b0565b8860a0018181525050505050505050505050565b60006103048660200151610dbb565b60200151905060006103198760200151610dbb565b60200151905085602001516000015167ffffffffffffffff1660208261033f9190613812565b1180610358575060006020826103559190613bb4565b14155b156103955760028760000190600381111561037657610375613c43565b5b9081600381111561038a57610389613c43565b5b81525050505061052d565b60006020826103a49190613868565b90506000806103b1611f68565b6103c28a60200151858a8a87610dd7565b80935081955082945050505060008888859080926103e2939291906137d7565b8080601f016020809104026020016040519081016040528093929190818152602001838380828437600081840152601f19601f82011690508083019250505050505050905082818051906020012014610470576040517f08c379a000000000000000000000000000000000000000000000000000000000815260040161046790613426565b60405180910390fd5b60005b60208163ffffffff1610801561049a575081518163ffffffff16896104989190613812565b105b156104f6576104e1848263ffffffff16848463ffffffff168c6104bd9190613812565b815181106104ce576104cd613c72565b5b602001015160f81c60f81b60f81c610e6c565b935080806104ee90613b25565b915050610473565b610501838786610f06565b8c6020015160200181815250506105248d6020015161051f83610f7d565b610fba565b50505050505050505b505050505050565b60006105448660200151610dbb565b60200151905060006105598760200151610dbb565b602001519050600061056e8860200151610dbb565b6020015190506000866020013514801561058c575088600001358110155b156105ca576003886000019060038111156105aa576105a9613c43565b5b908160038111156105be576105bd613c43565b5b81525050505050610873565b86602001516000015167ffffffffffffffff166020836105ea9190613812565b1180610603575060006020836106009190613bb4565b14155b156106415760028860000190600381111561062157610620613c43565b5b9081600381111561063557610634613c43565b5b81525050505050610873565b60006020836106509190613868565b905060008061065d611f68565b61066e8b60200151858b8b87610dd7565b809350819550829450505050611f386000808c60200135141561069557610fcc91506106ec565b60018c6020013514156106ac576113c591506106eb565b60028e6000019060038111156106c5576106c4613c43565b5b908160038111156106d9576106d8613c43565b5b81525050505050505050505050610873565b5b61070b878c8c88908092610702939291906137d7565b8563ffffffff16565b9050806107515760028e60000190600381111561072b5761072a613c43565b5b9081600381111561073f5761073e613c43565b5b81525050505050505050505050610873565b505082898990501015610799576040517f08c379a0000000000000000000000000000000000000000000000000000000008152600401610790906135a6565b60405180910390fd5b6000838a8a90506107aa91906138f3565b905060005b60208163ffffffff161080156107d55750818163ffffffff168a6107d39190613812565b105b1561083b57610826848263ffffffff168d8d8563ffffffff168e8b6107fa9190613812565b6108049190613812565b81811061081457610813613c72565b5b9050013560f81c60f81b60f81c610e6c565b9350808061083390613b25565b9150506107af565b610846838786610f06565b8d6020015160200181815250506108698e6020015161086483610f7d565b610fba565b5050505050505050505b505050505050565b60018560000190600381111561089457610893613c43565b5b908160038111156108a8576108a7613c43565b5b81525050505050505050565b6108bc611f42565b60008290506108c9611f7b565b6108d1611f9d565b60005b600161ffff168160ff161015610925576108ef888886611749565b848360ff166001811061090557610904613c72565b5b60200201819650828152505050808061091d90613b52565b9150506108d4565b5060005b600261ffff168160ff16101561098e57610944888886611773565b838360ff166002811061095a57610959613c72565b5b602002018196508267ffffffffffffffff1667ffffffffffffffff168152505050808061098690613b52565b915050610929565b5060405180604001604052808381526020018281525093505050935093915050565b600081600001516000600181106109ca576109c9613c72565b5b602002015182602001516000600281106109e7576109e6613c72565b5b60200201518360200151600160028110610a0457610a03613c72565b5b6020020151604051602001610a1b93929190613398565b604051602081830303815290604052805190602001209050919050565b6000610a478760200151610dbb565b6020015190506000610a64610a5f8960200151610dbb565b6117e7565b9050600161ffff168163ffffffff1610610ab057600288600001906003811115610a9157610a90613c43565b5b90816003811115610aa557610aa4613c43565b5b815250505050610c54565b86602001516000015167ffffffffffffffff16602083610ad09190613812565b1180610ae957506000602083610ae69190613bb4565b14155b15610b2657600288600001906003811115610b0757610b06613c43565b5b90816003811115610b1b57610b1a613c43565b5b815250505050610c54565b6000602083610b359190613868565b9050600080610b42611f68565b610b538b60200151858a8a87610dd7565b80935081955082945050505061801061ffff16896000016020810190610b799190612a16565b61ffff161415610bc157610baf81858c600001518863ffffffff1660018110610ba557610ba4613c72565b5b6020020151610f06565b8b602001516020018181525050610c4d565b61801161ffff16896000016020810190610bdb9190612a16565b61ffff161415610c1157818a600001518663ffffffff1660018110610c0357610c02613c72565b5b602002018181525050610c4c565b6040517f08c379a0000000000000000000000000000000000000000000000000000000008152600401610c43906134c6565b60405180910390fd5b5b5050505050505b505050505050565b6000610c73610c6e8460200151610dbb565b6117e7565b9050600261ffff168163ffffffff1610610cbe57600283600001906003811115610ca057610c9f613c43565b5b90816003811115610cb457610cb3613c43565b5b8152505050610cf7565b610cf58360200151610cf084602001518463ffffffff1660028110610ce657610ce5613c72565b5b60200201516118ac565b610fba565b505b5050565b6000610d12610d0d8460200151610dbb565b6118ed565b90506000610d2b610d268560200151610dbb565b6117e7565b9050600261ffff168163ffffffff1610610d7757600284600001906003811115610d5857610d57613c43565b5b90816003811115610d6c57610d6b613c43565b5b815250505050610db7565b8183602001518263ffffffff1660028110610d9557610d94613c72565b5b602002019067ffffffffffffffff16908167ffffffffffffffff168152505050505b5050565b610dc3611fbf565b610dd082600001516119b6565b9050919050565b600080610de2611f68565b839150610df0868684611749565b8093508194505050610e03868684611ac5565b80935081925050506000610e18828986610f06565b905088602001518114610e60576040517f08c379a0000000000000000000000000000000000000000000000000000000008152600401610e57906135c6565b60405180910390fd5b50955095509592505050565b600060208310610eb1576040517f08c379a0000000000000000000000000000000000000000000000000000000008152600401610ea890613566565b60405180910390fd5b600060088460016020610ec491906138f3565b610ece91906138f3565b610ed89190613899565b905060008560001c90508160ff901b1981169050818460ff16901b811790508060001b925050509392505050565b60008082604051602001610f1a91906133e0565b604051602081830303815290604052805190602001209050610f738585836040518060400160405280601381526020017f4d656d6f7279206d65726b6c6520747265653a00000000000000000000000000815250611ba8565b9150509392505050565b610f85611fbf565b604051806040016040528060006007811115610fa457610fa3613c43565b5b81526020018363ffffffff168152509050919050565b610fc8826000015182611c88565b5050565b60006028838390501015611015576040517f08c379a000000000000000000000000000000000000000000000000000000000815260040161100c906134a6565b60405180910390fd5b600061102384846020611773565b50809150506000848460405161103a92919061332d565b6040518091039020905060008060008054906101000a900473ffffffffffffffffffffffffffffffffffffffff1673ffffffffffffffffffffffffffffffffffffffff166306f130566040518163ffffffff1660e01b815260040160206040518083038186803b1580156110ad57600080fd5b505afa1580156110c1573d6000803e3d6000fd5b505050506040513d601f19601f820116820180604052508101906110e59190612a43565b8867ffffffffffffffff1611156111035760009450505050506113be565b60008867ffffffffffffffff1611156111ce5760008054906101000a900473ffffffffffffffffffffffffffffffffffffffff1673ffffffffffffffffffffffffffffffffffffffff1663d9dd67ab60018a61115f9190613927565b6040518263ffffffff1660e01b815260040161117b9190613636565b60206040518083038186803b15801561119357600080fd5b505afa1580156111a7573d6000803e3d6000fd5b505050506040513d601f19601f820116820180604052508101906111cb9190612903565b91505b60008467ffffffffffffffff16111561129b57600160009054906101000a900473ffffffffffffffffffffffffffffffffffffffff1673ffffffffffffffffffffffffffffffffffffffff1663d9dd67ab60018661122c9190613927565b6040518263ffffffff1660e01b81526004016112489190613636565b60206040518083038186803b15801561126057600080fd5b505afa158015611274573d6000803e3d6000fd5b505050506040513d601f19601f820116820180604052508101906112989190612903565b90505b60008284836040516020016112b2939291906132f0565b60405160208183030381529060405280519060200120905060008054906101000a900473ffffffffffffffffffffffffffffffffffffffff1673ffffffffffffffffffffffffffffffffffffffff1663d9dd67ab8a6040518263ffffffff1660e01b81526004016113239190613636565b60206040518083038186803b15801561133b57600080fd5b505afa15801561134f573d6000803e3d6000fd5b505050506040513d601f19601f820116820180604052508101906113739190612903565b81146113b4576040517f08c379a00000000000000000000000000000000000000000000000000000000081526004016113ab90613526565b60405180910390fd5b6001955050505050505b9392505050565b6000600160009054906101000a900473ffffffffffffffffffffffffffffffffffffffff1673ffffffffffffffffffffffffffffffffffffffff16633dbcc8d16040518163ffffffff1660e01b815260040160206040518083038186803b15801561142f57600080fd5b505afa158015611443573d6000803e3d6000fd5b505050506040513d601f19601f820116820180604052508101906114679190612a43565b8467ffffffffffffffff1611156114815760009050611742565b60a18383905010156114c8576040517f08c379a00000000000000000000000000000000000000000000000000000000081526004016114bf90613586565b60405180910390fd5b6000808567ffffffffffffffff16111561159657600160009054906101000a900473ffffffffffffffffffffffffffffffffffffffff1673ffffffffffffffffffffffffffffffffffffffff1663d9dd67ab6001876115279190613927565b6040518263ffffffff1660e01b81526004016115439190613636565b60206040518083038186803b15801561155b57600080fd5b505afa15801561156f573d6000803e3d6000fd5b505050506040513d601f19601f820116820180604052508101906115939190612903565b90505b6000848460a19080926115ab939291906137d7565b6040516115b9929190613346565b604051809103902090506000858560008181106115d9576115d8613c72565b5b9050013560f81c60f81b905060006115f387876001611d84565b508091505060008282898960219060a192611610939291906137d7565b87604051602001611625959493929190613278565b60405160208183030381529060405280519060200120905060006116498683611dee565b9050600160009054906101000a900473ffffffffffffffffffffffffffffffffffffffff1673ffffffffffffffffffffffffffffffffffffffff1663d9dd67ab8b6040518263ffffffff1660e01b81526004016116a69190613636565b60206040518083038186803b1580156116be57600080fd5b505afa1580156116d2573d6000803e3d6000fd5b505050506040513d601f19601f820116820180604052508101906116f69190612903565b8114611737576040517f08c379a000000000000000000000000000000000000000000000000000000000815260040161172e90613406565b60405180910390fd5b600196505050505050505b9392505050565b600080829050600061175c868684611d84565b80935081925050508060001b925050935093915050565b60008082905060005b60088110156117de5760088367ffffffffffffffff16901b92508585838181106117a9576117a8613c72565b5b9050013560f81c60f81b60f81c60ff168317925081806117c890613adc565b92505080806117d690613adc565b91505061177c565b50935093915050565b600080826020015190506000600781111561180557611804613c43565b5b8360000151600781111561181c5761181b613c43565b5b1461185c576040517f08c379a0000000000000000000000000000000000000000000000000000000008152600401611853906135e6565b60405180910390fd5b64010000000081106118a3576040517f08c379a000000000000000000000000000000000000000000000000000000000815260040161189a90613546565b60405180910390fd5b80915050919050565b6118b4611fbf565b6040518060400160405280600160078111156118d3576118d2613c43565b5b81526020018367ffffffffffffffff168152509050919050565b600080826020015190506001600781111561190b5761190a613c43565b5b8360000151600781111561192257611921613c43565b5b14611962576040517f08c379a000000000000000000000000000000000000000000000000000000000815260040161195990613446565b60405180910390fd5b6801000000000000000081106119ad576040517f08c379a00000000000000000000000000000000000000000000000000000000081526004016119a490613506565b60405180910390fd5b80915050919050565b6119be611fbf565b816000015160018360000151516119d591906138f3565b815181106119e6576119e5613c72565b5b6020026020010151905060006001836000015151611a0491906138f3565b67ffffffffffffffff811115611a1d57611a1c613ca1565b5b604051908082528060200260200182016040528015611a5657816020015b611a43611fbf565b815260200190600190039081611a3b5790505b50905060005b8151811015611ab55783600001518181518110611a7c57611a7b613c72565b5b6020026020010151828281518110611a9757611a96613c72565b5b60200260200101819052508080611aad90613adc565b915050611a5c565b5080836000018190525050919050565b611acd611f68565b60008290506000611adf868684611e21565b809350819250505060008160ff1667ffffffffffffffff811115611b0657611b05613ca1565b5b604051908082528060200260200182016040528015611b345781602001602082028036833780820191505090505b50905060005b8260ff168160ff161015611b8c57611b53888886611749565b838360ff1681518110611b6957611b68613c72565b5b602002602001018196508281525050508080611b8490613b52565b915050611b3a565b5060405180602001604052808281525093505050935093915050565b600082905060005b856000015151811015611c7f576000600186161415611c1957828287600001518381518110611be257611be1613c72565b5b6020026020010151604051602001611bfc9392919061335f565b604051602081830303815290604052805190602001209150611c65565b8286600001518281518110611c3157611c30613c72565b5b602002602001015183604051602001611c4c9392919061335f565b6040516020818303038152906040528051906020012091505b600185901c94508080611c7790613adc565b915050611bb0565b50949350505050565b60006001836000015151611c9c9190613812565b67ffffffffffffffff811115611cb557611cb4613ca1565b5b604051908082528060200260200182016040528015611cee57816020015b611cdb611fbf565b815260200190600190039081611cd35790505b50905060005b836000015151811015611d515783600001518181518110611d1857611d17613c72565b5b6020026020010151828281518110611d3357611d32613c72565b5b60200260200101819052508080611d4990613adc565b915050611cf4565b50818184600001515181518110611d6b57611d6a613c72565b5b6020026020010181905250808360000181905250505050565b60008082905060005b6020811015611de557600883901b9250858583818110611db057611daf613c72565b5b9050013560f81c60f81b60f81c60ff16831792508180611dcf90613adc565b9250508080611ddd90613adc565b915050611d8d565b50935093915050565b60008282604051602001611e039291906132c4565b60405160208183030381529060405280519060200120905092915050565b600080829050848482818110611e3a57611e39613c72565b5b9050013560f81c60f81b60f81c91508080611e5490613adc565b915050935093915050565b60405180610140016040528060006003811115611e7f57611e7e613c43565b5b8152602001611e8c611feb565b8152602001611e99611feb565b8152602001611ea661200e565b8152602001611eb3612031565b815260200160008019168152602001600063ffffffff168152602001600063ffffffff168152602001600063ffffffff168152602001600080191681525090565b6040518060a0016040528060008019168152602001611f1161204e565b81526020016000801916815260200160008019168152602001600063ffffffff1681525090565b611f40613cd0565b565b6040518060400160405280611f55611f7b565b8152602001611f62611f9d565b81525090565b6040518060200160405280606081525090565b6040518060200160405280600190602082028036833780820191505090505090565b6040518060400160405280600290602082028036833780820191505090505090565b604051806040016040528060006007811115611fde57611fdd613c43565b5b8152602001600081525090565b6040518060400160405280611ffe612075565b8152602001600080191681525090565b6040518060400160405280612021612088565b8152602001600080191681525090565b604051806040016040528060608152602001600080191681525090565b6040518060400160405280600067ffffffffffffffff168152602001600080191681525090565b6040518060200160405280606081525090565b6040518060200160405280606081525090565b60006120ae6120a984613676565b613651565b905080838252602082019050828560a08602820111156120d1576120d0613d22565b5b60005b8581101561210157816120e7888261270e565b845260208401935060a083019250506001810190506120d4565b5050509392505050565b600061211e612119846136a2565b613651565b9050808382526020820190508285604086028201111561214157612140613d22565b5b60005b858110156121715781612157888261284a565b845260208401935060408301925050600181019050612144565b5050509392505050565b600061218e612189846136ce565b613651565b905080838252602082019050828560208602820111156121b1576121b0613d22565b5b60005b858110156121e157816121c788826128d9565b8452602084019350602083019250506001810190506121b4565b5050509392505050565b600082601f830112612200576121ff613d04565b5b813561221084826020860161209b565b91505092915050565b600082601f83011261222e5761222d613d04565b5b813561223e84826020860161210b565b91505092915050565b600082601f83011261225c5761225b613d04565b5b813561226c84826020860161217b565b91505092915050565b60008135905061228481614066565b92915050565b60008151905061229981614066565b92915050565b60008083601f8401126122b5576122b4613d04565b5b8235905067ffffffffffffffff8111156122d2576122d1613cff565b5b6020830191508360018202830111156122ee576122ed613d22565b5b9250929050565b6000813590506123048161407d565b92915050565b6000813590506123198161408d565b92915050565b60006020828403121561233557612334613d09565b5b81905092915050565b60006040828403121561235457612353613d09565b5b81905092915050565b6000610140828403121561237457612373613d09565b5b81905092915050565b6000610140828403121561239457612393613d0e565b5b61239f610140613651565b905060006123af848285016122f5565b600083015250602082013567ffffffffffffffff8111156123d3576123d2613d18565b5b6123df848285016127de565b602083015250604082013567ffffffffffffffff81111561240357612402613d18565b5b61240f848285016127de565b604083015250606082013567ffffffffffffffff81111561243357612432613d18565b5b61243f84828501612636565b606083015250608082013567ffffffffffffffff81111561246357612462613d18565b5b61246f848285016126a2565b60808301525060a061248384828501612275565b60a08301525060c0612497848285016128d9565b60c08301525060e06124ab848285016128d9565b60e0830152506101006124c0848285016128d9565b610100830152506101206124d684828501612275565b6101208301525092915050565b6000604082840312156124f9576124f8613d0e565b5b6125036040613651565b90506000612513848285016128ee565b600083015250602061252784828501612275565b60208301525092915050565b600060c0828403121561254957612548613d09565b5b81905092915050565b600060c0828403121561256857612567613d0e565b5b61257260a0613651565b9050600061258284828501612275565b6000830152506020612596848285016124e3565b60208301525060606125aa84828501612275565b60408301525060806125be84828501612275565b60608301525060a06125d2848285016128d9565b60808301525092915050565b6000602082840312156125f4576125f3613d0e565b5b6125fe6020613651565b9050600082013567ffffffffffffffff81111561261e5761261d613d18565b5b61262a84828501612247565b60008301525092915050565b60006040828403121561264c5761264b613d0e565b5b6126566040613651565b9050600082013567ffffffffffffffff81111561267657612675613d18565b5b612682848285016125de565b600083015250602061269684828501612275565b60208301525092915050565b6000604082840312156126b8576126b7613d0e565b5b6126c26040613651565b9050600082013567ffffffffffffffff8111156126e2576126e1613d18565b5b6126ee848285016121eb565b600083015250602061270284828501612275565b60208301525092915050565b600060a0828403121561272457612723613d0e565b5b61272e6080613651565b9050600061273e8482850161284a565b600083015250604061275284828501612275565b6020830152506060612766848285016128d9565b604083015250608061277a848285016128d9565b60608301525092915050565b60006020828403121561279c5761279b613d0e565b5b6127a66020613651565b9050600082013567ffffffffffffffff8111156127c6576127c5613d18565b5b6127d284828501612219565b60008301525092915050565b6000604082840312156127f4576127f3613d0e565b5b6127fe6040613651565b9050600082013567ffffffffffffffff81111561281e5761281d613d18565b5b61282a84828501612786565b600083015250602061283e84828501612275565b60208301525092915050565b6000604082840312156128605761285f613d0e565b5b61286a6040613651565b9050600061287a8482850161230a565b600083015250602061288e848285016128af565b60208301525092915050565b6000813590506128a98161409d565b92915050565b6000813590506128be816140b4565b92915050565b6000815190506128d3816140b4565b92915050565b6000813590506128e8816140cb565b92915050565b6000813590506128fd816140e2565b92915050565b60006020828403121561291957612918613d2c565b5b60006129278482850161228a565b91505092915050565b600080600080600080610160878903121561294e5761294d613d2c565b5b600061295c89828a0161231f565b965050602087013567ffffffffffffffff81111561297d5761297c613d27565b5b61298989828a0161235d565b955050604061299a89828a01612533565b9450506101006129ac89828a0161233e565b93505061014087013567ffffffffffffffff8111156129ce576129cd613d27565b5b6129da89828a0161229f565b92509250509295509295509295565b600060c082840312156129ff576129fe613d2c565b5b6000612a0d84828501612552565b91505092915050565b600060208284031215612a2c57612a2b613d2c565b5b6000612a3a8482850161289a565b91505092915050565b600060208284031215612a5957612a58613d2c565b5b6000612a67848285016128c4565b91505092915050565b6000612a7c8383613123565b60a08301905092915050565b6000612a9483836131df565b60408301905092915050565b6000612aac8383613234565b60208301905092915050565b6000612ac38261372a565b612acd818561377d565b9350612ad8836136fa565b8060005b83811015612b09578151612af08882612a70565b9750612afb83613756565b925050600181019050612adc565b5085935050505092915050565b6000612b2182613735565b612b2b818561378e565b9350612b368361370a565b8060005b83811015612b67578151612b4e8882612a88565b9750612b5983613763565b925050600181019050612b3a565b5085935050505092915050565b6000612b7f82613740565b612b89818561379f565b9350612b948361371a565b8060005b83811015612bc5578151612bac8882612aa0565b9750612bb783613770565b925050600181019050612b98565b5085935050505092915050565b612be3612bde8261395b565b613b7c565b82525050565b612bf281613987565b82525050565b612c09612c0482613987565b613b86565b82525050565b6000612c1b83856137b0565b9350612c28838584613a69565b82840190509392505050565b612c3d81613a20565b82525050565b612c4c81613a32565b82525050565b6000612c5d8261374b565b612c6781856137cc565b9350612c77818560208601613a78565b80840191505092915050565b6000612c906013836137bb565b9150612c9b82613d5c565b602082019050919050565b6000612cb3600c836137bb565b9150612cbe82613d85565b602082019050919050565b6000612cd66007836137bb565b9150612ce182613dae565b602082019050919050565b6000612cf96015836137bb565b9150612d0482613dd7565b602082019050919050565b6000612d1c601a836137bb565b9150612d2782613e00565b602082019050919050565b6000612d3f6012836137bb565b9150612d4a82613e29565b602082019050919050565b6000612d626017836137bb565b9150612d6d82613e52565b602082019050919050565b6000612d856010836137bb565b9150612d9082613e7b565b602082019050919050565b6000612da8600d836137cc565b9150612db382613ea4565b600d82019050919050565b6000612dcb600c836137cc565b9150612dd682613ecd565b600c82019050919050565b6000612dee6007836137bb565b9150612df982613ef6565b602082019050919050565b6000612e116014836137bb565b9150612e1c82613f1f565b602082019050919050565b6000612e346007836137bb565b9150612e3f82613f48565b602082019050919050565b6000612e576015836137bb565b9150612e6282613f71565b602082019050919050565b6000612e7a6011836137bb565b9150612e8582613f9a565b602082019050919050565b6000612e9d6011836137bb565b9150612ea882613fc3565b602082019050919050565b6000612ec0600e836137bb565b9150612ecb82613fec565b602082019050919050565b6000612ee36007836137bb565b9150612eee82614015565b602082019050919050565b600061014083016000830151612f126000860182612c34565b5060208301518482036020860152612f2a82826131a2565b91505060408301518482036040860152612f4482826131a2565b91505060608301518482036060860152612f5e82826130a9565b91505060808301518482036080860152612f7882826130e6565b91505060a0830151612f8d60a0860182612be9565b5060c0830151612fa060c0860182613234565b5060e0830151612fb360e0860182613234565b50610100830151612fc8610100860182613234565b50610120830151612fdd610120860182612be9565b508091505092915050565b604082016000820151612ffe6000850182613252565b5060208201516130116020850182612be9565b50505050565b60c08201600082015161302d6000850182612be9565b5060208201516130406020850182612fe8565b5060408201516130536060850182612be9565b5060608201516130666080850182612be9565b50608082015161307960a0850182613234565b50505050565b6000602083016000830151848203600086015261309c8282612b74565b9150508091505092915050565b600060408301600083015184820360008601526130c6828261307f565b91505060208301516130db6020860182612be9565b508091505092915050565b600060408301600083015184820360008601526131038282612ab8565b91505060208301516131186020860182612be9565b508091505092915050565b60a08201600082015161313960008501826131df565b50602082015161314c6040850182612be9565b50604082015161315f6060850182613234565b5060608201516131726080850182613234565b50505050565b600060208301600083015184820360008601526131958282612b16565b9150508091505092915050565b600060408301600083015184820360008601526131bf8282613178565b91505060208301516131d46020860182612be9565b508091505092915050565b6040820160008201516131f56000850182612c43565b5060208201516132086020850182613225565b50505050565b61321f61321a826139c5565b613b90565b82525050565b61322e816139e5565b82525050565b61323d816139ef565b82525050565b61324c81613a57565b82525050565b61325b816139ff565b82525050565b61327261326d826139ff565b613ba2565b82525050565b60006132848288612bd2565b600182019150613294828761320e565b6014820191506132a5828587612c0f565b91506132b18284612bf8565b6020820191508190509695505050505050565b60006132d08285612bf8565b6020820191506132e08284612bf8565b6020820191508190509392505050565b60006132fc8286612bf8565b60208201915061330c8285612bf8565b60208201915061331c8284612bf8565b602082019150819050949350505050565b600061333a828486612c0f565b91508190509392505050565b6000613353828486612c0f565b91508190509392505050565b600061336b8286612c52565b91506133778285612bf8565b6020820191506133878284612bf8565b602082019150819050949350505050565b60006133a382612d9b565b91506133af8286612bf8565b6020820191506133bf8285613261565b6008820191506133cf8284613261565b600882019150819050949350505050565b60006133eb82612dbe565b91506133f78284612bf8565b60208201915081905092915050565b6000602082019050818103600083015261341f81612c83565b9050919050565b6000602082019050818103600083015261343f81612ca6565b9050919050565b6000602082019050818103600083015261345f81612cc9565b9050919050565b6000602082019050818103600083015261347f81612cec565b9050919050565b6000602082019050818103600083015261349f81612d0f565b9050919050565b600060208201905081810360008301526134bf81612d32565b9050919050565b600060208201905081810360008301526134df81612d55565b9050919050565b600060208201905081810360008301526134ff81612d78565b9050919050565b6000602082019050818103600083015261351f81612de1565b9050919050565b6000602082019050818103600083015261353f81612e04565b9050919050565b6000602082019050818103600083015261355f81612e27565b9050919050565b6000602082019050818103600083015261357f81612e4a565b9050919050565b6000602082019050818103600083015261359f81612e6d565b9050919050565b600060208201905081810360008301526135bf81612e90565b9050919050565b600060208201905081810360008301526135df81612eb3565b9050919050565b600060208201905081810360008301526135ff81612ed6565b9050919050565b600060e08201905081810360008301526136208185612ef9565b905061362f6020830184613017565b9392505050565b600060208201905061364b6000830184613243565b92915050565b600061365b61366c565b90506136678282613aab565b919050565b6000604051905090565b600067ffffffffffffffff82111561369157613690613ca1565b5b602082029050602081019050919050565b600067ffffffffffffffff8211156136bd576136bc613ca1565b5b602082029050602081019050919050565b600067ffffffffffffffff8211156136e9576136e8613ca1565b5b602082029050602081019050919050565b6000819050602082019050919050565b6000819050602082019050919050565b6000819050602082019050919050565b600081519050919050565b600081519050919050565b600081519050919050565b600081519050919050565b6000602082019050919050565b6000602082019050919050565b6000602082019050919050565b600082825260208201905092915050565b600082825260208201905092915050565b600082825260208201905092915050565b600081905092915050565b600082825260208201905092915050565b600081905092915050565b600080858511156137eb576137ea613d1d565b5b838611156137fc576137fb613d13565b5b6001850283019150848603905094509492505050565b600061381d826139e5565b9150613828836139e5565b9250827fffffffffffffffffffffffffffffffffffffffffffffffffffffffffffffffff0382111561385d5761385c613be5565b5b828201905092915050565b6000613873826139e5565b915061387e836139e5565b92508261388e5761388d613c14565b5b828204905092915050565b60006138a4826139e5565b91506138af836139e5565b9250817fffffffffffffffffffffffffffffffffffffffffffffffffffffffffffffffff04831182151516156138e8576138e7613be5565b5b828202905092915050565b60006138fe826139e5565b9150613909836139e5565b92508282101561391c5761391b613be5565b5b828203905092915050565b6000613932826139ff565b915061393d836139ff565b9250828210156139505761394f613be5565b5b828203905092915050565b60007fff0000000000000000000000000000000000000000000000000000000000000082169050919050565b6000819050919050565b600081905061399f8261403e565b919050565b60008190506139b282614052565b919050565b600061ffff82169050919050565b600073ffffffffffffffffffffffffffffffffffffffff82169050919050565b6000819050919050565b600063ffffffff82169050919050565b600067ffffffffffffffff82169050919050565b600060ff82169050919050565b6000613a2b82613991565b9050919050565b6000613a3d826139a4565b9050919050565b6000613a50368361237d565b9050919050565b6000613a62826139ff565b9050919050565b82818337600083830152505050565b60005b83811015613a96578082015181840152602081019050613a7b565b83811115613aa5576000848401525b50505050565b613ab482613d31565b810181811067ffffffffffffffff82111715613ad357613ad2613ca1565b5b80604052505050565b6000613ae7826139e5565b91507fffffffffffffffffffffffffffffffffffffffffffffffffffffffffffffffff821415613b1a57613b19613be5565b5b600182019050919050565b6000613b30826139ef565b915063ffffffff821415613b4757613b46613be5565b5b600182019050919050565b6000613b5d82613a13565b915060ff821415613b7157613b70613be5565b5b600182019050919050565b6000819050919050565b6000819050919050565b6000613b9b82613d4f565b9050919050565b6000613bad82613d42565b9050919050565b6000613bbf826139e5565b9150613bca836139e5565b925082613bda57613bd9613c14565b5b828206905092915050565b7f4e487b7100000000000000000000000000000000000000000000000000000000600052601160045260246000fd5b7f4e487b7100000000000000000000000000000000000000000000000000000000600052601260045260246000fd5b7f4e487b7100000000000000000000000000000000000000000000000000000000600052602160045260246000fd5b7f4e487b7100000000000000000000000000000000000000000000000000000000600052603260045260246000fd5b7f4e487b7100000000000000000000000000000000000000000000000000000000600052604160045260246000fd5b7f4e487b7100000000000000000000000000000000000000000000000000000000600052605160045260246000fd5b600080fd5b600080fd5b600080fd5b600080fd5b600080fd5b600080fd5b600080fd5b600080fd5b600080fd5b600080fd5b6000601f19601f8301169050919050565b60008160c01b9050919050565b60008160601b9050919050565b7f4241445f44454c415945445f4d45535341474500000000000000000000000000600082015250565b7f4241445f505245494d4147450000000000000000000000000000000000000000600082015250565b7f4e4f545f49363400000000000000000000000000000000000000000000000000600082015250565b7f494e56414c49445f4d454d4f52595f4f50434f44450000000000000000000000600082015250565b7f494e56414c49445f474c4f42414c53544154455f4f50434f4445000000000000600082015250565b7f4241445f534551494e424f585f50524f4f460000000000000000000000000000600082015250565b7f4241445f474c4f42414c5f53544154455f4f50434f4445000000000000000000600082015250565b7f4241445f474c4f42414c5f535441544500000000000000000000000000000000600082015250565b7f476c6f62616c2073746174653a00000000000000000000000000000000000000600082015250565b7f4d656d6f7279206c6561663a0000000000000000000000000000000000000000600082015250565b7f4241445f49363400000000000000000000000000000000000000000000000000600082015250565b7f4241445f534551494e424f585f4d455353414745000000000000000000000000600082015250565b7f4241445f49333200000000000000000000000000000000000000000000000000600082015250565b7f4241445f5345545f4c4541465f425954455f4944580000000000000000000000600082015250565b7f4241445f44454c415945445f50524f4f46000000000000000000000000000000600082015250565b7f4241445f4d4553534147455f50524f4f46000000000000000000000000000000600082015250565b7f57524f4e475f4d454d5f524f4f54000000000000000000000000000000000000600082015250565b7f4e4f545f49333200000000000000000000000000000000000000000000000000600082015250565b6004811061404f5761404e613c43565b5b50565b6008811061406357614062613c43565b5b50565b61406f81613987565b811461407a57600080fd5b50565b6004811061408a57600080fd5b50565b6008811061409a57600080fd5b50565b6140a6816139b7565b81146140b157600080fd5b50565b6140bd816139e5565b81146140c857600080fd5b50565b6140d4816139ef565b81146140df57600080fd5b50565b6140eb816139ff565b81146140f657600080fd5b5056fea2646970667358221220813df195b91f4c9cee17c0448edd55b1411aaa5d9246b90a4ed4a62e9a621ce764736f6c63430008060033",
  "devdoc": {
    "kind": "dev",
    "methods": {},
    "version": 1
  },
  "userdoc": {
    "kind": "user",
    "methods": {},
    "version": 1
  },
  "storageLayout": {
    "storage": [
      {
        "astId": 6031,
        "contract": "src/osp/OneStepProverHostIo.sol:OneStepProverHostIo",
        "label": "seqInbox",
        "offset": 0,
        "slot": "0",
        "type": "t_contract(ISequencerInbox)1839"
      },
      {
        "astId": 6034,
        "contract": "src/osp/OneStepProverHostIo.sol:OneStepProverHostIo",
        "label": "delayedInbox",
        "offset": 0,
        "slot": "1",
        "type": "t_contract(IBridge)1703"
      }
    ],
    "types": {
      "t_contract(IBridge)1703": {
        "encoding": "inplace",
        "label": "contract IBridge",
        "numberOfBytes": "20"
      },
      "t_contract(ISequencerInbox)1839": {
        "encoding": "inplace",
        "label": "contract ISequencerInbox",
        "numberOfBytes": "20"
      }
    }
  }
}