{
  "address": "0x8a70430fBCb284b5bb1d46903af3678EBDEaA7f4",
  "abi": [
    {
      "inputs": [],
      "name": "test",
      "outputs": [],
      "stateMutability": "pure",
      "type": "function"
    }
  ],
  "transactionHash": "0x5a2189891b3574c0c6636f1c44ef61ebe39ad9f31e0fe6751bfba2239abc9751",
  "args": [],
  "solcInputHash": "e7611196dd0ae85361a704f7442944b3",
  "bytecode": "0x608060405234801561001057600080fd5b50610cee806100206000396000f3fe608060405234801561001057600080fd5b506004361061002b5760003560e01c8063f8a8fd6d14610030575b600080fd5b61003861003a565b005b60006040518060200160405280600267ffffffffffffffff81111561006257610061610b18565b5b60405190808252806020026020018201604052801561009b57816020015b610088610716565b8152602001906001900390816100805790505b50815250905060026100ac82610468565b146100ec576040517f08c379a00000000000000000000000000000000000000000000000000000000081526004016100e39061093d565b60405180910390fd5b6101018160006100fc6001610477565b6104b4565b6101168160016101116002610477565b6104b4565b610129816101246003610477565b6104dc565b600361013482610468565b14610174576040517f08c379a000000000000000000000000000000000000000000000000000000000815260040161016b906108dd565b60405180910390fd5b60005b61018082610468565b81101561026657600061019383836105d8565b9050600060078111156101a9576101a8610aba565b5b816000015160078111156101c0576101bf610aba565b5b14610200576040517f08c379a00000000000000000000000000000000000000000000000000000000081526004016101f79061089d565b60405180910390fd5b60018261020d91906109ae565b816020015114610252576040517f08c379a0000000000000000000000000000000000000000000000000000000008152600401610249906108bd565b60405180910390fd5b50808061025e90610a42565b915050610177565b50600061027282610607565b90506000600781111561028857610287610aba565b5b8160000151600781111561029f5761029e610aba565b5b146102df576040517f08c379a00000000000000000000000000000000000000000000000000000000081526004016102d69061087d565b60405180910390fd5b6003816020015114610326576040517f08c379a000000000000000000000000000000000000000000000000000000000815260040161031d9061095d565b60405180910390fd5b600261033183610468565b14610371576040517f08c379a00000000000000000000000000000000000000000000000000000000081526004016103689061091d565b60405180910390fd5b60005b61037d83610468565b81101561046357600061039084836105d8565b9050600060078111156103a6576103a5610aba565b5b816000015160078111156103bd576103bc610aba565b5b146103fd576040517f08c379a00000000000000000000000000000000000000000000000000000000081526004016103f4906108fd565b60405180910390fd5b60018261040a91906109ae565b81602001511461044f576040517f08c379a00000000000000000000000000000000000000000000000000000000081526004016104469061097d565b60405180910390fd5b50808061045b90610a42565b915050610374565b505050565b60008160000151519050919050565b61047f610716565b60405180604001604052806000600781111561049e5761049d610aba565b5b81526020018363ffffffff168152509050919050565b80836000015183815181106104cc576104cb610ae9565b5b6020026020010181905250505050565b600060018360000151516104f091906109ae565b67ffffffffffffffff81111561050957610508610b18565b5b60405190808252806020026020018201604052801561054257816020015b61052f610716565b8152602001906001900390816105275790505b50905060005b8360000151518110156105a5578360000151818151811061056c5761056b610ae9565b5b602002602001015182828151811061058757610586610ae9565b5b6020026020010181905250808061059d90610a42565b915050610548565b508181846000015151815181106105bf576105be610ae9565b5b6020026020010181905250808360000181905250505050565b6105e0610716565b826000015182815181106105f7576105f6610ae9565b5b6020026020010151905092915050565b61060f610716565b816000015160018360000151516106269190610a04565b8151811061063757610636610ae9565b5b60200260200101519050600060018360000151516106559190610a04565b67ffffffffffffffff81111561066e5761066d610b18565b5b6040519080825280602002602001820160405280156106a757816020015b610694610716565b81526020019060019003908161068c5790505b50905060005b815181101561070657836000015181815181106106cd576106cc610ae9565b5b60200260200101518282815181106106e8576106e7610ae9565b5b602002602001018190525080806106fe90610a42565b9150506106ad565b5080836000018190525050919050565b60405180604001604052806000600781111561073557610734610aba565b5b8152602001600081525090565b600061074f600c8361099d565b915061075a82610b47565b602082019050919050565b6000610772600d8361099d565b915061077d82610b70565b602082019050919050565b600061079560118361099d565b91506107a082610b99565b602082019050919050565b60006107b860088361099d565b91506107c382610bc2565b602082019050919050565b60006107db600c8361099d565b91506107e682610beb565b602082019050919050565b60006107fe60078361099d565b915061080982610c14565b602082019050919050565b600061082160098361099d565b915061082c82610c3d565b602082019050919050565b600061084460108361099d565b915061084f82610c66565b602082019050919050565b600061086760108361099d565b915061087282610c8f565b602082019050919050565b6000602082019050818103600083015261089681610742565b9050919050565b600060208201905081810360008301526108b681610765565b9050919050565b600060208201905081810360008301526108d681610788565b9050919050565b600060208201905081810360008301526108f6816107ab565b9050919050565b60006020820190508181036000830152610916816107ce565b9050919050565b60006020820190508181036000830152610936816107f1565b9050919050565b6000602082019050818103600083015261095681610814565b9050919050565b6000602082019050818103600083015261097681610837565b9050919050565b600060208201905081810360008301526109968161085a565b9050919050565b600082825260208201905092915050565b60006109b982610a38565b91506109c483610a38565b9250827fffffffffffffffffffffffffffffffffffffffffffffffffffffffffffffffff038211156109f9576109f8610a8b565b5b828201905092915050565b6000610a0f82610a38565b9150610a1a83610a38565b925082821015610a2d57610a2c610a8b565b5b828203905092915050565b6000819050919050565b6000610a4d82610a38565b91507fffffffffffffffffffffffffffffffffffffffffffffffffffffffffffffffff821415610a8057610a7f610a8b565b5b600182019050919050565b7f4e487b7100000000000000000000000000000000000000000000000000000000600052601160045260246000fd5b7f4e487b7100000000000000000000000000000000000000000000000000000000600052602160045260246000fd5b7f4e487b7100000000000000000000000000000000000000000000000000000000600052603260045260246000fd5b7f4e487b7100000000000000000000000000000000000000000000000000000000600052604160045260246000fd5b7f504f505f5245545f545950450000000000000000000000000000000000000000600082015250565b7f505553485f56414c5f5459504500000000000000000000000000000000000000600082015250565b7f505553485f56414c5f434f4e54454e5453000000000000000000000000000000600082015250565b7f505553485f4c454e000000000000000000000000000000000000000000000000600082015250565b7f504f505f56414c5f545950450000000000000000000000000000000000000000600082015250565b7f504f505f4c454e00000000000000000000000000000000000000000000000000600082015250565b7f53544152545f4c454e0000000000000000000000000000000000000000000000600082015250565b7f504f505f5245545f434f4e54454e545300000000000000000000000000000000600082015250565b7f504f505f56414c5f434f4e54454e54530000000000000000000000000000000060008201525056fea26469706673582212205c78d93b7fa781c002a21ff12bb7d63ca719958ca23d1b43e655ac53aa053d9e64736f6c63430008060033",
  "devdoc": {
    "kind": "dev",
    "methods": {},
    "version": 1
  },
  "userdoc": {
    "kind": "user",
    "methods": {},
    "version": 1
  },
  "storageLayout": {
    "storage": [],
    "types": null
  }
}